{
	"data": {
		"bytecode": {
			"linkReferences": {},
			"object": "60a06040525f608090815260059061001790826102e3565b50348015610023575f5ffd5b5060408051602081019091525f81526001805460ff19169055610045816100fa565b506100505f3361010a565b5061007b7f9f2df0fed2c77648de5860a4cc508cd0818c85b8b8a1ab4ceeef8d981c8956a63361010a565b506100a67fe926d122b799dcbe5c2eccdf60ae0aefbb1a4bc75a7848bb07befecf8c775f5c3361010a565b5060408051808201909152601381527f436172626f6e20437265646974204173736574000000000000000000000000006020820152600b906100e890826102e3565b506100f5308060016101b3565b61039d565b600461010682826102e3565b5050565b5f828152602081815260408083206001600160a01b038516845290915281205460ff166101aa575f838152602081815260408083206001600160a01b03861684529091529020805460ff191660011790556101623390565b6001600160a01b0316826001600160a01b0316847f2f8788117e7eff1d82e926ec794901d17c78024a50270940304540a733656f0d60405160405180910390a45060016101ad565b505f5b92915050565b6001600160a01b0382166101df5760405162ced3e160e81b81525f600482015260240160405180910390fd5b6001600160a01b038381165f81815260036020908152604080832094871680845294825291829020805460ff191686151590811790915591519182527f17307eab39ab6107e8899845ad3d59bd9653f200f220920489ca2b5937696c31910160405180910390a3505050565b634e487b7160e01b5f52604160045260245ffd5b600181811c9082168061027357607f821691505b60208210810361029157634e487b7160e01b5f52602260045260245ffd5b50919050565b601f8211156102de57805f5260205f20601f840160051c810160208510156102bc5750805b601f840160051c820191505b818110156102db575f81556001016102c8565b50505b505050565b81516001600160401b038111156102fc576102fc61024b565b6103108161030a845461025f565b84610297565b6020601f821160018114610342575f831561032b5750848201515b5f19600385901b1c1916600184901b1784556102db565b5f84815260208120601f198516915b828110156103715787850151825560209485019460019092019101610351565b508482101561038e57868401515f19600387901b60f8161c191681555b50505050600190811b01905550565b614b49806103aa5f395ff3fe608060405234801561000f575f5ffd5b5060043610610371575f3560e01c80638bb27d02116101d4578063c71d0ea311610109578063df6f5b20116100a9578063f242432a11610079578063f242432a14610842578063f5298aca14610855578063fb218f5f14610868578063fdbda0ec1461087b575f5ffd5b8063df6f5b20146107dc578063e22c4515146107fc578063e985e9c51461080f578063f23a6e6114610822575f5ffd5b8063d547741f116100e4578063d547741f14610763578063d58778d614610776578063dd5b3a6514610789578063dedaff541461079e575f5ffd5b8063c71d0ea314610713578063caff99ce14610728578063d53913931461074f575f5ffd5b8063a5e2361d11610174578063b21fa6541161014f578063b21fa65414610693578063bc197c81146106a6578063bd85b039146106e1578063be7cf75014610700575f5ffd5b8063a5e2361d14610665578063a709872814610678578063a9b566a314610680575f5ffd5b80639dd6a449116101af5780639dd6a44914610630578063a217fddf14610643578063a22cb4651461064a578063a3e1ff321461065d575f5ffd5b80638bb27d02146105ea57806391d148541461060a5780639cdf0f461461061d575f5ffd5b806330377174116102aa5780635c975abb1161024a57806370164f0e1161022557806370164f0e146105b4578063731133e9146105c757806377e1b4ca146105da5780638456cb59146105e2575f5ffd5b80635c975abb146105815780636804a9581461058c5780636b20c454146105a1575f5ffd5b80633f4ba83a116102855780633f4ba83a146105185780634e1273f4146105205780634f558e79146105405780635a1f3c2814610561575f5ffd5b806330377174146104df5780633038bfdf146104f257806336568abe14610505575f5ffd5b80631f43cf8511610315578063248a9ca3116102f0578063248a9ca31461045c578063258672aa1461047e5780632eb2c2d6146104b95780632f2ff15d146104cc575f5ffd5b80631f43cf85146104165780631f7fdffa146104365780632456545a14610449575f5ffd5b806306fdde031161035057806306fdde03146103d35780630e89341c146103e8578063162094c4146103fb57806318160ddd1461040e575f5ffd5b8062fdd58e1461037557806301ffc9a71461039b578063059dfe13146103be575b5f5ffd5b61038861038336600461382b565b61089c565b6040519081526020015b60405180910390f35b6103ae6103a9366004613868565b6108c5565b6040519015158152602001610392565b6103d16103cc366004613941565b6108e9565b005b6103db610ab2565b60405161039291906139a0565b6103db6103f63660046139b2565b610b3e565b6103d16104093660046139c9565b610b49565b600854610388565b610429610424366004613a0c565b610bdb565b6040516103929190613a25565b6103d1610444366004613b4e565b610db5565b6103d1610457366004613bea565b610ddf565b61038861046a3660046139b2565b5f9081526020819052604090206001015490565b6104a461048c3660046139b2565b600d6020525f90815260409020805460019091015482565b60408051928352602083019190915201610392565b6103d16104c7366004613c24565b610fe3565b6103d16104da366004613cd0565b61104a565b6103db6104ed3660046139b2565b611074565b6103d1610500366004613cfa565b61109b565b6103d1610513366004613cd0565b6111ca565b6103d16111fd565b61053361052e366004613d4d565b611212565b6040516103929190613e3e565b6103ae61054e3660046139b2565b5f90815260076020526040902054151590565b61057461056f3660046139b2565b6112dc565b6040516103929190613e6e565b60015460ff166103ae565b6105946113d8565b6040516103929190613e80565b6103d16105af366004613ed7565b611546565b6103d16105c2366004613941565b6115a5565b6103d16105d5366004613f49565b61176d565b6103ae611790565b6103d16117a0565b6105fd6105f83660046139b2565b6117b2565b6040516103929190613f8d565b6103ae610618366004613cd0565b611874565b6103d161062b366004613941565b61189c565b6103d161063e36600461400d565b611a22565b6103885f81565b6103d161065836600461400d565b611ade565b610429611ae9565b6103d1610673366004613cd0565b611c45565b610429611c4f565b61038861068e3660046139b2565b611db3565b6103db6106a13660046139b2565b611dd2565b6106c86106b43660046140c6565b63bc197c8160e01b98975050505050505050565b6040516001600160e01b03199091168152602001610392565b6103886106ef3660046139b2565b5f9081526007602052604090205490565b6103d161070e366004614182565b611e9e565b61071b6120af565b60405161039291906141df565b6103887fe926d122b799dcbe5c2eccdf60ae0aefbb1a4bc75a7848bb07befecf8c775f5c81565b6103885f516020614af45f395f51905f5281565b6103d1610771366004613cd0565b612190565b6103886107843660046139b2565b6121b4565b6107916121c3565b604051610392919061422b565b6107b16107ac366004614282565b612297565b604080516001600160a01b039586168152949093166020850152918301526060820152608001610392565b6107ef6107ea3660046139b2565b6122e5565b60405161039291906142a2565b6103d161080a3660046142b9565b61234c565b6103ae61081d366004614304565b612683565b6106c861083036600461432c565b63f23a6e6160e01b9695505050505050565b6103d161085036600461439e565b6126b0565b6103d16108633660046143f1565b61270f565b6103d1610876366004613941565b612745565b61088e6108893660046139b2565b6127e4565b604051610392929190614421565b5f8181526002602090815260408083206001600160a01b03861684529091529020545b92915050565b5f6001600160e01b03198216630271189760e51b14806108bf57506108bf82612886565b7fe926d122b799dcbe5c2eccdf60ae0aefbb1a4bc75a7848bb07befecf8c775f5c610913816128c5565b5f61091d836128cf565b90505f5b600e548110156109e9575f600e828154811061093f5761093f614439565b905f5260205f20015490508280519060200120600c5f8381526020019081526020015f2060010160405161097391906144ed565b6040518091039020036109e05760405162461bcd60e51b815260206004820152602a60248201527f53686172656431313535546f6b656e3a204475706c69636174652073756666696044820152691e0819195d1958dd195960b21b60648201526084015b60405180910390fd5b50600101610921565b506109f8600a80546001019055565b5f610a02600a5490565b60408051808201825282815260208082018681525f858152600c909252929020815181559151929350916001820190610a3b908261453c565b5050600e80546001810182555f919091527fbb7b4a454dc3493923482f07822329ed19e8244eff582cc204f8554c3620c3fd018290555060405181907f62b7b5ba11bfc95430fab0460fdf99b9c8fbc2b3a6a48caf79c3ee1b591c033690610aa49085906139a0565b60405180910390a250505050565b600b8054610abf9061444d565b80601f0160208091040260200160405190810160405280929190818152602001828054610aeb9061444d565b8015610b365780601f10610b0d57610100808354040283529160200191610b36565b820191905f5260205f20905b815481529060010190602001808311610b1957829003601f168201915b505050505081565b60606108bf82612a22565b5f610b53816128c5565b5f8381526007602052604081205411610bc45760405162461bcd60e51b815260206004820152602d60248201527f53686172656431313535546f6b656e3a2055524920736574206f66206e6f6e6560448201526c3c34b9ba32b73a103a37b5b2b760991b60648201526084016109d7565b610bd683610bd1846128cf565b612afe565b505050565b60606001600160a01b038216610c445760405162461bcd60e51b815260206004820152602860248201527f53686172656431313535546f6b656e3a20496e76616c6964206163636f756e74604482015267206164647265737360c01b60648201526084016109d7565b5f805b600f54811015610c93575f610c7785600f8481548110610c6957610c69614439565b905f5260205f20015461089c565b1115610c8b5781610c878161460d565b9250505b600101610c47565b505f816001600160401b03811115610cad57610cad613883565b604051908082528060200260200182016040528015610ce657816020015b610cd361378c565b815260200190600190039081610ccb5790505b5090505f805b600f54811015610dab575f600f8281548110610d0a57610d0a614439565b905f5260205f20015490505f610d20888361089c565b90508015610da1576040518060800160405280838152602001828152602001610d4884610b3e565b81525f848152600d60209081526040918290208251808401909352805483526001015482820152909101528551869086908110610d8757610d87614439565b60200260200101819052508380610d9d9061460d565b9450505b5050600101610cec565b5090949350505050565b5f516020614af45f395f51905f52610dcc816128c5565b610dd885858585612b4e565b5050505050565b7fe926d122b799dcbe5c2eccdf60ae0aefbb1a4bc75a7848bb07befecf8c775f5c610e09816128c5565b6001600160a01b038316610e2f5760405162461bcd60e51b81526004016109d790614625565b5f8211610e4e5760405162461bcd60e51b81526004016109d79061466f565b6040516370a0823160e01b8152306004820152849083906001600160a01b038316906370a0823190602401602060405180830381865afa158015610e94573d5f5f3e3d5ffd5b505050506040513d601f19601f82011682018060405250810190610eb891906146cc565b1015610f235760405162461bcd60e51b815260206004820152603460248201527f53686172656431313535546f6b656e3a20496e73756666696369656e7420636f6044820152736e74726163742045524332302062616c616e636560601b60648201526084016109d7565b60405163a9059cbb60e01b81526001600160a01b0385811660048301526024820185905282169063a9059cbb906044016020604051808303815f875af1158015610f6f573d5f5f3e3d5ffd5b505050506040513d601f19601f82011682018060405250810190610f9391906146e3565b50604080518481524260208201526001600160a01b0380871692908816917f2e51953afe6d89da55b864c5708f97aa982491a9292d2ea5b81445c9bb830ae8910160405180910390a35050505050565b336001600160a01b038616811480159061100457506110028682612683565b155b156110355760405163711bec9160e11b81526001600160a01b038083166004830152871660248201526044016109d7565b6110428686868686612b84565b505050505050565b5f82815260208190526040902060010154611064816128c5565b61106e8383612be2565b50505050565b60108181548110611083575f80fd5b905f5260205f20015f915090508054610abf9061444d565b5f6110a5816128c5565b6001600160a01b0384166110cb5760405162461bcd60e51b81526004016109d790614625565b5f82116110ea5760405162461bcd60e51b81526004016109d79061466f565b5f6110f4846128cf565b90505f805b600f5481101561116657828051906020012061112f600f838154811061112157611121614439565b905f5260205f200154610b3e565b805190602001200361115e57600f818154811061114e5761114e614439565b905f5260205f2001549150611166565b6001016110f9565b50805f036111865760405162461bcd60e51b81526004016109d7906146fe565b83611191308361089c565b10156111af5760405162461bcd60e51b81526004016109d790614754565b6110423087838760405180602001604052805f8152506126b0565b6001600160a01b03811633146111f35760405163334bd91960e11b815260040160405180910390fd5b610bd68282612c71565b5f611207816128c5565b61120f612cda565b50565b606081518351146112435781518351604051635b05999160e01b8152600481019290925260248201526044016109d7565b5f83516001600160401b0381111561125d5761125d613883565b604051908082528060200260200182016040528015611286578160200160208202803683370190505b5090505f5b84518110156112d4576020808202860101516112af9060208084028701015161089c565b8282815181106112c1576112c1614439565b602090810291909101015260010161128b565b509392505050565b604080518082019091525f8152606060208201525f828152600c6020526040812054900361131c5760405162461bcd60e51b81526004016109d79061479d565b600c5f8381526020019081526020015f206040518060400160405290815f82015481526020016001820180546113519061444d565b80601f016020809104026020016040519081016040528092919081815260200182805461137d9061444d565b80156113c85780601f1061139f576101008083540402835291602001916113c8565b820191905f5260205f20905b8154815290600101906020018083116113ab57829003601f168201915b5050505050815250509050919050565b600e546060905f906001600160401b038111156113f7576113f7613883565b60405190808252806020026020018201604052801561143c57816020015b604080518082019091525f8152606060208201528152602001906001900390816114155790505b5090505f5b600e5481101561154057600c5f600e838154811061146157611461614439565b905f5260205f20015481526020019081526020015f206040518060400160405290815f820154815260200160018201805461149b9061444d565b80601f01602080910402602001604051908101604052809291908181526020018280546114c79061444d565b80156115125780601f106114e957610100808354040283529160200191611512565b820191905f5260205f20905b8154815290600101906020018083116114f557829003601f168201915b50505050508152505082828151811061152d5761152d614439565b6020908102919091010152600101611441565b50919050565b6001600160a01b038316331480159061156657506115648333612683565b155b1561159a57335b60405163711bec9160e11b81526001600160a01b03918216600482015290841660248201526044016109d7565b610bd6838383612d2c565b5f6115af816128c5565b5f6115b9836128cf565b90505f5b600e54811015611706575f600e82815481106115db576115db614439565b905f5260205f20015490508280519060200120600c5f8381526020019081526020015f2060010160405161160f91906144ed565b6040518091039020036116fd575f818152600c602052604081208181559061163a60018301826137ca565b5050600e5461164b906001906147e7565b82101561169a57600e8054611662906001906147e7565b8154811061167257611672614439565b905f5260205f200154600e838154811061168e5761168e614439565b5f918252602090912001555b600e8054806116ab576116ab6147fa565b600190038181905f5260205f20015f90559055807ff2c458821d360029e0b4d57e1f001b05db9d486ef001529d2e931753d7cf32f4846040516116ee91906139a0565b60405180910390a25050505050565b506001016115bd565b5060405162461bcd60e51b815260206004820152603160248201527f53686172656431313535546f6b656e3a20436f6c6c656374696f6e2077697468604482015270081cdd59999a5e081b9bdd08199bdd5b99607a1b60648201526084016109d7565b5050565b5f516020614af45f395f51905f52611784816128c5565b610dd885858585612d6f565b5f61179b3033612683565b905090565b5f6117aa816128c5565b61120f612dca565b5f81815260076020526040812054606091106117e05760405162461bcd60e51b81526004016109d79061480e565b5f82815260116020908152604080832080548251818502810185019093528083529193909284015b82821015611869575f848152602090819020604080516080810182526004860290920180546001600160a01b039081168452600180830154909116848601526002820154928401929092526003015460608301529083529092019101611808565b505050509050919050565b5f918252602082815260408084206001600160a01b0393909316845291905290205460ff1690565b5f6118a6816128c5565b5f8251116118c65760405162461bcd60e51b81526004016109d790614850565b5f5b6010548110156119d9578280519060200120601082815481106118ed576118ed614439565b905f5260205f200160405161190291906144ed565b6040518091039020036119d1576010805461191f906001906147e7565b8154811061192f5761192f614439565b905f5260205f20016010828154811061194a5761194a614439565b905f5260205f2001908161195e9190614895565b506010805480611970576119706147fa565b600190038181905f5260205f20015f61198991906137ca565b9055336001600160a01b03167f0e29642266027cb54ae2f8dfff02a7147b64461546559736868a4a962ac7e4ca846040516119c491906139a0565b60405180910390a2505050565b6001016118c8565b5060405162461bcd60e51b815260206004820152601f60248201527f53686172656431313535546f6b656e3a2044617461206e6f7420666f756e640060448201526064016109d7565b6001600160a01b038216611a8a5760405162461bcd60e51b815260206004820152602960248201527f53686172656431313535546f6b656e3a20496e76616c6964206f70657261746f60448201526872206164647265737360b81b60648201526084016109d7565b611a95308383612e05565b816001600160a01b03167f8d3369e8ce7e1085710a510ca605f9599e0ae164e4c5a0c65b8106d6681f8efe82604051611ad2911515815260200190565b60405180910390a25050565b611769338383612e05565b6060335f805b600f54811015611b2d575f611b1184600f8481548110610c6957610c69614439565b1115611b255781611b218161460d565b9250505b600101611aef565b505f816001600160401b03811115611b4757611b47613883565b604051908082528060200260200182016040528015611b8057816020015b611b6d61378c565b815260200190600190039081611b655790505b5090505f805b600f54811015610dab575f600f8281548110611ba457611ba4614439565b905f5260205f20015490505f611bba878361089c565b90508015611c3b576040518060800160405280838152602001828152602001611be284610b3e565b81525f848152600d60209081526040918290208251808401909352805483526001015482820152909101528551869086908110611c2157611c21614439565b60200260200101819052508380611c379061460d565b9450505b5050600101611b86565b5f611064816128c5565b60605f805b600f54811015611c92575f611c7630600f8481548110610c6957610c69614439565b1115611c8a5781611c868161460d565b9250505b600101611c54565b505f816001600160401b03811115611cac57611cac613883565b604051908082528060200260200182016040528015611ce557816020015b611cd261378c565b815260200190600190039081611cca5790505b5090505f805b600f54811015611daa575f600f8281548110611d0957611d09614439565b905f5260205f20015490505f611d1f308361089c565b90508015611da0576040518060800160405280838152602001828152602001611d4784610b3e565b81525f848152600d60209081526040918290208251808401909352805483526001015482820152909101528551869086908110611d8657611d86614439565b60200260200101819052508380611d9c9061460d565b9450505b5050600101611ceb565b50909392505050565b600e8181548110611dc2575f80fd5b5f91825260209091200154905081565b5f818152600c602052604081205460609103611e005760405162461bcd60e51b81526004016109d79061479d565b5f828152600c602052604090206001018054611e1b9061444d565b80601f0160208091040260200160405190810160405280929190818152602001828054611e479061444d565b8015611e925780601f10611e6957610100808354040283529160200191611e92565b820191905f5260205f20905b815481529060010190602001808311611e7557829003601f168201915b50505050509050919050565b5f516020614af45f395f51905f52611eb5816128c5565b5f611ebf836128cf565b90505f611ecb876128cf565b90505f805b600e54811015611f69578380519060200120600c5f600e8481548110611ef857611ef8614439565b905f5260205f20015481526020019081526020015f20600101604051611f1e91906144ed565b604051809103902003611f6157600c5f600e8381548110611f4157611f41614439565b905f5260205f20015481526020019081526020015f205f01549150611f69565b600101611ed0565b50805f03611fd85760405162461bcd60e51b815260206004820152603660248201527f53686172656431313535546f6b656e3a20436f6c6c656374696f6e2077697468604482015275081cdd59999a5e08191bd95cc81b9bdd08195e1a5cdd60521b60648201526084016109d7565b611fe6600980546001019055565b5f611ff060095490565b905061200c30828a60405180602001604052805f815250612d6f565b6120168184612afe565b5f818152600d602090815260408083208a81556001808201879055600f805491820181559094527f8d1108e10bcb7c27dddfc02ed9d693a074039d026cf4ea4240b40f7d581ac80290930184905580518481529182018a905281018a905230907fafde70c98492a2ca81a3e5545bed44efeb0747a64b5e63a918df2e9d8e83ef359060600160405180910390a250505050505050505050565b600f546060905f906001600160401b038111156120ce576120ce613883565b60405190808252806020026020018201604052801561211257816020015b604080518082019091525f80825260208201528152602001906001900390816120ec5790505b5090505f5b600f5481101561154057600d5f600f838154811061213757612137614439565b905f5260205f20015481526020019081526020015f206040518060400160405290815f820154815260200160018201548152505082828151811061217d5761217d614439565b6020908102919091010152600101612117565b5f828152602081905260409020600101546121aa816128c5565b61106e8383612c71565b600f8181548110611dc2575f80fd5b60606010805480602002602001604051908101604052809291908181526020015f905b8282101561228e578382905f5260205f200180546122039061444d565b80601f016020809104026020016040519081016040528092919081815260200182805461222f9061444d565b801561227a5780601f106122515761010080835404028352916020019161227a565b820191905f5260205f20905b81548152906001019060200180831161225d57829003601f168201915b5050505050815260200190600101906121e6565b50505050905090565b6011602052815f5260405f2081815481106122b0575f80fd5b5f91825260209091206004909102018054600182015460028301546003909301546001600160a01b0392831695509116925084565b604080518082019091525f80825260208201525f82815260076020526040812054116123235760405162461bcd60e51b81526004016109d79061480e565b505f908152600d6020908152604091829020825180840190935280548352600101549082015290565b6001600160a01b0383166123725760405162461bcd60e51b81526004016109d790614625565b5f82116123915760405162461bcd60e51b81526004016109d79061466f565b6040516370a0823160e01b8152336004820152849083906001600160a01b038316906370a0823190602401602060405180830381865afa1580156123d7573d5f5f3e3d5ffd5b505050506040513d601f19601f820116820180604052508101906123fb91906146cc565b101561245d5760405162461bcd60e51b815260206004820152602b60248201527f53686172656431313535546f6b656e3a20496e73756666696369656e7420455260448201526a4332302062616c616e636560a81b60648201526084016109d7565b604051636eb1769f60e11b815233600482015230602482015283906001600160a01b0383169063dd62ed3e90604401602060405180830381865afa1580156124a7573d5f5f3e3d5ffd5b505050506040513d601f19601f820116820180604052508101906124cb91906146cc565b101561252f5760405162461bcd60e51b815260206004820152602d60248201527f53686172656431313535546f6b656e3a20496e73756666696369656e7420455260448201526c43323020616c6c6f77616e636560981b60648201526084016109d7565b6040516323b872dd60e01b81523360048201526001600160a01b038581166024830152604482018590528216906323b872dd906064016020604051808303815f875af1158015612581573d5f5f3e3d5ffd5b505050506040513d601f19601f820116820180604052508101906125a591906146e3565b505f6125b0836128cf565b90505f805b600f548110156126145782805190602001206125dd600f838154811061112157611121614439565b805190602001200361260c57600f81815481106125fc576125fc614439565b905f5260205f2001549150612614565b6001016125b5565b50805f036126345760405162461bcd60e51b81526004016109d7906146fe565b6001612640308361089c565b101561265e5760405162461bcd60e51b81526004016109d790614754565b61267a303383600160405180602001604052805f8152506126b0565b50505050505050565b6001600160a01b039182165f90815260036020908152604080832093909416825291909152205460ff1690565b336001600160a01b03861681148015906126d157506126cf8682612683565b155b156127025760405163711bec9160e11b81526001600160a01b038083166004830152871660248201526044016109d7565b6110428686868686612e99565b6001600160a01b038316331480159061272f575061272d8333612683565b155b1561273a573361156d565b610bd6838383612f1c565b5f61274f816128c5565b5f82511161276f5760405162461bcd60e51b81526004016109d790614850565b601080546001810182555f919091527f1b6847dc741a1b0cd08d278845f9d819d87b734759afb55fe2de5cb82a9ae672016127aa838261453c565b50336001600160a01b03167f4b33dafb50dac5530c30aca4e4069fd67a18220888b874b8519558d1769d49a183604051611ad291906139a0565b600c6020525f9081526040902080546001820180549192916128059061444d565b80601f01602080910402602001604051908101604052809291908181526020018280546128319061444d565b801561287c5780601f106128535761010080835404028352916020019161287c565b820191905f5260205f20905b81548152906001019060200180831161285f57829003601f168201915b5050505050905082565b5f6001600160e01b03198216636cdb3d1360e11b14806128b657506001600160e01b031982166303a24d0760e21b145b806108bf57506108bf82612f82565b61120f8133612fb6565b606060028251101580156129075750815f815181106128f0576128f0614439565b6020910101516001600160f81b031916600360fc1b145b801561293857508160018151811061292157612921614439565b6020910101516001600160f81b031916600f60fb1b145b15612a1e57815182905f9061294f906002906147e7565b6001600160401b0381111561296657612966613883565b6040519080825280601f01601f191660200182016040528015612990576020820181803683370190505b5090505f5b600283516129a391906147e7565b811015612a0157826129b6826002614961565b815181106129c6576129c6614439565b602001015160f81c60f81b8282815181106129e3576129e3614439565b60200101906001600160f81b03191690815f1a905350600101612995565b5080806020019051810190612a169190614974565b949350505050565b5090565b5f81815260066020526040812080546060929190612a3f9061444d565b80601f0160208091040260200160405190810160405280929190818152602001828054612a6b9061444d565b8015612ab65780601f10612a8d57610100808354040283529160200191612ab6565b820191905f5260205f20905b815481529060010190602001808311612a9957829003601f168201915b505050505090505f815111612ad357612ace83612fef565b612af7565b600581604051602001612ae79291906149e8565b6040516020818303038152906040525b9392505050565b5f828152600660205260409020612b15828261453c565b50817f6bb7ff708619ba0610cba295a58592e0451dee2622938c8755667688daf3529b612b4184610b3e565b604051611ad291906139a0565b6001600160a01b038416612b7757604051632bfa23e760e11b81525f60048201526024016109d7565b61106e5f85858585612ffe565b6001600160a01b038416612bad57604051632bfa23e760e11b81525f60048201526024016109d7565b6001600160a01b038516612bd557604051626a0d4560e21b81525f60048201526024016109d7565b610dd88585858585612ffe565b5f612bed8383611874565b612c6a575f838152602081815260408083206001600160a01b03861684529091529020805460ff19166001179055612c223390565b6001600160a01b0316826001600160a01b0316847f2f8788117e7eff1d82e926ec794901d17c78024a50270940304540a733656f0d60405160405180910390a45060016108bf565b505f6108bf565b5f612c7c8383611874565b15612c6a575f838152602081815260408083206001600160a01b0386168085529252808320805460ff1916905551339286917ff6391f5c32d9c69d2a47ea670b442974b53935d1edc7fd64eb21e047a839171b9190a45060016108bf565b612ce2613051565b6001805460ff191690557f5db9ee0a495bf2e6ff9c91a7834c1ba4fdd244a5e8aa4e537bd38aeae4b073aa335b6040516001600160a01b03909116815260200160405180910390a1565b6001600160a01b038316612d5457604051626a0d4560e21b81525f60048201526024016109d7565b610bd6835f848460405180602001604052805f815250612ffe565b6001600160a01b038416612d9857604051632bfa23e760e11b81525f60048201526024016109d7565b604080516001808252602082018690528183019081526060820185905260808201909252906110425f87848487612ffe565b612dd261309c565b6001805460ff1916811790557f62e78cea01bee320cd4e420270b5ea74000d11b0c9f74754ebdbfc544b05a25833612d0f565b6001600160a01b038216612e2d5760405162ced3e160e81b81525f60048201526024016109d7565b6001600160a01b038381165f81815260036020908152604080832094871680845294825291829020805460ff191686151590811790915591519182527f17307eab39ab6107e8899845ad3d59bd9653f200f220920489ca2b5937696c31910160405180910390a3505050565b6001600160a01b038416612ec257604051632bfa23e760e11b81525f60048201526024016109d7565b6001600160a01b038516612eea57604051626a0d4560e21b81525f60048201526024016109d7565b6040805160018082526020820186905281830190815260608201859052608082019092529061267a8787848487612ffe565b6001600160a01b038316612f4457604051626a0d4560e21b81525f60048201526024016109d7565b604080516001808252602082018590528183019081526060820184905260a082019092525f60808201818152919291610dd891879185908590612ffe565b5f6001600160e01b03198216637965db0b60e01b14806108bf57506301ffc9a760e01b6001600160e01b03198316146108bf565b612fc08282611874565b6117695760405163e2517d3f60e01b81526001600160a01b0382166004820152602481018390526044016109d7565b606060048054611e1b9061444d565b61300a858585856130e2565b6001600160a01b03841615610dd85782513390600103613043576020848101519084015161303c838989858589613288565b5050611042565b6110428187878787876133a9565b60015460ff1661309a5760405162461bcd60e51b815260206004820152601460248201527314185d5cd8589b194e881b9bdd081c185d5cd95960621b60448201526064016109d7565b565b60015460ff161561309a5760405162461bcd60e51b815260206004820152601060248201526f14185d5cd8589b194e881c185d5cd95960821b60448201526064016109d7565b6130ea61309c565b6130f684848484613490565b5f5b8251811015610dd8575f82828151811061311457613114614439565b602002602001015111156132805760115f84838151811061313757613137614439565b602002602001015181526020019081526020015f206040518060800160405280876001600160a01b03168152602001866001600160a01b0316815260200184848151811061318757613187614439565b602090810291909101810151825242918101919091528254600180820185555f94855293829020835160049092020180546001600160a01b03199081166001600160a01b03938416178255928401519481018054909316948216949094179091556040820151600284015560609091015160039092019190915583518582169187169085908490811061321c5761321c614439565b60200260200101517f3599acc8ea36acf6564c059f8a072f8e7844e39a6f1e8d3be1bcbf6dccecfb0085858151811061325757613257614439565b602002602001015142604051613277929190918252602082015260400190565b60405180910390a45b6001016130f8565b6001600160a01b0384163b156110425760405163f23a6e6160e01b81526001600160a01b0385169063f23a6e61906132cc9089908990889088908890600401614a0a565b6020604051808303815f875af1925050508015613306575060408051601f3d908101601f1916820190925261330391810190614a4e565b60015b61336d573d808015613333576040519150601f19603f3d011682016040523d82523d5f602084013e613338565b606091505b5080515f0361336557604051632bfa23e760e11b81526001600160a01b03861660048201526024016109d7565b805160208201fd5b6001600160e01b0319811663f23a6e6160e01b1461267a57604051632bfa23e760e11b81526001600160a01b03861660048201526024016109d7565b6001600160a01b0384163b156110425760405163bc197c8160e01b81526001600160a01b0385169063bc197c81906133ed9089908990889088908890600401614a69565b6020604051808303815f875af1925050508015613427575060408051601f3d908101601f1916820190925261342491810190614a4e565b60015b613454573d808015613333576040519150601f19603f3d011682016040523d82523d5f602084013e613338565b6001600160e01b0319811663bc197c8160e01b1461267a57604051632bfa23e760e11b81526001600160a01b03861660048201526024016109d7565b61349c84848484613577565b6001600160a01b038416613519575f805b83518110156135005760208181028481018201519086018201515f9081526007909252604082208054919283926134e5908490614961565b909155506134f590508184614961565b9250506001016134ad565b508060085f8282546135129190614961565b9091555050505b6001600160a01b03831661106e575f805b83518110156135665760208181028481018201519086018201515f9081526007909252604090912080548290039055919091019060010161352a565b506008805491909103905550505050565b80518251146135a65781518151604051635b05999160e01b8152600481019290925260248201526044016109d7565b335f5b83518110156136ae576020818102858101820151908501909101516001600160a01b0388161561365e575f8281526002602090815260408083206001600160a01b038c16845290915290205481811015613636576040516303dee4c560e01b81526001600160a01b038a1660048201526024810182905260448101839052606481018490526084016109d7565b5f8381526002602090815260408083206001600160a01b038d16845290915290209082900390555b6001600160a01b038716156136a4575f8281526002602090815260408083206001600160a01b038b1684529091528120805483929061369e908490614961565b90915550505b50506001016135a9565b50825160010361372e5760208301515f906020840151909150856001600160a01b0316876001600160a01b0316846001600160a01b03167fc3d58168c5ae7397731d063d5bbf3d657854427343f4c083240f7aacaa2d0f62858560405161371f929190918252602082015260400190565b60405180910390a45050610dd8565b836001600160a01b0316856001600160a01b0316826001600160a01b03167f4a39dc06d4c0dbc64b70af90fd698a233a518aa5d07e595d983b8c0526c8f7fb868660405161377d929190614ac6565b60405180910390a45050505050565b60405180608001604052805f81526020015f8152602001606081526020016137c560405180604001604052805f81526020015f81525090565b905290565b5080546137d69061444d565b5f825580601f106137e5575050565b601f0160209004905f5260205f209081019061120f91905b80821115612a1e575f81556001016137fd565b80356001600160a01b0381168114613826575f5ffd5b919050565b5f5f6040838503121561383c575f5ffd5b61384583613810565b946020939093013593505050565b6001600160e01b03198116811461120f575f5ffd5b5f60208284031215613878575f5ffd5b8135612af781613853565b634e487b7160e01b5f52604160045260245ffd5b604051601f8201601f191681016001600160401b03811182821017156138bf576138bf613883565b604052919050565b5f6001600160401b038211156138df576138df613883565b50601f01601f191660200190565b5f82601f8301126138fc575f5ffd5b8135602083015f61391461390f846138c7565b613897565b9050828152858383011115613927575f5ffd5b828260208301375f92810160200192909252509392505050565b5f60208284031215613951575f5ffd5b81356001600160401b03811115613966575f5ffd5b612a16848285016138ed565b5f81518084528060208401602086015e5f602082860101526020601f19601f83011685010191505092915050565b602081525f612af76020830184613972565b5f602082840312156139c2575f5ffd5b5035919050565b5f5f604083850312156139da575f5ffd5b8235915060208301356001600160401b038111156139f6575f5ffd5b613a02858286016138ed565b9150509250929050565b5f60208284031215613a1c575f5ffd5b612af782613810565b5f602082016020835280845180835260408501915060408160051b8601019250602086015f5b82811015613abb57603f1987860301845281518051865260208101516020870152604081015160a06040880152613a8560a0880182613972565b905060608201519150613aa5606088018380518252602090810151910152565b9550506020938401939190910190600101613a4b565b50929695505050505050565b5f6001600160401b03821115613adf57613adf613883565b5060051b60200190565b5f82601f830112613af8575f5ffd5b8135613b0661390f82613ac7565b8082825260208201915060208360051b860101925085831115613b27575f5ffd5b602085015b83811015613b44578035835260209283019201613b2c565b5095945050505050565b5f5f5f5f60808587031215613b61575f5ffd5b613b6a85613810565b935060208501356001600160401b03811115613b84575f5ffd5b613b9087828801613ae9565b93505060408501356001600160401b03811115613bab575f5ffd5b613bb787828801613ae9565b92505060608501356001600160401b03811115613bd2575f5ffd5b613bde878288016138ed565b91505092959194509250565b5f5f5f60608486031215613bfc575f5ffd5b613c0584613810565b9250613c1360208501613810565b929592945050506040919091013590565b5f5f5f5f5f60a08688031215613c38575f5ffd5b613c4186613810565b9450613c4f60208701613810565b935060408601356001600160401b03811115613c69575f5ffd5b613c7588828901613ae9565b93505060608601356001600160401b03811115613c90575f5ffd5b613c9c88828901613ae9565b92505060808601356001600160401b03811115613cb7575f5ffd5b613cc3888289016138ed565b9150509295509295909350565b5f5f60408385031215613ce1575f5ffd5b82359150613cf160208401613810565b90509250929050565b5f5f5f60608486031215613d0c575f5ffd5b613d1584613810565b925060208401356001600160401b03811115613d2f575f5ffd5b613d3b868287016138ed565b93969395505050506040919091013590565b5f5f60408385031215613d5e575f5ffd5b82356001600160401b03811115613d73575f5ffd5b8301601f81018513613d83575f5ffd5b8035613d9161390f82613ac7565b8082825260208201915060208360051b850101925087831115613db2575f5ffd5b6020840193505b82841015613ddb57613dca84613810565b825260209384019390910190613db9565b945050505060208301356001600160401b03811115613df8575f5ffd5b613a0285828601613ae9565b5f8151808452602084019350602083015f5b82811015613e34578151865260209586019590910190600101613e16565b5093949350505050565b602081525f612af76020830184613e04565b805182525f602082015160406020850152612a166040850182613972565b602081525f612af76020830184613e50565b5f602082016020835280845180835260408501915060408160051b8601019250602086015f5b82811015613abb57603f19878603018452613ec2858351613e50565b94506020938401939190910190600101613ea6565b5f5f5f60608486031215613ee9575f5ffd5b613ef284613810565b925060208401356001600160401b03811115613f0c575f5ffd5b613f1886828701613ae9565b92505060408401356001600160401b03811115613f33575f5ffd5b613f3f86828701613ae9565b9150509250925092565b5f5f5f5f60808587031215613f5c575f5ffd5b613f6585613810565b9350602085013592506040850135915060608501356001600160401b03811115613bd2575f5ffd5b602080825282518282018190525f918401906040840190835b81811015613ff557835180516001600160a01b03908116855260208083015190911681860152604080830151908601526060918201519185019190915290930192608090920191600101613fa6565b509095945050505050565b801515811461120f575f5ffd5b5f5f6040838503121561401e575f5ffd5b61402783613810565b9150602083013561403781614000565b809150509250929050565b5f5f83601f840112614052575f5ffd5b5081356001600160401b03811115614068575f5ffd5b6020830191508360208260051b8501011115614082575f5ffd5b9250929050565b5f5f83601f840112614099575f5ffd5b5081356001600160401b038111156140af575f5ffd5b602083019150836020828501011115614082575f5ffd5b5f5f5f5f5f5f5f5f60a0898b0312156140dd575f5ffd5b6140e689613810565b97506140f460208a01613810565b965060408901356001600160401b0381111561410e575f5ffd5b61411a8b828c01614042565b90975095505060608901356001600160401b03811115614138575f5ffd5b6141448b828c01614042565b90955093505060808901356001600160401b03811115614162575f5ffd5b61416e8b828c01614089565b999c989b5096995094979396929594505050565b5f5f5f5f60808587031215614195575f5ffd5b84356001600160401b038111156141aa575f5ffd5b6141b6878288016138ed565b945050602085013592506040850135915060608501356001600160401b03811115613bd2575f5ffd5b602080825282518282018190525f918401906040840190835b81811015613ff55761421583855180518252602090810151910152565b60209390930192604092909201916001016141f8565b5f602082016020835280845180835260408501915060408160051b8601019250602086015f5b82811015613abb57603f1987860301845261426d858351613972565b94506020938401939190910190600101614251565b5f5f60408385031215614293575f5ffd5b50508035926020909101359150565b8151815260208083015190820152604081016108bf565b5f5f5f5f608085870312156142cc575f5ffd5b6142d585613810565b93506142e360208601613810565b92506040850135915060608501356001600160401b03811115613bd2575f5ffd5b5f5f60408385031215614315575f5ffd5b61431e83613810565b9150613cf160208401613810565b5f5f5f5f5f5f60a08789031215614341575f5ffd5b61434a87613810565b955061435860208801613810565b9450604087013593506060870135925060808701356001600160401b03811115614380575f5ffd5b61438c89828a01614089565b979a9699509497509295939492505050565b5f5f5f5f5f60a086880312156143b2575f5ffd5b6143bb86613810565b94506143c960208701613810565b9350604086013592506060860135915060808601356001600160401b03811115613cb7575f5ffd5b5f5f5f60608486031215614403575f5ffd5b61440c84613810565b95602085013595506040909401359392505050565b828152604060208201525f612a166040830184613972565b634e487b7160e01b5f52603260045260245ffd5b600181811c9082168061446157607f821691505b60208210810361154057634e487b7160e01b5f52602260045260245ffd5b5f815461448b8161444d565b6001821680156144a257600181146144b7576144e4565b60ff19831686528115158202860193506144e4565b845f5260205f205f5b838110156144dc578154888201526001909101906020016144c0565b505081860193505b50505092915050565b5f612af7828461447f565b601f821115610bd657805f5260205f20601f840160051c8101602085101561451d5750805b601f840160051c820191505b81811015610dd8575f8155600101614529565b81516001600160401b0381111561455557614555613883565b61456981614563845461444d565b846144f8565b6020601f82116001811461459e575f83156145845750848201515b600184901b5f19600386901b1c198216175b855550610dd8565b5f84815260208120601f198516915b828110156145cd57878501518255602094850194600190920191016145ad565b50848210156145ea57868401515f19600387901b60f8161c191681555b50505050600190811b01905550565b634e487b7160e01b5f52601160045260245ffd5b5f6001820161461e5761461e6145f9565b5060010190565b6020808252602a908201527f53686172656431313535546f6b656e3a20496e76616c696420726563697069656040820152696e74206164647265737360b01b606082015260800190565b60208082526037908201527f53686172656431313535546f6b656e3a205472616e7366657220616d6f756e7460408201527f206d7573742062652067726561746572207468616e2030000000000000000000606082015260800190565b5f602082840312156146dc575f5ffd5b5051919050565b5f602082840312156146f3575f5ffd5b8151612af781614000565b60208082526036908201527f53686172656431313535546f6b656e3a204e46542077697468207370656369666040820152751a59590815549248191bd95cc81b9bdd08195e1a5cdd60521b606082015260800190565b60208082526029908201527f53686172656431313535546f6b656e3a20496e73756666696369656e74204e46604082015268542062616c616e636560b81b606082015260800190565b6020808252602a908201527f53686172656431313535546f6b656e3a20436f6c6c656374696f6e20646f6573604082015269081b9bdd08195e1a5cdd60b21b606082015260800190565b818103818111156108bf576108bf6145f9565b634e487b7160e01b5f52603160045260245ffd5b60208082526022908201527f53686172656431313535546f6b656e3a204e6f6e6578697374656e7420746f6b60408201526132b760f11b606082015260800190565b60208082526025908201527f53686172656431313535546f6b656e3a20446174612063616e6e6f7420626520604082015264656d70747960d81b606082015260800190565b8181036148a0575050565b6148aa825461444d565b6001600160401b038111156148c1576148c1613883565b6148cf81614563845461444d565b5f601f8211600181146148fe575f8315614584575081850154600184901b5f19600386901b1c19821617614596565b5f8581526020808220868352908220601f198616925b838110156149345782860154825560019586019590910190602001614914565b508583101561495157818501545f19600388901b60f8161c191681555b5050505050600190811b01905550565b808201808211156108bf576108bf6145f9565b5f60208284031215614984575f5ffd5b81516001600160401b03811115614999575f5ffd5b8201601f810184136149a9575f5ffd5b80516149b761390f826138c7565b8181528560208385010111156149cb575f5ffd5b8160208401602083015e5f91810160200191909152949350505050565b5f6149f3828561447f565b83518060208601835e5f9101908152949350505050565b6001600160a01b03868116825285166020820152604081018490526060810183905260a0608082018190525f90614a4390830184613972565b979650505050505050565b5f60208284031215614a5e575f5ffd5b8151612af781613853565b6001600160a01b0386811682528516602082015260a0604082018190525f90614a9490830186613e04565b8281036060840152614aa68186613e04565b90508281036080840152614aba8185613972565b98975050505050505050565b604081525f614ad86040830185613e04565b8281036020840152614aea8185613e04565b9594505050505056fe9f2df0fed2c77648de5860a4cc508cd0818c85b8b8a1ab4ceeef8d981c8956a6a264697066735822122084000ffa3c3be77d572ec2f081b8c123cf47f9d6f3a3276a1457bcfa2966087d64736f6c634300081e0033",
			"opcodes": "PUSH1 0xA0 PUSH1 0x40 MSTORE PUSH0 PUSH1 0x80 SWAP1 DUP2 MSTORE PUSH1 0x5 SWAP1 PUSH2 0x17 SWAP1 DUP3 PUSH2 0x2E3 JUMP JUMPDEST POP CALLVALUE DUP1 ISZERO PUSH2 0x23 JUMPI PUSH0 PUSH0 REVERT JUMPDEST POP PUSH1 0x40 DUP1 MLOAD PUSH1 0x20 DUP2 ADD SWAP1 SWAP2 MSTORE PUSH0 DUP2 MSTORE PUSH1 0x1 DUP1 SLOAD PUSH1 0xFF NOT AND SWAP1 SSTORE PUSH2 0x45 DUP2 PUSH2 0xFA JUMP JUMPDEST POP PUSH2 0x50 PUSH0 CALLER PUSH2 0x10A JUMP JUMPDEST POP PUSH2 0x7B PUSH32 0x9F2DF0FED2C77648DE5860A4CC508CD0818C85B8B8A1AB4CEEEF8D981C8956A6 CALLER PUSH2 0x10A JUMP JUMPDEST POP PUSH2 0xA6 PUSH32 0xE926D122B799DCBE5C2ECCDF60AE0AEFBB1A4BC75A7848BB07BEFECF8C775F5C CALLER PUSH2 0x10A JUMP JUMPDEST POP PUSH1 0x40 DUP1 MLOAD DUP1 DUP3 ADD SWAP1 SWAP2 MSTORE PUSH1 0x13 DUP2 MSTORE PUSH32 0x436172626F6E2043726564697420417373657400000000000000000000000000 PUSH1 0x20 DUP3 ADD MSTORE PUSH1 0xB SWAP1 PUSH2 0xE8 SWAP1 DUP3 PUSH2 0x2E3 JUMP JUMPDEST POP PUSH2 0xF5 ADDRESS DUP1 PUSH1 0x1 PUSH2 0x1B3 JUMP JUMPDEST PUSH2 0x39D JUMP JUMPDEST PUSH1 0x4 PUSH2 0x106 DUP3 DUP3 PUSH2 0x2E3 JUMP JUMPDEST POP POP JUMP JUMPDEST PUSH0 DUP3 DUP2 MSTORE PUSH1 0x20 DUP2 DUP2 MSTORE PUSH1 0x40 DUP1 DUP4 KECCAK256 PUSH1 0x1 PUSH1 0x1 PUSH1 0xA0 SHL SUB DUP6 AND DUP5 MSTORE SWAP1 SWAP2 MSTORE DUP2 KECCAK256 SLOAD PUSH1 0xFF AND PUSH2 0x1AA JUMPI PUSH0 DUP4 DUP2 MSTORE PUSH1 0x20 DUP2 DUP2 MSTORE PUSH1 0x40 DUP1 DUP4 KECCAK256 PUSH1 0x1 PUSH1 0x1 PUSH1 0xA0 SHL SUB DUP7 AND DUP5 MSTORE SWAP1 SWAP2 MSTORE SWAP1 KECCAK256 DUP1 SLOAD PUSH1 0xFF NOT AND PUSH1 0x1 OR SWAP1 SSTORE PUSH2 0x162 CALLER SWAP1 JUMP JUMPDEST PUSH1 0x1 PUSH1 0x1 PUSH1 0xA0 SHL SUB AND DUP3 PUSH1 0x1 PUSH1 0x1 PUSH1 0xA0 SHL SUB AND DUP5 PUSH32 0x2F8788117E7EFF1D82E926EC794901D17C78024A50270940304540A733656F0D PUSH1 0x40 MLOAD PUSH1 0x40 MLOAD DUP1 SWAP2 SUB SWAP1 LOG4 POP PUSH1 0x1 PUSH2 0x1AD JUMP JUMPDEST POP PUSH0 JUMPDEST SWAP3 SWAP2 POP POP JUMP JUMPDEST PUSH1 0x1 PUSH1 0x1 PUSH1 0xA0 SHL SUB DUP3 AND PUSH2 0x1DF JUMPI PUSH1 0x40 MLOAD PUSH3 0xCED3E1 PUSH1 0xE8 SHL DUP2 MSTORE PUSH0 PUSH1 0x4 DUP3 ADD MSTORE PUSH1 0x24 ADD PUSH1 0x40 MLOAD DUP1 SWAP2 SUB SWAP1 REVERT JUMPDEST PUSH1 0x1 PUSH1 0x1 PUSH1 0xA0 SHL SUB DUP4 DUP2 AND PUSH0 DUP2 DUP2 MSTORE PUSH1 0x3 PUSH1 0x20 SWAP1 DUP2 MSTORE PUSH1 0x40 DUP1 DUP4 KECCAK256 SWAP5 DUP8 AND DUP1 DUP5 MSTORE SWAP5 DUP3 MSTORE SWAP2 DUP3 SWAP1 KECCAK256 DUP1 SLOAD PUSH1 0xFF NOT AND DUP7 ISZERO ISZERO SWAP1 DUP2 OR SWAP1 SWAP2 SSTORE SWAP2 MLOAD SWAP2 DUP3 MSTORE PUSH32 0x17307EAB39AB6107E8899845AD3D59BD9653F200F220920489CA2B5937696C31 SWAP2 ADD PUSH1 0x40 MLOAD DUP1 SWAP2 SUB SWAP1 LOG3 POP POP POP JUMP JUMPDEST PUSH4 0x4E487B71 PUSH1 0xE0 SHL PUSH0 MSTORE PUSH1 0x41 PUSH1 0x4 MSTORE PUSH1 0x24 PUSH0 REVERT JUMPDEST PUSH1 0x1 DUP2 DUP2 SHR SWAP1 DUP3 AND DUP1 PUSH2 0x273 JUMPI PUSH1 0x7F DUP3 AND SWAP2 POP JUMPDEST PUSH1 0x20 DUP3 LT DUP2 SUB PUSH2 0x291 JUMPI PUSH4 0x4E487B71 PUSH1 0xE0 SHL PUSH0 MSTORE PUSH1 0x22 PUSH1 0x4 MSTORE PUSH1 0x24 PUSH0 REVERT JUMPDEST POP SWAP2 SWAP1 POP JUMP JUMPDEST PUSH1 0x1F DUP3 GT ISZERO PUSH2 0x2DE JUMPI DUP1 PUSH0 MSTORE PUSH1 0x20 PUSH0 KECCAK256 PUSH1 0x1F DUP5 ADD PUSH1 0x5 SHR DUP2 ADD PUSH1 0x20 DUP6 LT ISZERO PUSH2 0x2BC JUMPI POP DUP1 JUMPDEST PUSH1 0x1F DUP5 ADD PUSH1 0x5 SHR DUP3 ADD SWAP2 POP JUMPDEST DUP2 DUP2 LT ISZERO PUSH2 0x2DB JUMPI PUSH0 DUP2 SSTORE PUSH1 0x1 ADD PUSH2 0x2C8 JUMP JUMPDEST POP POP JUMPDEST POP POP POP JUMP JUMPDEST DUP2 MLOAD PUSH1 0x1 PUSH1 0x1 PUSH1 0x40 SHL SUB DUP2 GT ISZERO PUSH2 0x2FC JUMPI PUSH2 0x2FC PUSH2 0x24B JUMP JUMPDEST PUSH2 0x310 DUP2 PUSH2 0x30A DUP5 SLOAD PUSH2 0x25F JUMP JUMPDEST DUP5 PUSH2 0x297 JUMP JUMPDEST PUSH1 0x20 PUSH1 0x1F DUP3 GT PUSH1 0x1 DUP2 EQ PUSH2 0x342 JUMPI PUSH0 DUP4 ISZERO PUSH2 0x32B JUMPI POP DUP5 DUP3 ADD MLOAD JUMPDEST PUSH0 NOT PUSH1 0x3 DUP6 SWAP1 SHL SHR NOT AND PUSH1 0x1 DUP5 SWAP1 SHL OR DUP5 SSTORE PUSH2 0x2DB JUMP JUMPDEST PUSH0 DUP5 DUP2 MSTORE PUSH1 0x20 DUP2 KECCAK256 PUSH1 0x1F NOT DUP6 AND SWAP2 JUMPDEST DUP3 DUP2 LT ISZERO PUSH2 0x371 JUMPI DUP8 DUP6 ADD MLOAD DUP3 SSTORE PUSH1 0x20 SWAP5 DUP6 ADD SWAP5 PUSH1 0x1 SWAP1 SWAP3 ADD SWAP2 ADD PUSH2 0x351 JUMP JUMPDEST POP DUP5 DUP3 LT ISZERO PUSH2 0x38E JUMPI DUP7 DUP5 ADD MLOAD PUSH0 NOT PUSH1 0x3 DUP8 SWAP1 SHL PUSH1 0xF8 AND SHR NOT AND DUP2 SSTORE JUMPDEST POP POP POP POP PUSH1 0x1 SWAP1 DUP2 SHL ADD SWAP1 SSTORE POP JUMP JUMPDEST PUSH2 0x4B49 DUP1 PUSH2 0x3AA PUSH0 CODECOPY PUSH0 RETURN INVALID PUSH1 0x80 PUSH1 0x40 MSTORE CALLVALUE DUP1 ISZERO PUSH2 0xF JUMPI PUSH0 PUSH0 REVERT JUMPDEST POP PUSH1 0x4 CALLDATASIZE LT PUSH2 0x371 JUMPI PUSH0 CALLDATALOAD PUSH1 0xE0 SHR DUP1 PUSH4 0x8BB27D02 GT PUSH2 0x1D4 JUMPI DUP1 PUSH4 0xC71D0EA3 GT PUSH2 0x109 JUMPI DUP1 PUSH4 0xDF6F5B20 GT PUSH2 0xA9 JUMPI DUP1 PUSH4 0xF242432A GT PUSH2 0x79 JUMPI DUP1 PUSH4 0xF242432A EQ PUSH2 0x842 JUMPI DUP1 PUSH4 0xF5298ACA EQ PUSH2 0x855 JUMPI DUP1 PUSH4 0xFB218F5F EQ PUSH2 0x868 JUMPI DUP1 PUSH4 0xFDBDA0EC EQ PUSH2 0x87B JUMPI PUSH0 PUSH0 REVERT JUMPDEST DUP1 PUSH4 0xDF6F5B20 EQ PUSH2 0x7DC JUMPI DUP1 PUSH4 0xE22C4515 EQ PUSH2 0x7FC JUMPI DUP1 PUSH4 0xE985E9C5 EQ PUSH2 0x80F JUMPI DUP1 PUSH4 0xF23A6E61 EQ PUSH2 0x822 JUMPI PUSH0 PUSH0 REVERT JUMPDEST DUP1 PUSH4 0xD547741F GT PUSH2 0xE4 JUMPI DUP1 PUSH4 0xD547741F EQ PUSH2 0x763 JUMPI DUP1 PUSH4 0xD58778D6 EQ PUSH2 0x776 JUMPI DUP1 PUSH4 0xDD5B3A65 EQ PUSH2 0x789 JUMPI DUP1 PUSH4 0xDEDAFF54 EQ PUSH2 0x79E JUMPI PUSH0 PUSH0 REVERT JUMPDEST DUP1 PUSH4 0xC71D0EA3 EQ PUSH2 0x713 JUMPI DUP1 PUSH4 0xCAFF99CE EQ PUSH2 0x728 JUMPI DUP1 PUSH4 0xD5391393 EQ PUSH2 0x74F JUMPI PUSH0 PUSH0 REVERT JUMPDEST DUP1 PUSH4 0xA5E2361D GT PUSH2 0x174 JUMPI DUP1 PUSH4 0xB21FA654 GT PUSH2 0x14F JUMPI DUP1 PUSH4 0xB21FA654 EQ PUSH2 0x693 JUMPI DUP1 PUSH4 0xBC197C81 EQ PUSH2 0x6A6 JUMPI DUP1 PUSH4 0xBD85B039 EQ PUSH2 0x6E1 JUMPI DUP1 PUSH4 0xBE7CF750 EQ PUSH2 0x700 JUMPI PUSH0 PUSH0 REVERT JUMPDEST DUP1 PUSH4 0xA5E2361D EQ PUSH2 0x665 JUMPI DUP1 PUSH4 0xA7098728 EQ PUSH2 0x678 JUMPI DUP1 PUSH4 0xA9B566A3 EQ PUSH2 0x680 JUMPI PUSH0 PUSH0 REVERT JUMPDEST DUP1 PUSH4 0x9DD6A449 GT PUSH2 0x1AF JUMPI DUP1 PUSH4 0x9DD6A449 EQ PUSH2 0x630 JUMPI DUP1 PUSH4 0xA217FDDF EQ PUSH2 0x643 JUMPI DUP1 PUSH4 0xA22CB465 EQ PUSH2 0x64A JUMPI DUP1 PUSH4 0xA3E1FF32 EQ PUSH2 0x65D JUMPI PUSH0 PUSH0 REVERT JUMPDEST DUP1 PUSH4 0x8BB27D02 EQ PUSH2 0x5EA JUMPI DUP1 PUSH4 0x91D14854 EQ PUSH2 0x60A JUMPI DUP1 PUSH4 0x9CDF0F46 EQ PUSH2 0x61D JUMPI PUSH0 PUSH0 REVERT JUMPDEST DUP1 PUSH4 0x30377174 GT PUSH2 0x2AA JUMPI DUP1 PUSH4 0x5C975ABB GT PUSH2 0x24A JUMPI DUP1 PUSH4 0x70164F0E GT PUSH2 0x225 JUMPI DUP1 PUSH4 0x70164F0E EQ PUSH2 0x5B4 JUMPI DUP1 PUSH4 0x731133E9 EQ PUSH2 0x5C7 JUMPI DUP1 PUSH4 0x77E1B4CA EQ PUSH2 0x5DA JUMPI DUP1 PUSH4 0x8456CB59 EQ PUSH2 0x5E2 JUMPI PUSH0 PUSH0 REVERT JUMPDEST DUP1 PUSH4 0x5C975ABB EQ PUSH2 0x581 JUMPI DUP1 PUSH4 0x6804A958 EQ PUSH2 0x58C JUMPI DUP1 PUSH4 0x6B20C454 EQ PUSH2 0x5A1 JUMPI PUSH0 PUSH0 REVERT JUMPDEST DUP1 PUSH4 0x3F4BA83A GT PUSH2 0x285 JUMPI DUP1 PUSH4 0x3F4BA83A EQ PUSH2 0x518 JUMPI DUP1 PUSH4 0x4E1273F4 EQ PUSH2 0x520 JUMPI DUP1 PUSH4 0x4F558E79 EQ PUSH2 0x540 JUMPI DUP1 PUSH4 0x5A1F3C28 EQ PUSH2 0x561 JUMPI PUSH0 PUSH0 REVERT JUMPDEST DUP1 PUSH4 0x30377174 EQ PUSH2 0x4DF JUMPI DUP1 PUSH4 0x3038BFDF EQ PUSH2 0x4F2 JUMPI DUP1 PUSH4 0x36568ABE EQ PUSH2 0x505 JUMPI PUSH0 PUSH0 REVERT JUMPDEST DUP1 PUSH4 0x1F43CF85 GT PUSH2 0x315 JUMPI DUP1 PUSH4 0x248A9CA3 GT PUSH2 0x2F0 JUMPI DUP1 PUSH4 0x248A9CA3 EQ PUSH2 0x45C JUMPI DUP1 PUSH4 0x258672AA EQ PUSH2 0x47E JUMPI DUP1 PUSH4 0x2EB2C2D6 EQ PUSH2 0x4B9 JUMPI DUP1 PUSH4 0x2F2FF15D EQ PUSH2 0x4CC JUMPI PUSH0 PUSH0 REVERT JUMPDEST DUP1 PUSH4 0x1F43CF85 EQ PUSH2 0x416 JUMPI DUP1 PUSH4 0x1F7FDFFA EQ PUSH2 0x436 JUMPI DUP1 PUSH4 0x2456545A EQ PUSH2 0x449 JUMPI PUSH0 PUSH0 REVERT JUMPDEST DUP1 PUSH4 0x6FDDE03 GT PUSH2 0x350 JUMPI DUP1 PUSH4 0x6FDDE03 EQ PUSH2 0x3D3 JUMPI DUP1 PUSH4 0xE89341C EQ PUSH2 0x3E8 JUMPI DUP1 PUSH4 0x162094C4 EQ PUSH2 0x3FB JUMPI DUP1 PUSH4 0x18160DDD EQ PUSH2 0x40E JUMPI PUSH0 PUSH0 REVERT JUMPDEST DUP1 PUSH3 0xFDD58E EQ PUSH2 0x375 JUMPI DUP1 PUSH4 0x1FFC9A7 EQ PUSH2 0x39B JUMPI DUP1 PUSH4 0x59DFE13 EQ PUSH2 0x3BE JUMPI JUMPDEST PUSH0 PUSH0 REVERT JUMPDEST PUSH2 0x388 PUSH2 0x383 CALLDATASIZE PUSH1 0x4 PUSH2 0x382B JUMP JUMPDEST PUSH2 0x89C JUMP JUMPDEST PUSH1 0x40 MLOAD SWAP1 DUP2 MSTORE PUSH1 0x20 ADD JUMPDEST PUSH1 0x40 MLOAD DUP1 SWAP2 SUB SWAP1 RETURN JUMPDEST PUSH2 0x3AE PUSH2 0x3A9 CALLDATASIZE PUSH1 0x4 PUSH2 0x3868 JUMP JUMPDEST PUSH2 0x8C5 JUMP JUMPDEST PUSH1 0x40 MLOAD SWAP1 ISZERO ISZERO DUP2 MSTORE PUSH1 0x20 ADD PUSH2 0x392 JUMP JUMPDEST PUSH2 0x3D1 PUSH2 0x3CC CALLDATASIZE PUSH1 0x4 PUSH2 0x3941 JUMP JUMPDEST PUSH2 0x8E9 JUMP JUMPDEST STOP JUMPDEST PUSH2 0x3DB PUSH2 0xAB2 JUMP JUMPDEST PUSH1 0x40 MLOAD PUSH2 0x392 SWAP2 SWAP1 PUSH2 0x39A0 JUMP JUMPDEST PUSH2 0x3DB PUSH2 0x3F6 CALLDATASIZE PUSH1 0x4 PUSH2 0x39B2 JUMP JUMPDEST PUSH2 0xB3E JUMP JUMPDEST PUSH2 0x3D1 PUSH2 0x409 CALLDATASIZE PUSH1 0x4 PUSH2 0x39C9 JUMP JUMPDEST PUSH2 0xB49 JUMP JUMPDEST PUSH1 0x8 SLOAD PUSH2 0x388 JUMP JUMPDEST PUSH2 0x429 PUSH2 0x424 CALLDATASIZE PUSH1 0x4 PUSH2 0x3A0C JUMP JUMPDEST PUSH2 0xBDB JUMP JUMPDEST PUSH1 0x40 MLOAD PUSH2 0x392 SWAP2 SWAP1 PUSH2 0x3A25 JUMP JUMPDEST PUSH2 0x3D1 PUSH2 0x444 CALLDATASIZE PUSH1 0x4 PUSH2 0x3B4E JUMP JUMPDEST PUSH2 0xDB5 JUMP JUMPDEST PUSH2 0x3D1 PUSH2 0x457 CALLDATASIZE PUSH1 0x4 PUSH2 0x3BEA JUMP JUMPDEST PUSH2 0xDDF JUMP JUMPDEST PUSH2 0x388 PUSH2 0x46A CALLDATASIZE PUSH1 0x4 PUSH2 0x39B2 JUMP JUMPDEST PUSH0 SWAP1 DUP2 MSTORE PUSH1 0x20 DUP2 SWAP1 MSTORE PUSH1 0x40 SWAP1 KECCAK256 PUSH1 0x1 ADD SLOAD SWAP1 JUMP JUMPDEST PUSH2 0x4A4 PUSH2 0x48C CALLDATASIZE PUSH1 0x4 PUSH2 0x39B2 JUMP JUMPDEST PUSH1 0xD PUSH1 0x20 MSTORE PUSH0 SWAP1 DUP2 MSTORE PUSH1 0x40 SWAP1 KECCAK256 DUP1 SLOAD PUSH1 0x1 SWAP1 SWAP2 ADD SLOAD DUP3 JUMP JUMPDEST PUSH1 0x40 DUP1 MLOAD SWAP3 DUP4 MSTORE PUSH1 0x20 DUP4 ADD SWAP2 SWAP1 SWAP2 MSTORE ADD PUSH2 0x392 JUMP JUMPDEST PUSH2 0x3D1 PUSH2 0x4C7 CALLDATASIZE PUSH1 0x4 PUSH2 0x3C24 JUMP JUMPDEST PUSH2 0xFE3 JUMP JUMPDEST PUSH2 0x3D1 PUSH2 0x4DA CALLDATASIZE PUSH1 0x4 PUSH2 0x3CD0 JUMP JUMPDEST PUSH2 0x104A JUMP JUMPDEST PUSH2 0x3DB PUSH2 0x4ED CALLDATASIZE PUSH1 0x4 PUSH2 0x39B2 JUMP JUMPDEST PUSH2 0x1074 JUMP JUMPDEST PUSH2 0x3D1 PUSH2 0x500 CALLDATASIZE PUSH1 0x4 PUSH2 0x3CFA JUMP JUMPDEST PUSH2 0x109B JUMP JUMPDEST PUSH2 0x3D1 PUSH2 0x513 CALLDATASIZE PUSH1 0x4 PUSH2 0x3CD0 JUMP JUMPDEST PUSH2 0x11CA JUMP JUMPDEST PUSH2 0x3D1 PUSH2 0x11FD JUMP JUMPDEST PUSH2 0x533 PUSH2 0x52E CALLDATASIZE PUSH1 0x4 PUSH2 0x3D4D JUMP JUMPDEST PUSH2 0x1212 JUMP JUMPDEST PUSH1 0x40 MLOAD PUSH2 0x392 SWAP2 SWAP1 PUSH2 0x3E3E JUMP JUMPDEST PUSH2 0x3AE PUSH2 0x54E CALLDATASIZE PUSH1 0x4 PUSH2 0x39B2 JUMP JUMPDEST PUSH0 SWAP1 DUP2 MSTORE PUSH1 0x7 PUSH1 0x20 MSTORE PUSH1 0x40 SWAP1 KECCAK256 SLOAD ISZERO ISZERO SWAP1 JUMP JUMPDEST PUSH2 0x574 PUSH2 0x56F CALLDATASIZE PUSH1 0x4 PUSH2 0x39B2 JUMP JUMPDEST PUSH2 0x12DC JUMP JUMPDEST PUSH1 0x40 MLOAD PUSH2 0x392 SWAP2 SWAP1 PUSH2 0x3E6E JUMP JUMPDEST PUSH1 0x1 SLOAD PUSH1 0xFF AND PUSH2 0x3AE JUMP JUMPDEST PUSH2 0x594 PUSH2 0x13D8 JUMP JUMPDEST PUSH1 0x40 MLOAD PUSH2 0x392 SWAP2 SWAP1 PUSH2 0x3E80 JUMP JUMPDEST PUSH2 0x3D1 PUSH2 0x5AF CALLDATASIZE PUSH1 0x4 PUSH2 0x3ED7 JUMP JUMPDEST PUSH2 0x1546 JUMP JUMPDEST PUSH2 0x3D1 PUSH2 0x5C2 CALLDATASIZE PUSH1 0x4 PUSH2 0x3941 JUMP JUMPDEST PUSH2 0x15A5 JUMP JUMPDEST PUSH2 0x3D1 PUSH2 0x5D5 CALLDATASIZE PUSH1 0x4 PUSH2 0x3F49 JUMP JUMPDEST PUSH2 0x176D JUMP JUMPDEST PUSH2 0x3AE PUSH2 0x1790 JUMP JUMPDEST PUSH2 0x3D1 PUSH2 0x17A0 JUMP JUMPDEST PUSH2 0x5FD PUSH2 0x5F8 CALLDATASIZE PUSH1 0x4 PUSH2 0x39B2 JUMP JUMPDEST PUSH2 0x17B2 JUMP JUMPDEST PUSH1 0x40 MLOAD PUSH2 0x392 SWAP2 SWAP1 PUSH2 0x3F8D JUMP JUMPDEST PUSH2 0x3AE PUSH2 0x618 CALLDATASIZE PUSH1 0x4 PUSH2 0x3CD0 JUMP JUMPDEST PUSH2 0x1874 JUMP JUMPDEST PUSH2 0x3D1 PUSH2 0x62B CALLDATASIZE PUSH1 0x4 PUSH2 0x3941 JUMP JUMPDEST PUSH2 0x189C JUMP JUMPDEST PUSH2 0x3D1 PUSH2 0x63E CALLDATASIZE PUSH1 0x4 PUSH2 0x400D JUMP JUMPDEST PUSH2 0x1A22 JUMP JUMPDEST PUSH2 0x388 PUSH0 DUP2 JUMP JUMPDEST PUSH2 0x3D1 PUSH2 0x658 CALLDATASIZE PUSH1 0x4 PUSH2 0x400D JUMP JUMPDEST PUSH2 0x1ADE JUMP JUMPDEST PUSH2 0x429 PUSH2 0x1AE9 JUMP JUMPDEST PUSH2 0x3D1 PUSH2 0x673 CALLDATASIZE PUSH1 0x4 PUSH2 0x3CD0 JUMP JUMPDEST PUSH2 0x1C45 JUMP JUMPDEST PUSH2 0x429 PUSH2 0x1C4F JUMP JUMPDEST PUSH2 0x388 PUSH2 0x68E CALLDATASIZE PUSH1 0x4 PUSH2 0x39B2 JUMP JUMPDEST PUSH2 0x1DB3 JUMP JUMPDEST PUSH2 0x3DB PUSH2 0x6A1 CALLDATASIZE PUSH1 0x4 PUSH2 0x39B2 JUMP JUMPDEST PUSH2 0x1DD2 JUMP JUMPDEST PUSH2 0x6C8 PUSH2 0x6B4 CALLDATASIZE PUSH1 0x4 PUSH2 0x40C6 JUMP JUMPDEST PUSH4 0xBC197C81 PUSH1 0xE0 SHL SWAP9 SWAP8 POP POP POP POP POP POP POP POP JUMP JUMPDEST PUSH1 0x40 MLOAD PUSH1 0x1 PUSH1 0x1 PUSH1 0xE0 SHL SUB NOT SWAP1 SWAP2 AND DUP2 MSTORE PUSH1 0x20 ADD PUSH2 0x392 JUMP JUMPDEST PUSH2 0x388 PUSH2 0x6EF CALLDATASIZE PUSH1 0x4 PUSH2 0x39B2 JUMP JUMPDEST PUSH0 SWAP1 DUP2 MSTORE PUSH1 0x7 PUSH1 0x20 MSTORE PUSH1 0x40 SWAP1 KECCAK256 SLOAD SWAP1 JUMP JUMPDEST PUSH2 0x3D1 PUSH2 0x70E CALLDATASIZE PUSH1 0x4 PUSH2 0x4182 JUMP JUMPDEST PUSH2 0x1E9E JUMP JUMPDEST PUSH2 0x71B PUSH2 0x20AF JUMP JUMPDEST PUSH1 0x40 MLOAD PUSH2 0x392 SWAP2 SWAP1 PUSH2 0x41DF JUMP JUMPDEST PUSH2 0x388 PUSH32 0xE926D122B799DCBE5C2ECCDF60AE0AEFBB1A4BC75A7848BB07BEFECF8C775F5C DUP2 JUMP JUMPDEST PUSH2 0x388 PUSH0 MLOAD PUSH1 0x20 PUSH2 0x4AF4 PUSH0 CODECOPY PUSH0 MLOAD SWAP1 PUSH0 MSTORE DUP2 JUMP JUMPDEST PUSH2 0x3D1 PUSH2 0x771 CALLDATASIZE PUSH1 0x4 PUSH2 0x3CD0 JUMP JUMPDEST PUSH2 0x2190 JUMP JUMPDEST PUSH2 0x388 PUSH2 0x784 CALLDATASIZE PUSH1 0x4 PUSH2 0x39B2 JUMP JUMPDEST PUSH2 0x21B4 JUMP JUMPDEST PUSH2 0x791 PUSH2 0x21C3 JUMP JUMPDEST PUSH1 0x40 MLOAD PUSH2 0x392 SWAP2 SWAP1 PUSH2 0x422B JUMP JUMPDEST PUSH2 0x7B1 PUSH2 0x7AC CALLDATASIZE PUSH1 0x4 PUSH2 0x4282 JUMP JUMPDEST PUSH2 0x2297 JUMP JUMPDEST PUSH1 0x40 DUP1 MLOAD PUSH1 0x1 PUSH1 0x1 PUSH1 0xA0 SHL SUB SWAP6 DUP7 AND DUP2 MSTORE SWAP5 SWAP1 SWAP4 AND PUSH1 0x20 DUP6 ADD MSTORE SWAP2 DUP4 ADD MSTORE PUSH1 0x60 DUP3 ADD MSTORE PUSH1 0x80 ADD PUSH2 0x392 JUMP JUMPDEST PUSH2 0x7EF PUSH2 0x7EA CALLDATASIZE PUSH1 0x4 PUSH2 0x39B2 JUMP JUMPDEST PUSH2 0x22E5 JUMP JUMPDEST PUSH1 0x40 MLOAD PUSH2 0x392 SWAP2 SWAP1 PUSH2 0x42A2 JUMP JUMPDEST PUSH2 0x3D1 PUSH2 0x80A CALLDATASIZE PUSH1 0x4 PUSH2 0x42B9 JUMP JUMPDEST PUSH2 0x234C JUMP JUMPDEST PUSH2 0x3AE PUSH2 0x81D CALLDATASIZE PUSH1 0x4 PUSH2 0x4304 JUMP JUMPDEST PUSH2 0x2683 JUMP JUMPDEST PUSH2 0x6C8 PUSH2 0x830 CALLDATASIZE PUSH1 0x4 PUSH2 0x432C JUMP JUMPDEST PUSH4 0xF23A6E61 PUSH1 0xE0 SHL SWAP7 SWAP6 POP POP POP POP POP POP JUMP JUMPDEST PUSH2 0x3D1 PUSH2 0x850 CALLDATASIZE PUSH1 0x4 PUSH2 0x439E JUMP JUMPDEST PUSH2 0x26B0 JUMP JUMPDEST PUSH2 0x3D1 PUSH2 0x863 CALLDATASIZE PUSH1 0x4 PUSH2 0x43F1 JUMP JUMPDEST PUSH2 0x270F JUMP JUMPDEST PUSH2 0x3D1 PUSH2 0x876 CALLDATASIZE PUSH1 0x4 PUSH2 0x3941 JUMP JUMPDEST PUSH2 0x2745 JUMP JUMPDEST PUSH2 0x88E PUSH2 0x889 CALLDATASIZE PUSH1 0x4 PUSH2 0x39B2 JUMP JUMPDEST PUSH2 0x27E4 JUMP JUMPDEST PUSH1 0x40 MLOAD PUSH2 0x392 SWAP3 SWAP2 SWAP1 PUSH2 0x4421 JUMP JUMPDEST PUSH0 DUP2 DUP2 MSTORE PUSH1 0x2 PUSH1 0x20 SWAP1 DUP2 MSTORE PUSH1 0x40 DUP1 DUP4 KECCAK256 PUSH1 0x1 PUSH1 0x1 PUSH1 0xA0 SHL SUB DUP7 AND DUP5 MSTORE SWAP1 SWAP2 MSTORE SWAP1 KECCAK256 SLOAD JUMPDEST SWAP3 SWAP2 POP POP JUMP JUMPDEST PUSH0 PUSH1 0x1 PUSH1 0x1 PUSH1 0xE0 SHL SUB NOT DUP3 AND PUSH4 0x2711897 PUSH1 0xE5 SHL EQ DUP1 PUSH2 0x8BF JUMPI POP PUSH2 0x8BF DUP3 PUSH2 0x2886 JUMP JUMPDEST PUSH32 0xE926D122B799DCBE5C2ECCDF60AE0AEFBB1A4BC75A7848BB07BEFECF8C775F5C PUSH2 0x913 DUP2 PUSH2 0x28C5 JUMP JUMPDEST PUSH0 PUSH2 0x91D DUP4 PUSH2 0x28CF JUMP JUMPDEST SWAP1 POP PUSH0 JUMPDEST PUSH1 0xE SLOAD DUP2 LT ISZERO PUSH2 0x9E9 JUMPI PUSH0 PUSH1 0xE DUP3 DUP2 SLOAD DUP2 LT PUSH2 0x93F JUMPI PUSH2 0x93F PUSH2 0x4439 JUMP JUMPDEST SWAP1 PUSH0 MSTORE PUSH1 0x20 PUSH0 KECCAK256 ADD SLOAD SWAP1 POP DUP3 DUP1 MLOAD SWAP1 PUSH1 0x20 ADD KECCAK256 PUSH1 0xC PUSH0 DUP4 DUP2 MSTORE PUSH1 0x20 ADD SWAP1 DUP2 MSTORE PUSH1 0x20 ADD PUSH0 KECCAK256 PUSH1 0x1 ADD PUSH1 0x40 MLOAD PUSH2 0x973 SWAP2 SWAP1 PUSH2 0x44ED JUMP JUMPDEST PUSH1 0x40 MLOAD DUP1 SWAP2 SUB SWAP1 KECCAK256 SUB PUSH2 0x9E0 JUMPI PUSH1 0x40 MLOAD PUSH3 0x461BCD PUSH1 0xE5 SHL DUP2 MSTORE PUSH1 0x20 PUSH1 0x4 DUP3 ADD MSTORE PUSH1 0x2A PUSH1 0x24 DUP3 ADD MSTORE PUSH32 0x53686172656431313535546F6B656E3A204475706C6963617465207375666669 PUSH1 0x44 DUP3 ADD MSTORE PUSH10 0x1E0819195D1958DD1959 PUSH1 0xB2 SHL PUSH1 0x64 DUP3 ADD MSTORE PUSH1 0x84 ADD JUMPDEST PUSH1 0x40 MLOAD DUP1 SWAP2 SUB SWAP1 REVERT JUMPDEST POP PUSH1 0x1 ADD PUSH2 0x921 JUMP JUMPDEST POP PUSH2 0x9F8 PUSH1 0xA DUP1 SLOAD PUSH1 0x1 ADD SWAP1 SSTORE JUMP JUMPDEST PUSH0 PUSH2 0xA02 PUSH1 0xA SLOAD SWAP1 JUMP JUMPDEST PUSH1 0x40 DUP1 MLOAD DUP1 DUP3 ADD DUP3 MSTORE DUP3 DUP2 MSTORE PUSH1 0x20 DUP1 DUP3 ADD DUP7 DUP2 MSTORE PUSH0 DUP6 DUP2 MSTORE PUSH1 0xC SWAP1 SWAP3 MSTORE SWAP3 SWAP1 KECCAK256 DUP2 MLOAD DUP2 SSTORE SWAP2 MLOAD SWAP3 SWAP4 POP SWAP2 PUSH1 0x1 DUP3 ADD SWAP1 PUSH2 0xA3B SWAP1 DUP3 PUSH2 0x453C JUMP JUMPDEST POP POP PUSH1 0xE DUP1 SLOAD PUSH1 0x1 DUP2 ADD DUP3 SSTORE PUSH0 SWAP2 SWAP1 SWAP2 MSTORE PUSH32 0xBB7B4A454DC3493923482F07822329ED19E8244EFF582CC204F8554C3620C3FD ADD DUP3 SWAP1 SSTORE POP PUSH1 0x40 MLOAD DUP2 SWAP1 PUSH32 0x62B7B5BA11BFC95430FAB0460FDF99B9C8FBC2B3A6A48CAF79C3EE1B591C0336 SWAP1 PUSH2 0xAA4 SWAP1 DUP6 SWAP1 PUSH2 0x39A0 JUMP JUMPDEST PUSH1 0x40 MLOAD DUP1 SWAP2 SUB SWAP1 LOG2 POP POP POP POP JUMP JUMPDEST PUSH1 0xB DUP1 SLOAD PUSH2 0xABF SWAP1 PUSH2 0x444D JUMP JUMPDEST DUP1 PUSH1 0x1F ADD PUSH1 0x20 DUP1 SWAP2 DIV MUL PUSH1 0x20 ADD PUSH1 0x40 MLOAD SWAP1 DUP2 ADD PUSH1 0x40 MSTORE DUP1 SWAP3 SWAP2 SWAP1 DUP2 DUP2 MSTORE PUSH1 0x20 ADD DUP3 DUP1 SLOAD PUSH2 0xAEB SWAP1 PUSH2 0x444D JUMP JUMPDEST DUP1 ISZERO PUSH2 0xB36 JUMPI DUP1 PUSH1 0x1F LT PUSH2 0xB0D JUMPI PUSH2 0x100 DUP1 DUP4 SLOAD DIV MUL DUP4 MSTORE SWAP2 PUSH1 0x20 ADD SWAP2 PUSH2 0xB36 JUMP JUMPDEST DUP3 ADD SWAP2 SWAP1 PUSH0 MSTORE PUSH1 0x20 PUSH0 KECCAK256 SWAP1 JUMPDEST DUP2 SLOAD DUP2 MSTORE SWAP1 PUSH1 0x1 ADD SWAP1 PUSH1 0x20 ADD DUP1 DUP4 GT PUSH2 0xB19 JUMPI DUP3 SWAP1 SUB PUSH1 0x1F AND DUP3 ADD SWAP2 JUMPDEST POP POP POP POP POP DUP2 JUMP JUMPDEST PUSH1 0x60 PUSH2 0x8BF DUP3 PUSH2 0x2A22 JUMP JUMPDEST PUSH0 PUSH2 0xB53 DUP2 PUSH2 0x28C5 JUMP JUMPDEST PUSH0 DUP4 DUP2 MSTORE PUSH1 0x7 PUSH1 0x20 MSTORE PUSH1 0x40 DUP2 KECCAK256 SLOAD GT PUSH2 0xBC4 JUMPI PUSH1 0x40 MLOAD PUSH3 0x461BCD PUSH1 0xE5 SHL DUP2 MSTORE PUSH1 0x20 PUSH1 0x4 DUP3 ADD MSTORE PUSH1 0x2D PUSH1 0x24 DUP3 ADD MSTORE PUSH32 0x53686172656431313535546F6B656E3A2055524920736574206F66206E6F6E65 PUSH1 0x44 DUP3 ADD MSTORE PUSH13 0x3C34B9BA32B73A103A37B5B2B7 PUSH1 0x99 SHL PUSH1 0x64 DUP3 ADD MSTORE PUSH1 0x84 ADD PUSH2 0x9D7 JUMP JUMPDEST PUSH2 0xBD6 DUP4 PUSH2 0xBD1 DUP5 PUSH2 0x28CF JUMP JUMPDEST PUSH2 0x2AFE JUMP JUMPDEST POP POP POP JUMP JUMPDEST PUSH1 0x60 PUSH1 0x1 PUSH1 0x1 PUSH1 0xA0 SHL SUB DUP3 AND PUSH2 0xC44 JUMPI PUSH1 0x40 MLOAD PUSH3 0x461BCD PUSH1 0xE5 SHL DUP2 MSTORE PUSH1 0x20 PUSH1 0x4 DUP3 ADD MSTORE PUSH1 0x28 PUSH1 0x24 DUP3 ADD MSTORE PUSH32 0x53686172656431313535546F6B656E3A20496E76616C6964206163636F756E74 PUSH1 0x44 DUP3 ADD MSTORE PUSH8 0x2061646472657373 PUSH1 0xC0 SHL PUSH1 0x64 DUP3 ADD MSTORE PUSH1 0x84 ADD PUSH2 0x9D7 JUMP JUMPDEST PUSH0 DUP1 JUMPDEST PUSH1 0xF SLOAD DUP2 LT ISZERO PUSH2 0xC93 JUMPI PUSH0 PUSH2 0xC77 DUP6 PUSH1 0xF DUP5 DUP2 SLOAD DUP2 LT PUSH2 0xC69 JUMPI PUSH2 0xC69 PUSH2 0x4439 JUMP JUMPDEST SWAP1 PUSH0 MSTORE PUSH1 0x20 PUSH0 KECCAK256 ADD SLOAD PUSH2 0x89C JUMP JUMPDEST GT ISZERO PUSH2 0xC8B JUMPI DUP2 PUSH2 0xC87 DUP2 PUSH2 0x460D JUMP JUMPDEST SWAP3 POP POP JUMPDEST PUSH1 0x1 ADD PUSH2 0xC47 JUMP JUMPDEST POP PUSH0 DUP2 PUSH1 0x1 PUSH1 0x1 PUSH1 0x40 SHL SUB DUP2 GT ISZERO PUSH2 0xCAD JUMPI PUSH2 0xCAD PUSH2 0x3883 JUMP JUMPDEST PUSH1 0x40 MLOAD SWAP1 DUP1 DUP3 MSTORE DUP1 PUSH1 0x20 MUL PUSH1 0x20 ADD DUP3 ADD PUSH1 0x40 MSTORE DUP1 ISZERO PUSH2 0xCE6 JUMPI DUP2 PUSH1 0x20 ADD JUMPDEST PUSH2 0xCD3 PUSH2 0x378C JUMP JUMPDEST DUP2 MSTORE PUSH1 0x20 ADD SWAP1 PUSH1 0x1 SWAP1 SUB SWAP1 DUP2 PUSH2 0xCCB JUMPI SWAP1 POP JUMPDEST POP SWAP1 POP PUSH0 DUP1 JUMPDEST PUSH1 0xF SLOAD DUP2 LT ISZERO PUSH2 0xDAB JUMPI PUSH0 PUSH1 0xF DUP3 DUP2 SLOAD DUP2 LT PUSH2 0xD0A JUMPI PUSH2 0xD0A PUSH2 0x4439 JUMP JUMPDEST SWAP1 PUSH0 MSTORE PUSH1 0x20 PUSH0 KECCAK256 ADD SLOAD SWAP1 POP PUSH0 PUSH2 0xD20 DUP9 DUP4 PUSH2 0x89C JUMP JUMPDEST SWAP1 POP DUP1 ISZERO PUSH2 0xDA1 JUMPI PUSH1 0x40 MLOAD DUP1 PUSH1 0x80 ADD PUSH1 0x40 MSTORE DUP1 DUP4 DUP2 MSTORE PUSH1 0x20 ADD DUP3 DUP2 MSTORE PUSH1 0x20 ADD PUSH2 0xD48 DUP5 PUSH2 0xB3E JUMP JUMPDEST DUP2 MSTORE PUSH0 DUP5 DUP2 MSTORE PUSH1 0xD PUSH1 0x20 SWAP1 DUP2 MSTORE PUSH1 0x40 SWAP2 DUP3 SWAP1 KECCAK256 DUP3 MLOAD DUP1 DUP5 ADD SWAP1 SWAP4 MSTORE DUP1 SLOAD DUP4 MSTORE PUSH1 0x1 ADD SLOAD DUP3 DUP3 ADD MSTORE SWAP1 SWAP2 ADD MSTORE DUP6 MLOAD DUP7 SWAP1 DUP7 SWAP1 DUP2 LT PUSH2 0xD87 JUMPI PUSH2 0xD87 PUSH2 0x4439 JUMP JUMPDEST PUSH1 0x20 MUL PUSH1 0x20 ADD ADD DUP2 SWAP1 MSTORE POP DUP4 DUP1 PUSH2 0xD9D SWAP1 PUSH2 0x460D JUMP JUMPDEST SWAP5 POP POP JUMPDEST POP POP PUSH1 0x1 ADD PUSH2 0xCEC JUMP JUMPDEST POP SWAP1 SWAP5 SWAP4 POP POP POP POP JUMP JUMPDEST PUSH0 MLOAD PUSH1 0x20 PUSH2 0x4AF4 PUSH0 CODECOPY PUSH0 MLOAD SWAP1 PUSH0 MSTORE PUSH2 0xDCC DUP2 PUSH2 0x28C5 JUMP JUMPDEST PUSH2 0xDD8 DUP6 DUP6 DUP6 DUP6 PUSH2 0x2B4E JUMP JUMPDEST POP POP POP POP POP JUMP JUMPDEST PUSH32 0xE926D122B799DCBE5C2ECCDF60AE0AEFBB1A4BC75A7848BB07BEFECF8C775F5C PUSH2 0xE09 DUP2 PUSH2 0x28C5 JUMP JUMPDEST PUSH1 0x1 PUSH1 0x1 PUSH1 0xA0 SHL SUB DUP4 AND PUSH2 0xE2F JUMPI PUSH1 0x40 MLOAD PUSH3 0x461BCD PUSH1 0xE5 SHL DUP2 MSTORE PUSH1 0x4 ADD PUSH2 0x9D7 SWAP1 PUSH2 0x4625 JUMP JUMPDEST PUSH0 DUP3 GT PUSH2 0xE4E JUMPI PUSH1 0x40 MLOAD PUSH3 0x461BCD PUSH1 0xE5 SHL DUP2 MSTORE PUSH1 0x4 ADD PUSH2 0x9D7 SWAP1 PUSH2 0x466F JUMP JUMPDEST PUSH1 0x40 MLOAD PUSH4 0x70A08231 PUSH1 0xE0 SHL DUP2 MSTORE ADDRESS PUSH1 0x4 DUP3 ADD MSTORE DUP5 SWAP1 DUP4 SWAP1 PUSH1 0x1 PUSH1 0x1 PUSH1 0xA0 SHL SUB DUP4 AND SWAP1 PUSH4 0x70A08231 SWAP1 PUSH1 0x24 ADD PUSH1 0x20 PUSH1 0x40 MLOAD DUP1 DUP4 SUB DUP2 DUP7 GAS STATICCALL ISZERO DUP1 ISZERO PUSH2 0xE94 JUMPI RETURNDATASIZE PUSH0 PUSH0 RETURNDATACOPY RETURNDATASIZE PUSH0 REVERT JUMPDEST POP POP POP POP PUSH1 0x40 MLOAD RETURNDATASIZE PUSH1 0x1F NOT PUSH1 0x1F DUP3 ADD AND DUP3 ADD DUP1 PUSH1 0x40 MSTORE POP DUP2 ADD SWAP1 PUSH2 0xEB8 SWAP2 SWAP1 PUSH2 0x46CC JUMP JUMPDEST LT ISZERO PUSH2 0xF23 JUMPI PUSH1 0x40 MLOAD PUSH3 0x461BCD PUSH1 0xE5 SHL DUP2 MSTORE PUSH1 0x20 PUSH1 0x4 DUP3 ADD MSTORE PUSH1 0x34 PUSH1 0x24 DUP3 ADD MSTORE PUSH32 0x53686172656431313535546F6B656E3A20496E73756666696369656E7420636F PUSH1 0x44 DUP3 ADD MSTORE PUSH20 0x6E74726163742045524332302062616C616E6365 PUSH1 0x60 SHL PUSH1 0x64 DUP3 ADD MSTORE PUSH1 0x84 ADD PUSH2 0x9D7 JUMP JUMPDEST PUSH1 0x40 MLOAD PUSH4 0xA9059CBB PUSH1 0xE0 SHL DUP2 MSTORE PUSH1 0x1 PUSH1 0x1 PUSH1 0xA0 SHL SUB DUP6 DUP2 AND PUSH1 0x4 DUP4 ADD MSTORE PUSH1 0x24 DUP3 ADD DUP6 SWAP1 MSTORE DUP3 AND SWAP1 PUSH4 0xA9059CBB SWAP1 PUSH1 0x44 ADD PUSH1 0x20 PUSH1 0x40 MLOAD DUP1 DUP4 SUB DUP2 PUSH0 DUP8 GAS CALL ISZERO DUP1 ISZERO PUSH2 0xF6F JUMPI RETURNDATASIZE PUSH0 PUSH0 RETURNDATACOPY RETURNDATASIZE PUSH0 REVERT JUMPDEST POP POP POP POP PUSH1 0x40 MLOAD RETURNDATASIZE PUSH1 0x1F NOT PUSH1 0x1F DUP3 ADD AND DUP3 ADD DUP1 PUSH1 0x40 MSTORE POP DUP2 ADD SWAP1 PUSH2 0xF93 SWAP2 SWAP1 PUSH2 0x46E3 JUMP JUMPDEST POP PUSH1 0x40 DUP1 MLOAD DUP5 DUP2 MSTORE TIMESTAMP PUSH1 0x20 DUP3 ADD MSTORE PUSH1 0x1 PUSH1 0x1 PUSH1 0xA0 SHL SUB DUP1 DUP8 AND SWAP3 SWAP1 DUP9 AND SWAP2 PUSH32 0x2E51953AFE6D89DA55B864C5708F97AA982491A9292D2EA5B81445C9BB830AE8 SWAP2 ADD PUSH1 0x40 MLOAD DUP1 SWAP2 SUB SWAP1 LOG3 POP POP POP POP POP JUMP JUMPDEST CALLER PUSH1 0x1 PUSH1 0x1 PUSH1 0xA0 SHL SUB DUP7 AND DUP2 EQ DUP1 ISZERO SWAP1 PUSH2 0x1004 JUMPI POP PUSH2 0x1002 DUP7 DUP3 PUSH2 0x2683 JUMP JUMPDEST ISZERO JUMPDEST ISZERO PUSH2 0x1035 JUMPI PUSH1 0x40 MLOAD PUSH4 0x711BEC91 PUSH1 0xE1 SHL DUP2 MSTORE PUSH1 0x1 PUSH1 0x1 PUSH1 0xA0 SHL SUB DUP1 DUP4 AND PUSH1 0x4 DUP4 ADD MSTORE DUP8 AND PUSH1 0x24 DUP3 ADD MSTORE PUSH1 0x44 ADD PUSH2 0x9D7 JUMP JUMPDEST PUSH2 0x1042 DUP7 DUP7 DUP7 DUP7 DUP7 PUSH2 0x2B84 JUMP JUMPDEST POP POP POP POP POP POP JUMP JUMPDEST PUSH0 DUP3 DUP2 MSTORE PUSH1 0x20 DUP2 SWAP1 MSTORE PUSH1 0x40 SWAP1 KECCAK256 PUSH1 0x1 ADD SLOAD PUSH2 0x1064 DUP2 PUSH2 0x28C5 JUMP JUMPDEST PUSH2 0x106E DUP4 DUP4 PUSH2 0x2BE2 JUMP JUMPDEST POP POP POP POP JUMP JUMPDEST PUSH1 0x10 DUP2 DUP2 SLOAD DUP2 LT PUSH2 0x1083 JUMPI PUSH0 DUP1 REVERT JUMPDEST SWAP1 PUSH0 MSTORE PUSH1 0x20 PUSH0 KECCAK256 ADD PUSH0 SWAP2 POP SWAP1 POP DUP1 SLOAD PUSH2 0xABF SWAP1 PUSH2 0x444D JUMP JUMPDEST PUSH0 PUSH2 0x10A5 DUP2 PUSH2 0x28C5 JUMP JUMPDEST PUSH1 0x1 PUSH1 0x1 PUSH1 0xA0 SHL SUB DUP5 AND PUSH2 0x10CB JUMPI PUSH1 0x40 MLOAD PUSH3 0x461BCD PUSH1 0xE5 SHL DUP2 MSTORE PUSH1 0x4 ADD PUSH2 0x9D7 SWAP1 PUSH2 0x4625 JUMP JUMPDEST PUSH0 DUP3 GT PUSH2 0x10EA JUMPI PUSH1 0x40 MLOAD PUSH3 0x461BCD PUSH1 0xE5 SHL DUP2 MSTORE PUSH1 0x4 ADD PUSH2 0x9D7 SWAP1 PUSH2 0x466F JUMP JUMPDEST PUSH0 PUSH2 0x10F4 DUP5 PUSH2 0x28CF JUMP JUMPDEST SWAP1 POP PUSH0 DUP1 JUMPDEST PUSH1 0xF SLOAD DUP2 LT ISZERO PUSH2 0x1166 JUMPI DUP3 DUP1 MLOAD SWAP1 PUSH1 0x20 ADD KECCAK256 PUSH2 0x112F PUSH1 0xF DUP4 DUP2 SLOAD DUP2 LT PUSH2 0x1121 JUMPI PUSH2 0x1121 PUSH2 0x4439 JUMP JUMPDEST SWAP1 PUSH0 MSTORE PUSH1 0x20 PUSH0 KECCAK256 ADD SLOAD PUSH2 0xB3E JUMP JUMPDEST DUP1 MLOAD SWAP1 PUSH1 0x20 ADD KECCAK256 SUB PUSH2 0x115E JUMPI PUSH1 0xF DUP2 DUP2 SLOAD DUP2 LT PUSH2 0x114E JUMPI PUSH2 0x114E PUSH2 0x4439 JUMP JUMPDEST SWAP1 PUSH0 MSTORE PUSH1 0x20 PUSH0 KECCAK256 ADD SLOAD SWAP2 POP PUSH2 0x1166 JUMP JUMPDEST PUSH1 0x1 ADD PUSH2 0x10F9 JUMP JUMPDEST POP DUP1 PUSH0 SUB PUSH2 0x1186 JUMPI PUSH1 0x40 MLOAD PUSH3 0x461BCD PUSH1 0xE5 SHL DUP2 MSTORE PUSH1 0x4 ADD PUSH2 0x9D7 SWAP1 PUSH2 0x46FE JUMP JUMPDEST DUP4 PUSH2 0x1191 ADDRESS DUP4 PUSH2 0x89C JUMP JUMPDEST LT ISZERO PUSH2 0x11AF JUMPI PUSH1 0x40 MLOAD PUSH3 0x461BCD PUSH1 0xE5 SHL DUP2 MSTORE PUSH1 0x4 ADD PUSH2 0x9D7 SWAP1 PUSH2 0x4754 JUMP JUMPDEST PUSH2 0x1042 ADDRESS DUP8 DUP4 DUP8 PUSH1 0x40 MLOAD DUP1 PUSH1 0x20 ADD PUSH1 0x40 MSTORE DUP1 PUSH0 DUP2 MSTORE POP PUSH2 0x26B0 JUMP JUMPDEST PUSH1 0x1 PUSH1 0x1 PUSH1 0xA0 SHL SUB DUP2 AND CALLER EQ PUSH2 0x11F3 JUMPI PUSH1 0x40 MLOAD PUSH4 0x334BD919 PUSH1 0xE1 SHL DUP2 MSTORE PUSH1 0x4 ADD PUSH1 0x40 MLOAD DUP1 SWAP2 SUB SWAP1 REVERT JUMPDEST PUSH2 0xBD6 DUP3 DUP3 PUSH2 0x2C71 JUMP JUMPDEST PUSH0 PUSH2 0x1207 DUP2 PUSH2 0x28C5 JUMP JUMPDEST PUSH2 0x120F PUSH2 0x2CDA JUMP JUMPDEST POP JUMP JUMPDEST PUSH1 0x60 DUP2 MLOAD DUP4 MLOAD EQ PUSH2 0x1243 JUMPI DUP2 MLOAD DUP4 MLOAD PUSH1 0x40 MLOAD PUSH4 0x5B059991 PUSH1 0xE0 SHL DUP2 MSTORE PUSH1 0x4 DUP2 ADD SWAP3 SWAP1 SWAP3 MSTORE PUSH1 0x24 DUP3 ADD MSTORE PUSH1 0x44 ADD PUSH2 0x9D7 JUMP JUMPDEST PUSH0 DUP4 MLOAD PUSH1 0x1 PUSH1 0x1 PUSH1 0x40 SHL SUB DUP2 GT ISZERO PUSH2 0x125D JUMPI PUSH2 0x125D PUSH2 0x3883 JUMP JUMPDEST PUSH1 0x40 MLOAD SWAP1 DUP1 DUP3 MSTORE DUP1 PUSH1 0x20 MUL PUSH1 0x20 ADD DUP3 ADD PUSH1 0x40 MSTORE DUP1 ISZERO PUSH2 0x1286 JUMPI DUP2 PUSH1 0x20 ADD PUSH1 0x20 DUP3 MUL DUP1 CALLDATASIZE DUP4 CALLDATACOPY ADD SWAP1 POP JUMPDEST POP SWAP1 POP PUSH0 JUMPDEST DUP5 MLOAD DUP2 LT ISZERO PUSH2 0x12D4 JUMPI PUSH1 0x20 DUP1 DUP3 MUL DUP7 ADD ADD MLOAD PUSH2 0x12AF SWAP1 PUSH1 0x20 DUP1 DUP5 MUL DUP8 ADD ADD MLOAD PUSH2 0x89C JUMP JUMPDEST DUP3 DUP3 DUP2 MLOAD DUP2 LT PUSH2 0x12C1 JUMPI PUSH2 0x12C1 PUSH2 0x4439 JUMP JUMPDEST PUSH1 0x20 SWAP1 DUP2 MUL SWAP2 SWAP1 SWAP2 ADD ADD MSTORE PUSH1 0x1 ADD PUSH2 0x128B JUMP JUMPDEST POP SWAP4 SWAP3 POP POP POP JUMP JUMPDEST PUSH1 0x40 DUP1 MLOAD DUP1 DUP3 ADD SWAP1 SWAP2 MSTORE PUSH0 DUP2 MSTORE PUSH1 0x60 PUSH1 0x20 DUP3 ADD MSTORE PUSH0 DUP3 DUP2 MSTORE PUSH1 0xC PUSH1 0x20 MSTORE PUSH1 0x40 DUP2 KECCAK256 SLOAD SWAP1 SUB PUSH2 0x131C JUMPI PUSH1 0x40 MLOAD PUSH3 0x461BCD PUSH1 0xE5 SHL DUP2 MSTORE PUSH1 0x4 ADD PUSH2 0x9D7 SWAP1 PUSH2 0x479D JUMP JUMPDEST PUSH1 0xC PUSH0 DUP4 DUP2 MSTORE PUSH1 0x20 ADD SWAP1 DUP2 MSTORE PUSH1 0x20 ADD PUSH0 KECCAK256 PUSH1 0x40 MLOAD DUP1 PUSH1 0x40 ADD PUSH1 0x40 MSTORE SWAP1 DUP2 PUSH0 DUP3 ADD SLOAD DUP2 MSTORE PUSH1 0x20 ADD PUSH1 0x1 DUP3 ADD DUP1 SLOAD PUSH2 0x1351 SWAP1 PUSH2 0x444D JUMP JUMPDEST DUP1 PUSH1 0x1F ADD PUSH1 0x20 DUP1 SWAP2 DIV MUL PUSH1 0x20 ADD PUSH1 0x40 MLOAD SWAP1 DUP2 ADD PUSH1 0x40 MSTORE DUP1 SWAP3 SWAP2 SWAP1 DUP2 DUP2 MSTORE PUSH1 0x20 ADD DUP3 DUP1 SLOAD PUSH2 0x137D SWAP1 PUSH2 0x444D JUMP JUMPDEST DUP1 ISZERO PUSH2 0x13C8 JUMPI DUP1 PUSH1 0x1F LT PUSH2 0x139F JUMPI PUSH2 0x100 DUP1 DUP4 SLOAD DIV MUL DUP4 MSTORE SWAP2 PUSH1 0x20 ADD SWAP2 PUSH2 0x13C8 JUMP JUMPDEST DUP3 ADD SWAP2 SWAP1 PUSH0 MSTORE PUSH1 0x20 PUSH0 KECCAK256 SWAP1 JUMPDEST DUP2 SLOAD DUP2 MSTORE SWAP1 PUSH1 0x1 ADD SWAP1 PUSH1 0x20 ADD DUP1 DUP4 GT PUSH2 0x13AB JUMPI DUP3 SWAP1 SUB PUSH1 0x1F AND DUP3 ADD SWAP2 JUMPDEST POP POP POP POP POP DUP2 MSTORE POP POP SWAP1 POP SWAP2 SWAP1 POP JUMP JUMPDEST PUSH1 0xE SLOAD PUSH1 0x60 SWAP1 PUSH0 SWAP1 PUSH1 0x1 PUSH1 0x1 PUSH1 0x40 SHL SUB DUP2 GT ISZERO PUSH2 0x13F7 JUMPI PUSH2 0x13F7 PUSH2 0x3883 JUMP JUMPDEST PUSH1 0x40 MLOAD SWAP1 DUP1 DUP3 MSTORE DUP1 PUSH1 0x20 MUL PUSH1 0x20 ADD DUP3 ADD PUSH1 0x40 MSTORE DUP1 ISZERO PUSH2 0x143C JUMPI DUP2 PUSH1 0x20 ADD JUMPDEST PUSH1 0x40 DUP1 MLOAD DUP1 DUP3 ADD SWAP1 SWAP2 MSTORE PUSH0 DUP2 MSTORE PUSH1 0x60 PUSH1 0x20 DUP3 ADD MSTORE DUP2 MSTORE PUSH1 0x20 ADD SWAP1 PUSH1 0x1 SWAP1 SUB SWAP1 DUP2 PUSH2 0x1415 JUMPI SWAP1 POP JUMPDEST POP SWAP1 POP PUSH0 JUMPDEST PUSH1 0xE SLOAD DUP2 LT ISZERO PUSH2 0x1540 JUMPI PUSH1 0xC PUSH0 PUSH1 0xE DUP4 DUP2 SLOAD DUP2 LT PUSH2 0x1461 JUMPI PUSH2 0x1461 PUSH2 0x4439 JUMP JUMPDEST SWAP1 PUSH0 MSTORE PUSH1 0x20 PUSH0 KECCAK256 ADD SLOAD DUP2 MSTORE PUSH1 0x20 ADD SWAP1 DUP2 MSTORE PUSH1 0x20 ADD PUSH0 KECCAK256 PUSH1 0x40 MLOAD DUP1 PUSH1 0x40 ADD PUSH1 0x40 MSTORE SWAP1 DUP2 PUSH0 DUP3 ADD SLOAD DUP2 MSTORE PUSH1 0x20 ADD PUSH1 0x1 DUP3 ADD DUP1 SLOAD PUSH2 0x149B SWAP1 PUSH2 0x444D JUMP JUMPDEST DUP1 PUSH1 0x1F ADD PUSH1 0x20 DUP1 SWAP2 DIV MUL PUSH1 0x20 ADD PUSH1 0x40 MLOAD SWAP1 DUP2 ADD PUSH1 0x40 MSTORE DUP1 SWAP3 SWAP2 SWAP1 DUP2 DUP2 MSTORE PUSH1 0x20 ADD DUP3 DUP1 SLOAD PUSH2 0x14C7 SWAP1 PUSH2 0x444D JUMP JUMPDEST DUP1 ISZERO PUSH2 0x1512 JUMPI DUP1 PUSH1 0x1F LT PUSH2 0x14E9 JUMPI PUSH2 0x100 DUP1 DUP4 SLOAD DIV MUL DUP4 MSTORE SWAP2 PUSH1 0x20 ADD SWAP2 PUSH2 0x1512 JUMP JUMPDEST DUP3 ADD SWAP2 SWAP1 PUSH0 MSTORE PUSH1 0x20 PUSH0 KECCAK256 SWAP1 JUMPDEST DUP2 SLOAD DUP2 MSTORE SWAP1 PUSH1 0x1 ADD SWAP1 PUSH1 0x20 ADD DUP1 DUP4 GT PUSH2 0x14F5 JUMPI DUP3 SWAP1 SUB PUSH1 0x1F AND DUP3 ADD SWAP2 JUMPDEST POP POP POP POP POP DUP2 MSTORE POP POP DUP3 DUP3 DUP2 MLOAD DUP2 LT PUSH2 0x152D JUMPI PUSH2 0x152D PUSH2 0x4439 JUMP JUMPDEST PUSH1 0x20 SWAP1 DUP2 MUL SWAP2 SWAP1 SWAP2 ADD ADD MSTORE PUSH1 0x1 ADD PUSH2 0x1441 JUMP JUMPDEST POP SWAP2 SWAP1 POP JUMP JUMPDEST PUSH1 0x1 PUSH1 0x1 PUSH1 0xA0 SHL SUB DUP4 AND CALLER EQ DUP1 ISZERO SWAP1 PUSH2 0x1566 JUMPI POP PUSH2 0x1564 DUP4 CALLER PUSH2 0x2683 JUMP JUMPDEST ISZERO JUMPDEST ISZERO PUSH2 0x159A JUMPI CALLER JUMPDEST PUSH1 0x40 MLOAD PUSH4 0x711BEC91 PUSH1 0xE1 SHL DUP2 MSTORE PUSH1 0x1 PUSH1 0x1 PUSH1 0xA0 SHL SUB SWAP2 DUP3 AND PUSH1 0x4 DUP3 ADD MSTORE SWAP1 DUP5 AND PUSH1 0x24 DUP3 ADD MSTORE PUSH1 0x44 ADD PUSH2 0x9D7 JUMP JUMPDEST PUSH2 0xBD6 DUP4 DUP4 DUP4 PUSH2 0x2D2C JUMP JUMPDEST PUSH0 PUSH2 0x15AF DUP2 PUSH2 0x28C5 JUMP JUMPDEST PUSH0 PUSH2 0x15B9 DUP4 PUSH2 0x28CF JUMP JUMPDEST SWAP1 POP PUSH0 JUMPDEST PUSH1 0xE SLOAD DUP2 LT ISZERO PUSH2 0x1706 JUMPI PUSH0 PUSH1 0xE DUP3 DUP2 SLOAD DUP2 LT PUSH2 0x15DB JUMPI PUSH2 0x15DB PUSH2 0x4439 JUMP JUMPDEST SWAP1 PUSH0 MSTORE PUSH1 0x20 PUSH0 KECCAK256 ADD SLOAD SWAP1 POP DUP3 DUP1 MLOAD SWAP1 PUSH1 0x20 ADD KECCAK256 PUSH1 0xC PUSH0 DUP4 DUP2 MSTORE PUSH1 0x20 ADD SWAP1 DUP2 MSTORE PUSH1 0x20 ADD PUSH0 KECCAK256 PUSH1 0x1 ADD PUSH1 0x40 MLOAD PUSH2 0x160F SWAP2 SWAP1 PUSH2 0x44ED JUMP JUMPDEST PUSH1 0x40 MLOAD DUP1 SWAP2 SUB SWAP1 KECCAK256 SUB PUSH2 0x16FD JUMPI PUSH0 DUP2 DUP2 MSTORE PUSH1 0xC PUSH1 0x20 MSTORE PUSH1 0x40 DUP2 KECCAK256 DUP2 DUP2 SSTORE SWAP1 PUSH2 0x163A PUSH1 0x1 DUP4 ADD DUP3 PUSH2 0x37CA JUMP JUMPDEST POP POP PUSH1 0xE SLOAD PUSH2 0x164B SWAP1 PUSH1 0x1 SWAP1 PUSH2 0x47E7 JUMP JUMPDEST DUP3 LT ISZERO PUSH2 0x169A JUMPI PUSH1 0xE DUP1 SLOAD PUSH2 0x1662 SWAP1 PUSH1 0x1 SWAP1 PUSH2 0x47E7 JUMP JUMPDEST DUP2 SLOAD DUP2 LT PUSH2 0x1672 JUMPI PUSH2 0x1672 PUSH2 0x4439 JUMP JUMPDEST SWAP1 PUSH0 MSTORE PUSH1 0x20 PUSH0 KECCAK256 ADD SLOAD PUSH1 0xE DUP4 DUP2 SLOAD DUP2 LT PUSH2 0x168E JUMPI PUSH2 0x168E PUSH2 0x4439 JUMP JUMPDEST PUSH0 SWAP2 DUP3 MSTORE PUSH1 0x20 SWAP1 SWAP2 KECCAK256 ADD SSTORE JUMPDEST PUSH1 0xE DUP1 SLOAD DUP1 PUSH2 0x16AB JUMPI PUSH2 0x16AB PUSH2 0x47FA JUMP JUMPDEST PUSH1 0x1 SWAP1 SUB DUP2 DUP2 SWAP1 PUSH0 MSTORE PUSH1 0x20 PUSH0 KECCAK256 ADD PUSH0 SWAP1 SSTORE SWAP1 SSTORE DUP1 PUSH32 0xF2C458821D360029E0B4D57E1F001B05DB9D486EF001529D2E931753D7CF32F4 DUP5 PUSH1 0x40 MLOAD PUSH2 0x16EE SWAP2 SWAP1 PUSH2 0x39A0 JUMP JUMPDEST PUSH1 0x40 MLOAD DUP1 SWAP2 SUB SWAP1 LOG2 POP POP POP POP POP JUMP JUMPDEST POP PUSH1 0x1 ADD PUSH2 0x15BD JUMP JUMPDEST POP PUSH1 0x40 MLOAD PUSH3 0x461BCD PUSH1 0xE5 SHL DUP2 MSTORE PUSH1 0x20 PUSH1 0x4 DUP3 ADD MSTORE PUSH1 0x31 PUSH1 0x24 DUP3 ADD MSTORE PUSH32 0x53686172656431313535546F6B656E3A20436F6C6C656374696F6E2077697468 PUSH1 0x44 DUP3 ADD MSTORE PUSH17 0x81CDD59999A5E081B9BDD08199BDD5B99 PUSH1 0x7A SHL PUSH1 0x64 DUP3 ADD MSTORE PUSH1 0x84 ADD PUSH2 0x9D7 JUMP JUMPDEST POP POP JUMP JUMPDEST PUSH0 MLOAD PUSH1 0x20 PUSH2 0x4AF4 PUSH0 CODECOPY PUSH0 MLOAD SWAP1 PUSH0 MSTORE PUSH2 0x1784 DUP2 PUSH2 0x28C5 JUMP JUMPDEST PUSH2 0xDD8 DUP6 DUP6 DUP6 DUP6 PUSH2 0x2D6F JUMP JUMPDEST PUSH0 PUSH2 0x179B ADDRESS CALLER PUSH2 0x2683 JUMP JUMPDEST SWAP1 POP SWAP1 JUMP JUMPDEST PUSH0 PUSH2 0x17AA DUP2 PUSH2 0x28C5 JUMP JUMPDEST PUSH2 0x120F PUSH2 0x2DCA JUMP JUMPDEST PUSH0 DUP2 DUP2 MSTORE PUSH1 0x7 PUSH1 0x20 MSTORE PUSH1 0x40 DUP2 KECCAK256 SLOAD PUSH1 0x60 SWAP2 LT PUSH2 0x17E0 JUMPI PUSH1 0x40 MLOAD PUSH3 0x461BCD PUSH1 0xE5 SHL DUP2 MSTORE PUSH1 0x4 ADD PUSH2 0x9D7 SWAP1 PUSH2 0x480E JUMP JUMPDEST PUSH0 DUP3 DUP2 MSTORE PUSH1 0x11 PUSH1 0x20 SWAP1 DUP2 MSTORE PUSH1 0x40 DUP1 DUP4 KECCAK256 DUP1 SLOAD DUP3 MLOAD DUP2 DUP6 MUL DUP2 ADD DUP6 ADD SWAP1 SWAP4 MSTORE DUP1 DUP4 MSTORE SWAP2 SWAP4 SWAP1 SWAP3 DUP5 ADD JUMPDEST DUP3 DUP3 LT ISZERO PUSH2 0x1869 JUMPI PUSH0 DUP5 DUP2 MSTORE PUSH1 0x20 SWAP1 DUP2 SWAP1 KECCAK256 PUSH1 0x40 DUP1 MLOAD PUSH1 0x80 DUP2 ADD DUP3 MSTORE PUSH1 0x4 DUP7 MUL SWAP1 SWAP3 ADD DUP1 SLOAD PUSH1 0x1 PUSH1 0x1 PUSH1 0xA0 SHL SUB SWAP1 DUP2 AND DUP5 MSTORE PUSH1 0x1 DUP1 DUP4 ADD SLOAD SWAP1 SWAP2 AND DUP5 DUP7 ADD MSTORE PUSH1 0x2 DUP3 ADD SLOAD SWAP3 DUP5 ADD SWAP3 SWAP1 SWAP3 MSTORE PUSH1 0x3 ADD SLOAD PUSH1 0x60 DUP4 ADD MSTORE SWAP1 DUP4 MSTORE SWAP1 SWAP3 ADD SWAP2 ADD PUSH2 0x1808 JUMP JUMPDEST POP POP POP POP SWAP1 POP SWAP2 SWAP1 POP JUMP JUMPDEST PUSH0 SWAP2 DUP3 MSTORE PUSH1 0x20 DUP3 DUP2 MSTORE PUSH1 0x40 DUP1 DUP5 KECCAK256 PUSH1 0x1 PUSH1 0x1 PUSH1 0xA0 SHL SUB SWAP4 SWAP1 SWAP4 AND DUP5 MSTORE SWAP2 SWAP1 MSTORE SWAP1 KECCAK256 SLOAD PUSH1 0xFF AND SWAP1 JUMP JUMPDEST PUSH0 PUSH2 0x18A6 DUP2 PUSH2 0x28C5 JUMP JUMPDEST PUSH0 DUP3 MLOAD GT PUSH2 0x18C6 JUMPI PUSH1 0x40 MLOAD PUSH3 0x461BCD PUSH1 0xE5 SHL DUP2 MSTORE PUSH1 0x4 ADD PUSH2 0x9D7 SWAP1 PUSH2 0x4850 JUMP JUMPDEST PUSH0 JUMPDEST PUSH1 0x10 SLOAD DUP2 LT ISZERO PUSH2 0x19D9 JUMPI DUP3 DUP1 MLOAD SWAP1 PUSH1 0x20 ADD KECCAK256 PUSH1 0x10 DUP3 DUP2 SLOAD DUP2 LT PUSH2 0x18ED JUMPI PUSH2 0x18ED PUSH2 0x4439 JUMP JUMPDEST SWAP1 PUSH0 MSTORE PUSH1 0x20 PUSH0 KECCAK256 ADD PUSH1 0x40 MLOAD PUSH2 0x1902 SWAP2 SWAP1 PUSH2 0x44ED JUMP JUMPDEST PUSH1 0x40 MLOAD DUP1 SWAP2 SUB SWAP1 KECCAK256 SUB PUSH2 0x19D1 JUMPI PUSH1 0x10 DUP1 SLOAD PUSH2 0x191F SWAP1 PUSH1 0x1 SWAP1 PUSH2 0x47E7 JUMP JUMPDEST DUP2 SLOAD DUP2 LT PUSH2 0x192F JUMPI PUSH2 0x192F PUSH2 0x4439 JUMP JUMPDEST SWAP1 PUSH0 MSTORE PUSH1 0x20 PUSH0 KECCAK256 ADD PUSH1 0x10 DUP3 DUP2 SLOAD DUP2 LT PUSH2 0x194A JUMPI PUSH2 0x194A PUSH2 0x4439 JUMP JUMPDEST SWAP1 PUSH0 MSTORE PUSH1 0x20 PUSH0 KECCAK256 ADD SWAP1 DUP2 PUSH2 0x195E SWAP2 SWAP1 PUSH2 0x4895 JUMP JUMPDEST POP PUSH1 0x10 DUP1 SLOAD DUP1 PUSH2 0x1970 JUMPI PUSH2 0x1970 PUSH2 0x47FA JUMP JUMPDEST PUSH1 0x1 SWAP1 SUB DUP2 DUP2 SWAP1 PUSH0 MSTORE PUSH1 0x20 PUSH0 KECCAK256 ADD PUSH0 PUSH2 0x1989 SWAP2 SWAP1 PUSH2 0x37CA JUMP JUMPDEST SWAP1 SSTORE CALLER PUSH1 0x1 PUSH1 0x1 PUSH1 0xA0 SHL SUB AND PUSH32 0xE29642266027CB54AE2F8DFFF02A7147B64461546559736868A4A962AC7E4CA DUP5 PUSH1 0x40 MLOAD PUSH2 0x19C4 SWAP2 SWAP1 PUSH2 0x39A0 JUMP JUMPDEST PUSH1 0x40 MLOAD DUP1 SWAP2 SUB SWAP1 LOG2 POP POP POP JUMP JUMPDEST PUSH1 0x1 ADD PUSH2 0x18C8 JUMP JUMPDEST POP PUSH1 0x40 MLOAD PUSH3 0x461BCD PUSH1 0xE5 SHL DUP2 MSTORE PUSH1 0x20 PUSH1 0x4 DUP3 ADD MSTORE PUSH1 0x1F PUSH1 0x24 DUP3 ADD MSTORE PUSH32 0x53686172656431313535546F6B656E3A2044617461206E6F7420666F756E6400 PUSH1 0x44 DUP3 ADD MSTORE PUSH1 0x64 ADD PUSH2 0x9D7 JUMP JUMPDEST PUSH1 0x1 PUSH1 0x1 PUSH1 0xA0 SHL SUB DUP3 AND PUSH2 0x1A8A JUMPI PUSH1 0x40 MLOAD PUSH3 0x461BCD PUSH1 0xE5 SHL DUP2 MSTORE PUSH1 0x20 PUSH1 0x4 DUP3 ADD MSTORE PUSH1 0x29 PUSH1 0x24 DUP3 ADD MSTORE PUSH32 0x53686172656431313535546F6B656E3A20496E76616C6964206F70657261746F PUSH1 0x44 DUP3 ADD MSTORE PUSH9 0x722061646472657373 PUSH1 0xB8 SHL PUSH1 0x64 DUP3 ADD MSTORE PUSH1 0x84 ADD PUSH2 0x9D7 JUMP JUMPDEST PUSH2 0x1A95 ADDRESS DUP4 DUP4 PUSH2 0x2E05 JUMP JUMPDEST DUP2 PUSH1 0x1 PUSH1 0x1 PUSH1 0xA0 SHL SUB AND PUSH32 0x8D3369E8CE7E1085710A510CA605F9599E0AE164E4C5A0C65B8106D6681F8EFE DUP3 PUSH1 0x40 MLOAD PUSH2 0x1AD2 SWAP2 ISZERO ISZERO DUP2 MSTORE PUSH1 0x20 ADD SWAP1 JUMP JUMPDEST PUSH1 0x40 MLOAD DUP1 SWAP2 SUB SWAP1 LOG2 POP POP JUMP JUMPDEST PUSH2 0x1769 CALLER DUP4 DUP4 PUSH2 0x2E05 JUMP JUMPDEST PUSH1 0x60 CALLER PUSH0 DUP1 JUMPDEST PUSH1 0xF SLOAD DUP2 LT ISZERO PUSH2 0x1B2D JUMPI PUSH0 PUSH2 0x1B11 DUP5 PUSH1 0xF DUP5 DUP2 SLOAD DUP2 LT PUSH2 0xC69 JUMPI PUSH2 0xC69 PUSH2 0x4439 JUMP JUMPDEST GT ISZERO PUSH2 0x1B25 JUMPI DUP2 PUSH2 0x1B21 DUP2 PUSH2 0x460D JUMP JUMPDEST SWAP3 POP POP JUMPDEST PUSH1 0x1 ADD PUSH2 0x1AEF JUMP JUMPDEST POP PUSH0 DUP2 PUSH1 0x1 PUSH1 0x1 PUSH1 0x40 SHL SUB DUP2 GT ISZERO PUSH2 0x1B47 JUMPI PUSH2 0x1B47 PUSH2 0x3883 JUMP JUMPDEST PUSH1 0x40 MLOAD SWAP1 DUP1 DUP3 MSTORE DUP1 PUSH1 0x20 MUL PUSH1 0x20 ADD DUP3 ADD PUSH1 0x40 MSTORE DUP1 ISZERO PUSH2 0x1B80 JUMPI DUP2 PUSH1 0x20 ADD JUMPDEST PUSH2 0x1B6D PUSH2 0x378C JUMP JUMPDEST DUP2 MSTORE PUSH1 0x20 ADD SWAP1 PUSH1 0x1 SWAP1 SUB SWAP1 DUP2 PUSH2 0x1B65 JUMPI SWAP1 POP JUMPDEST POP SWAP1 POP PUSH0 DUP1 JUMPDEST PUSH1 0xF SLOAD DUP2 LT ISZERO PUSH2 0xDAB JUMPI PUSH0 PUSH1 0xF DUP3 DUP2 SLOAD DUP2 LT PUSH2 0x1BA4 JUMPI PUSH2 0x1BA4 PUSH2 0x4439 JUMP JUMPDEST SWAP1 PUSH0 MSTORE PUSH1 0x20 PUSH0 KECCAK256 ADD SLOAD SWAP1 POP PUSH0 PUSH2 0x1BBA DUP8 DUP4 PUSH2 0x89C JUMP JUMPDEST SWAP1 POP DUP1 ISZERO PUSH2 0x1C3B JUMPI PUSH1 0x40 MLOAD DUP1 PUSH1 0x80 ADD PUSH1 0x40 MSTORE DUP1 DUP4 DUP2 MSTORE PUSH1 0x20 ADD DUP3 DUP2 MSTORE PUSH1 0x20 ADD PUSH2 0x1BE2 DUP5 PUSH2 0xB3E JUMP JUMPDEST DUP2 MSTORE PUSH0 DUP5 DUP2 MSTORE PUSH1 0xD PUSH1 0x20 SWAP1 DUP2 MSTORE PUSH1 0x40 SWAP2 DUP3 SWAP1 KECCAK256 DUP3 MLOAD DUP1 DUP5 ADD SWAP1 SWAP4 MSTORE DUP1 SLOAD DUP4 MSTORE PUSH1 0x1 ADD SLOAD DUP3 DUP3 ADD MSTORE SWAP1 SWAP2 ADD MSTORE DUP6 MLOAD DUP7 SWAP1 DUP7 SWAP1 DUP2 LT PUSH2 0x1C21 JUMPI PUSH2 0x1C21 PUSH2 0x4439 JUMP JUMPDEST PUSH1 0x20 MUL PUSH1 0x20 ADD ADD DUP2 SWAP1 MSTORE POP DUP4 DUP1 PUSH2 0x1C37 SWAP1 PUSH2 0x460D JUMP JUMPDEST SWAP5 POP POP JUMPDEST POP POP PUSH1 0x1 ADD PUSH2 0x1B86 JUMP JUMPDEST PUSH0 PUSH2 0x1064 DUP2 PUSH2 0x28C5 JUMP JUMPDEST PUSH1 0x60 PUSH0 DUP1 JUMPDEST PUSH1 0xF SLOAD DUP2 LT ISZERO PUSH2 0x1C92 JUMPI PUSH0 PUSH2 0x1C76 ADDRESS PUSH1 0xF DUP5 DUP2 SLOAD DUP2 LT PUSH2 0xC69 JUMPI PUSH2 0xC69 PUSH2 0x4439 JUMP JUMPDEST GT ISZERO PUSH2 0x1C8A JUMPI DUP2 PUSH2 0x1C86 DUP2 PUSH2 0x460D JUMP JUMPDEST SWAP3 POP POP JUMPDEST PUSH1 0x1 ADD PUSH2 0x1C54 JUMP JUMPDEST POP PUSH0 DUP2 PUSH1 0x1 PUSH1 0x1 PUSH1 0x40 SHL SUB DUP2 GT ISZERO PUSH2 0x1CAC JUMPI PUSH2 0x1CAC PUSH2 0x3883 JUMP JUMPDEST PUSH1 0x40 MLOAD SWAP1 DUP1 DUP3 MSTORE DUP1 PUSH1 0x20 MUL PUSH1 0x20 ADD DUP3 ADD PUSH1 0x40 MSTORE DUP1 ISZERO PUSH2 0x1CE5 JUMPI DUP2 PUSH1 0x20 ADD JUMPDEST PUSH2 0x1CD2 PUSH2 0x378C JUMP JUMPDEST DUP2 MSTORE PUSH1 0x20 ADD SWAP1 PUSH1 0x1 SWAP1 SUB SWAP1 DUP2 PUSH2 0x1CCA JUMPI SWAP1 POP JUMPDEST POP SWAP1 POP PUSH0 DUP1 JUMPDEST PUSH1 0xF SLOAD DUP2 LT ISZERO PUSH2 0x1DAA JUMPI PUSH0 PUSH1 0xF DUP3 DUP2 SLOAD DUP2 LT PUSH2 0x1D09 JUMPI PUSH2 0x1D09 PUSH2 0x4439 JUMP JUMPDEST SWAP1 PUSH0 MSTORE PUSH1 0x20 PUSH0 KECCAK256 ADD SLOAD SWAP1 POP PUSH0 PUSH2 0x1D1F ADDRESS DUP4 PUSH2 0x89C JUMP JUMPDEST SWAP1 POP DUP1 ISZERO PUSH2 0x1DA0 JUMPI PUSH1 0x40 MLOAD DUP1 PUSH1 0x80 ADD PUSH1 0x40 MSTORE DUP1 DUP4 DUP2 MSTORE PUSH1 0x20 ADD DUP3 DUP2 MSTORE PUSH1 0x20 ADD PUSH2 0x1D47 DUP5 PUSH2 0xB3E JUMP JUMPDEST DUP2 MSTORE PUSH0 DUP5 DUP2 MSTORE PUSH1 0xD PUSH1 0x20 SWAP1 DUP2 MSTORE PUSH1 0x40 SWAP2 DUP3 SWAP1 KECCAK256 DUP3 MLOAD DUP1 DUP5 ADD SWAP1 SWAP4 MSTORE DUP1 SLOAD DUP4 MSTORE PUSH1 0x1 ADD SLOAD DUP3 DUP3 ADD MSTORE SWAP1 SWAP2 ADD MSTORE DUP6 MLOAD DUP7 SWAP1 DUP7 SWAP1 DUP2 LT PUSH2 0x1D86 JUMPI PUSH2 0x1D86 PUSH2 0x4439 JUMP JUMPDEST PUSH1 0x20 MUL PUSH1 0x20 ADD ADD DUP2 SWAP1 MSTORE POP DUP4 DUP1 PUSH2 0x1D9C SWAP1 PUSH2 0x460D JUMP JUMPDEST SWAP5 POP POP JUMPDEST POP POP PUSH1 0x1 ADD PUSH2 0x1CEB JUMP JUMPDEST POP SWAP1 SWAP4 SWAP3 POP POP POP JUMP JUMPDEST PUSH1 0xE DUP2 DUP2 SLOAD DUP2 LT PUSH2 0x1DC2 JUMPI PUSH0 DUP1 REVERT JUMPDEST PUSH0 SWAP2 DUP3 MSTORE PUSH1 0x20 SWAP1 SWAP2 KECCAK256 ADD SLOAD SWAP1 POP DUP2 JUMP JUMPDEST PUSH0 DUP2 DUP2 MSTORE PUSH1 0xC PUSH1 0x20 MSTORE PUSH1 0x40 DUP2 KECCAK256 SLOAD PUSH1 0x60 SWAP2 SUB PUSH2 0x1E00 JUMPI PUSH1 0x40 MLOAD PUSH3 0x461BCD PUSH1 0xE5 SHL DUP2 MSTORE PUSH1 0x4 ADD PUSH2 0x9D7 SWAP1 PUSH2 0x479D JUMP JUMPDEST PUSH0 DUP3 DUP2 MSTORE PUSH1 0xC PUSH1 0x20 MSTORE PUSH1 0x40 SWAP1 KECCAK256 PUSH1 0x1 ADD DUP1 SLOAD PUSH2 0x1E1B SWAP1 PUSH2 0x444D JUMP JUMPDEST DUP1 PUSH1 0x1F ADD PUSH1 0x20 DUP1 SWAP2 DIV MUL PUSH1 0x20 ADD PUSH1 0x40 MLOAD SWAP1 DUP2 ADD PUSH1 0x40 MSTORE DUP1 SWAP3 SWAP2 SWAP1 DUP2 DUP2 MSTORE PUSH1 0x20 ADD DUP3 DUP1 SLOAD PUSH2 0x1E47 SWAP1 PUSH2 0x444D JUMP JUMPDEST DUP1 ISZERO PUSH2 0x1E92 JUMPI DUP1 PUSH1 0x1F LT PUSH2 0x1E69 JUMPI PUSH2 0x100 DUP1 DUP4 SLOAD DIV MUL DUP4 MSTORE SWAP2 PUSH1 0x20 ADD SWAP2 PUSH2 0x1E92 JUMP JUMPDEST DUP3 ADD SWAP2 SWAP1 PUSH0 MSTORE PUSH1 0x20 PUSH0 KECCAK256 SWAP1 JUMPDEST DUP2 SLOAD DUP2 MSTORE SWAP1 PUSH1 0x1 ADD SWAP1 PUSH1 0x20 ADD DUP1 DUP4 GT PUSH2 0x1E75 JUMPI DUP3 SWAP1 SUB PUSH1 0x1F AND DUP3 ADD SWAP2 JUMPDEST POP POP POP POP POP SWAP1 POP SWAP2 SWAP1 POP JUMP JUMPDEST PUSH0 MLOAD PUSH1 0x20 PUSH2 0x4AF4 PUSH0 CODECOPY PUSH0 MLOAD SWAP1 PUSH0 MSTORE PUSH2 0x1EB5 DUP2 PUSH2 0x28C5 JUMP JUMPDEST PUSH0 PUSH2 0x1EBF DUP4 PUSH2 0x28CF JUMP JUMPDEST SWAP1 POP PUSH0 PUSH2 0x1ECB DUP8 PUSH2 0x28CF JUMP JUMPDEST SWAP1 POP PUSH0 DUP1 JUMPDEST PUSH1 0xE SLOAD DUP2 LT ISZERO PUSH2 0x1F69 JUMPI DUP4 DUP1 MLOAD SWAP1 PUSH1 0x20 ADD KECCAK256 PUSH1 0xC PUSH0 PUSH1 0xE DUP5 DUP2 SLOAD DUP2 LT PUSH2 0x1EF8 JUMPI PUSH2 0x1EF8 PUSH2 0x4439 JUMP JUMPDEST SWAP1 PUSH0 MSTORE PUSH1 0x20 PUSH0 KECCAK256 ADD SLOAD DUP2 MSTORE PUSH1 0x20 ADD SWAP1 DUP2 MSTORE PUSH1 0x20 ADD PUSH0 KECCAK256 PUSH1 0x1 ADD PUSH1 0x40 MLOAD PUSH2 0x1F1E SWAP2 SWAP1 PUSH2 0x44ED JUMP JUMPDEST PUSH1 0x40 MLOAD DUP1 SWAP2 SUB SWAP1 KECCAK256 SUB PUSH2 0x1F61 JUMPI PUSH1 0xC PUSH0 PUSH1 0xE DUP4 DUP2 SLOAD DUP2 LT PUSH2 0x1F41 JUMPI PUSH2 0x1F41 PUSH2 0x4439 JUMP JUMPDEST SWAP1 PUSH0 MSTORE PUSH1 0x20 PUSH0 KECCAK256 ADD SLOAD DUP2 MSTORE PUSH1 0x20 ADD SWAP1 DUP2 MSTORE PUSH1 0x20 ADD PUSH0 KECCAK256 PUSH0 ADD SLOAD SWAP2 POP PUSH2 0x1F69 JUMP JUMPDEST PUSH1 0x1 ADD PUSH2 0x1ED0 JUMP JUMPDEST POP DUP1 PUSH0 SUB PUSH2 0x1FD8 JUMPI PUSH1 0x40 MLOAD PUSH3 0x461BCD PUSH1 0xE5 SHL DUP2 MSTORE PUSH1 0x20 PUSH1 0x4 DUP3 ADD MSTORE PUSH1 0x36 PUSH1 0x24 DUP3 ADD MSTORE PUSH32 0x53686172656431313535546F6B656E3A20436F6C6C656374696F6E2077697468 PUSH1 0x44 DUP3 ADD MSTORE PUSH22 0x81CDD59999A5E08191BD95CC81B9BDD08195E1A5CDD PUSH1 0x52 SHL PUSH1 0x64 DUP3 ADD MSTORE PUSH1 0x84 ADD PUSH2 0x9D7 JUMP JUMPDEST PUSH2 0x1FE6 PUSH1 0x9 DUP1 SLOAD PUSH1 0x1 ADD SWAP1 SSTORE JUMP JUMPDEST PUSH0 PUSH2 0x1FF0 PUSH1 0x9 SLOAD SWAP1 JUMP JUMPDEST SWAP1 POP PUSH2 0x200C ADDRESS DUP3 DUP11 PUSH1 0x40 MLOAD DUP1 PUSH1 0x20 ADD PUSH1 0x40 MSTORE DUP1 PUSH0 DUP2 MSTORE POP PUSH2 0x2D6F JUMP JUMPDEST PUSH2 0x2016 DUP2 DUP5 PUSH2 0x2AFE JUMP JUMPDEST PUSH0 DUP2 DUP2 MSTORE PUSH1 0xD PUSH1 0x20 SWAP1 DUP2 MSTORE PUSH1 0x40 DUP1 DUP4 KECCAK256 DUP11 DUP2 SSTORE PUSH1 0x1 DUP1 DUP3 ADD DUP8 SWAP1 SSTORE PUSH1 0xF DUP1 SLOAD SWAP2 DUP3 ADD DUP2 SSTORE SWAP1 SWAP5 MSTORE PUSH32 0x8D1108E10BCB7C27DDDFC02ED9D693A074039D026CF4EA4240B40F7D581AC802 SWAP1 SWAP4 ADD DUP5 SWAP1 SSTORE DUP1 MLOAD DUP5 DUP2 MSTORE SWAP2 DUP3 ADD DUP11 SWAP1 MSTORE DUP2 ADD DUP11 SWAP1 MSTORE ADDRESS SWAP1 PUSH32 0xAFDE70C98492A2CA81A3E5545BED44EFEB0747A64B5E63A918DF2E9D8E83EF35 SWAP1 PUSH1 0x60 ADD PUSH1 0x40 MLOAD DUP1 SWAP2 SUB SWAP1 LOG2 POP POP POP POP POP POP POP POP POP POP JUMP JUMPDEST PUSH1 0xF SLOAD PUSH1 0x60 SWAP1 PUSH0 SWAP1 PUSH1 0x1 PUSH1 0x1 PUSH1 0x40 SHL SUB DUP2 GT ISZERO PUSH2 0x20CE JUMPI PUSH2 0x20CE PUSH2 0x3883 JUMP JUMPDEST PUSH1 0x40 MLOAD SWAP1 DUP1 DUP3 MSTORE DUP1 PUSH1 0x20 MUL PUSH1 0x20 ADD DUP3 ADD PUSH1 0x40 MSTORE DUP1 ISZERO PUSH2 0x2112 JUMPI DUP2 PUSH1 0x20 ADD JUMPDEST PUSH1 0x40 DUP1 MLOAD DUP1 DUP3 ADD SWAP1 SWAP2 MSTORE PUSH0 DUP1 DUP3 MSTORE PUSH1 0x20 DUP3 ADD MSTORE DUP2 MSTORE PUSH1 0x20 ADD SWAP1 PUSH1 0x1 SWAP1 SUB SWAP1 DUP2 PUSH2 0x20EC JUMPI SWAP1 POP JUMPDEST POP SWAP1 POP PUSH0 JUMPDEST PUSH1 0xF SLOAD DUP2 LT ISZERO PUSH2 0x1540 JUMPI PUSH1 0xD PUSH0 PUSH1 0xF DUP4 DUP2 SLOAD DUP2 LT PUSH2 0x2137 JUMPI PUSH2 0x2137 PUSH2 0x4439 JUMP JUMPDEST SWAP1 PUSH0 MSTORE PUSH1 0x20 PUSH0 KECCAK256 ADD SLOAD DUP2 MSTORE PUSH1 0x20 ADD SWAP1 DUP2 MSTORE PUSH1 0x20 ADD PUSH0 KECCAK256 PUSH1 0x40 MLOAD DUP1 PUSH1 0x40 ADD PUSH1 0x40 MSTORE SWAP1 DUP2 PUSH0 DUP3 ADD SLOAD DUP2 MSTORE PUSH1 0x20 ADD PUSH1 0x1 DUP3 ADD SLOAD DUP2 MSTORE POP POP DUP3 DUP3 DUP2 MLOAD DUP2 LT PUSH2 0x217D JUMPI PUSH2 0x217D PUSH2 0x4439 JUMP JUMPDEST PUSH1 0x20 SWAP1 DUP2 MUL SWAP2 SWAP1 SWAP2 ADD ADD MSTORE PUSH1 0x1 ADD PUSH2 0x2117 JUMP JUMPDEST PUSH0 DUP3 DUP2 MSTORE PUSH1 0x20 DUP2 SWAP1 MSTORE PUSH1 0x40 SWAP1 KECCAK256 PUSH1 0x1 ADD SLOAD PUSH2 0x21AA DUP2 PUSH2 0x28C5 JUMP JUMPDEST PUSH2 0x106E DUP4 DUP4 PUSH2 0x2C71 JUMP JUMPDEST PUSH1 0xF DUP2 DUP2 SLOAD DUP2 LT PUSH2 0x1DC2 JUMPI PUSH0 DUP1 REVERT JUMPDEST PUSH1 0x60 PUSH1 0x10 DUP1 SLOAD DUP1 PUSH1 0x20 MUL PUSH1 0x20 ADD PUSH1 0x40 MLOAD SWAP1 DUP2 ADD PUSH1 0x40 MSTORE DUP1 SWAP3 SWAP2 SWAP1 DUP2 DUP2 MSTORE PUSH1 0x20 ADD PUSH0 SWAP1 JUMPDEST DUP3 DUP3 LT ISZERO PUSH2 0x228E JUMPI DUP4 DUP3 SWAP1 PUSH0 MSTORE PUSH1 0x20 PUSH0 KECCAK256 ADD DUP1 SLOAD PUSH2 0x2203 SWAP1 PUSH2 0x444D JUMP JUMPDEST DUP1 PUSH1 0x1F ADD PUSH1 0x20 DUP1 SWAP2 DIV MUL PUSH1 0x20 ADD PUSH1 0x40 MLOAD SWAP1 DUP2 ADD PUSH1 0x40 MSTORE DUP1 SWAP3 SWAP2 SWAP1 DUP2 DUP2 MSTORE PUSH1 0x20 ADD DUP3 DUP1 SLOAD PUSH2 0x222F SWAP1 PUSH2 0x444D JUMP JUMPDEST DUP1 ISZERO PUSH2 0x227A JUMPI DUP1 PUSH1 0x1F LT PUSH2 0x2251 JUMPI PUSH2 0x100 DUP1 DUP4 SLOAD DIV MUL DUP4 MSTORE SWAP2 PUSH1 0x20 ADD SWAP2 PUSH2 0x227A JUMP JUMPDEST DUP3 ADD SWAP2 SWAP1 PUSH0 MSTORE PUSH1 0x20 PUSH0 KECCAK256 SWAP1 JUMPDEST DUP2 SLOAD DUP2 MSTORE SWAP1 PUSH1 0x1 ADD SWAP1 PUSH1 0x20 ADD DUP1 DUP4 GT PUSH2 0x225D JUMPI DUP3 SWAP1 SUB PUSH1 0x1F AND DUP3 ADD SWAP2 JUMPDEST POP POP POP POP POP DUP2 MSTORE PUSH1 0x20 ADD SWAP1 PUSH1 0x1 ADD SWAP1 PUSH2 0x21E6 JUMP JUMPDEST POP POP POP POP SWAP1 POP SWAP1 JUMP JUMPDEST PUSH1 0x11 PUSH1 0x20 MSTORE DUP2 PUSH0 MSTORE PUSH1 0x40 PUSH0 KECCAK256 DUP2 DUP2 SLOAD DUP2 LT PUSH2 0x22B0 JUMPI PUSH0 DUP1 REVERT JUMPDEST PUSH0 SWAP2 DUP3 MSTORE PUSH1 0x20 SWAP1 SWAP2 KECCAK256 PUSH1 0x4 SWAP1 SWAP2 MUL ADD DUP1 SLOAD PUSH1 0x1 DUP3 ADD SLOAD PUSH1 0x2 DUP4 ADD SLOAD PUSH1 0x3 SWAP1 SWAP4 ADD SLOAD PUSH1 0x1 PUSH1 0x1 PUSH1 0xA0 SHL SUB SWAP3 DUP4 AND SWAP6 POP SWAP2 AND SWAP3 POP DUP5 JUMP JUMPDEST PUSH1 0x40 DUP1 MLOAD DUP1 DUP3 ADD SWAP1 SWAP2 MSTORE PUSH0 DUP1 DUP3 MSTORE PUSH1 0x20 DUP3 ADD MSTORE PUSH0 DUP3 DUP2 MSTORE PUSH1 0x7 PUSH1 0x20 MSTORE PUSH1 0x40 DUP2 KECCAK256 SLOAD GT PUSH2 0x2323 JUMPI PUSH1 0x40 MLOAD PUSH3 0x461BCD PUSH1 0xE5 SHL DUP2 MSTORE PUSH1 0x4 ADD PUSH2 0x9D7 SWAP1 PUSH2 0x480E JUMP JUMPDEST POP PUSH0 SWAP1 DUP2 MSTORE PUSH1 0xD PUSH1 0x20 SWAP1 DUP2 MSTORE PUSH1 0x40 SWAP2 DUP3 SWAP1 KECCAK256 DUP3 MLOAD DUP1 DUP5 ADD SWAP1 SWAP4 MSTORE DUP1 SLOAD DUP4 MSTORE PUSH1 0x1 ADD SLOAD SWAP1 DUP3 ADD MSTORE SWAP1 JUMP JUMPDEST PUSH1 0x1 PUSH1 0x1 PUSH1 0xA0 SHL SUB DUP4 AND PUSH2 0x2372 JUMPI PUSH1 0x40 MLOAD PUSH3 0x461BCD PUSH1 0xE5 SHL DUP2 MSTORE PUSH1 0x4 ADD PUSH2 0x9D7 SWAP1 PUSH2 0x4625 JUMP JUMPDEST PUSH0 DUP3 GT PUSH2 0x2391 JUMPI PUSH1 0x40 MLOAD PUSH3 0x461BCD PUSH1 0xE5 SHL DUP2 MSTORE PUSH1 0x4 ADD PUSH2 0x9D7 SWAP1 PUSH2 0x466F JUMP JUMPDEST PUSH1 0x40 MLOAD PUSH4 0x70A08231 PUSH1 0xE0 SHL DUP2 MSTORE CALLER PUSH1 0x4 DUP3 ADD MSTORE DUP5 SWAP1 DUP4 SWAP1 PUSH1 0x1 PUSH1 0x1 PUSH1 0xA0 SHL SUB DUP4 AND SWAP1 PUSH4 0x70A08231 SWAP1 PUSH1 0x24 ADD PUSH1 0x20 PUSH1 0x40 MLOAD DUP1 DUP4 SUB DUP2 DUP7 GAS STATICCALL ISZERO DUP1 ISZERO PUSH2 0x23D7 JUMPI RETURNDATASIZE PUSH0 PUSH0 RETURNDATACOPY RETURNDATASIZE PUSH0 REVERT JUMPDEST POP POP POP POP PUSH1 0x40 MLOAD RETURNDATASIZE PUSH1 0x1F NOT PUSH1 0x1F DUP3 ADD AND DUP3 ADD DUP1 PUSH1 0x40 MSTORE POP DUP2 ADD SWAP1 PUSH2 0x23FB SWAP2 SWAP1 PUSH2 0x46CC JUMP JUMPDEST LT ISZERO PUSH2 0x245D JUMPI PUSH1 0x40 MLOAD PUSH3 0x461BCD PUSH1 0xE5 SHL DUP2 MSTORE PUSH1 0x20 PUSH1 0x4 DUP3 ADD MSTORE PUSH1 0x2B PUSH1 0x24 DUP3 ADD MSTORE PUSH32 0x53686172656431313535546F6B656E3A20496E73756666696369656E74204552 PUSH1 0x44 DUP3 ADD MSTORE PUSH11 0x4332302062616C616E6365 PUSH1 0xA8 SHL PUSH1 0x64 DUP3 ADD MSTORE PUSH1 0x84 ADD PUSH2 0x9D7 JUMP JUMPDEST PUSH1 0x40 MLOAD PUSH4 0x6EB1769F PUSH1 0xE1 SHL DUP2 MSTORE CALLER PUSH1 0x4 DUP3 ADD MSTORE ADDRESS PUSH1 0x24 DUP3 ADD MSTORE DUP4 SWAP1 PUSH1 0x1 PUSH1 0x1 PUSH1 0xA0 SHL SUB DUP4 AND SWAP1 PUSH4 0xDD62ED3E SWAP1 PUSH1 0x44 ADD PUSH1 0x20 PUSH1 0x40 MLOAD DUP1 DUP4 SUB DUP2 DUP7 GAS STATICCALL ISZERO DUP1 ISZERO PUSH2 0x24A7 JUMPI RETURNDATASIZE PUSH0 PUSH0 RETURNDATACOPY RETURNDATASIZE PUSH0 REVERT JUMPDEST POP POP POP POP PUSH1 0x40 MLOAD RETURNDATASIZE PUSH1 0x1F NOT PUSH1 0x1F DUP3 ADD AND DUP3 ADD DUP1 PUSH1 0x40 MSTORE POP DUP2 ADD SWAP1 PUSH2 0x24CB SWAP2 SWAP1 PUSH2 0x46CC JUMP JUMPDEST LT ISZERO PUSH2 0x252F JUMPI PUSH1 0x40 MLOAD PUSH3 0x461BCD PUSH1 0xE5 SHL DUP2 MSTORE PUSH1 0x20 PUSH1 0x4 DUP3 ADD MSTORE PUSH1 0x2D PUSH1 0x24 DUP3 ADD MSTORE PUSH32 0x53686172656431313535546F6B656E3A20496E73756666696369656E74204552 PUSH1 0x44 DUP3 ADD MSTORE PUSH13 0x43323020616C6C6F77616E6365 PUSH1 0x98 SHL PUSH1 0x64 DUP3 ADD MSTORE PUSH1 0x84 ADD PUSH2 0x9D7 JUMP JUMPDEST PUSH1 0x40 MLOAD PUSH4 0x23B872DD PUSH1 0xE0 SHL DUP2 MSTORE CALLER PUSH1 0x4 DUP3 ADD MSTORE PUSH1 0x1 PUSH1 0x1 PUSH1 0xA0 SHL SUB DUP6 DUP2 AND PUSH1 0x24 DUP4 ADD MSTORE PUSH1 0x44 DUP3 ADD DUP6 SWAP1 MSTORE DUP3 AND SWAP1 PUSH4 0x23B872DD SWAP1 PUSH1 0x64 ADD PUSH1 0x20 PUSH1 0x40 MLOAD DUP1 DUP4 SUB DUP2 PUSH0 DUP8 GAS CALL ISZERO DUP1 ISZERO PUSH2 0x2581 JUMPI RETURNDATASIZE PUSH0 PUSH0 RETURNDATACOPY RETURNDATASIZE PUSH0 REVERT JUMPDEST POP POP POP POP PUSH1 0x40 MLOAD RETURNDATASIZE PUSH1 0x1F NOT PUSH1 0x1F DUP3 ADD AND DUP3 ADD DUP1 PUSH1 0x40 MSTORE POP DUP2 ADD SWAP1 PUSH2 0x25A5 SWAP2 SWAP1 PUSH2 0x46E3 JUMP JUMPDEST POP PUSH0 PUSH2 0x25B0 DUP4 PUSH2 0x28CF JUMP JUMPDEST SWAP1 POP PUSH0 DUP1 JUMPDEST PUSH1 0xF SLOAD DUP2 LT ISZERO PUSH2 0x2614 JUMPI DUP3 DUP1 MLOAD SWAP1 PUSH1 0x20 ADD KECCAK256 PUSH2 0x25DD PUSH1 0xF DUP4 DUP2 SLOAD DUP2 LT PUSH2 0x1121 JUMPI PUSH2 0x1121 PUSH2 0x4439 JUMP JUMPDEST DUP1 MLOAD SWAP1 PUSH1 0x20 ADD KECCAK256 SUB PUSH2 0x260C JUMPI PUSH1 0xF DUP2 DUP2 SLOAD DUP2 LT PUSH2 0x25FC JUMPI PUSH2 0x25FC PUSH2 0x4439 JUMP JUMPDEST SWAP1 PUSH0 MSTORE PUSH1 0x20 PUSH0 KECCAK256 ADD SLOAD SWAP2 POP PUSH2 0x2614 JUMP JUMPDEST PUSH1 0x1 ADD PUSH2 0x25B5 JUMP JUMPDEST POP DUP1 PUSH0 SUB PUSH2 0x2634 JUMPI PUSH1 0x40 MLOAD PUSH3 0x461BCD PUSH1 0xE5 SHL DUP2 MSTORE PUSH1 0x4 ADD PUSH2 0x9D7 SWAP1 PUSH2 0x46FE JUMP JUMPDEST PUSH1 0x1 PUSH2 0x2640 ADDRESS DUP4 PUSH2 0x89C JUMP JUMPDEST LT ISZERO PUSH2 0x265E JUMPI PUSH1 0x40 MLOAD PUSH3 0x461BCD PUSH1 0xE5 SHL DUP2 MSTORE PUSH1 0x4 ADD PUSH2 0x9D7 SWAP1 PUSH2 0x4754 JUMP JUMPDEST PUSH2 0x267A ADDRESS CALLER DUP4 PUSH1 0x1 PUSH1 0x40 MLOAD DUP1 PUSH1 0x20 ADD PUSH1 0x40 MSTORE DUP1 PUSH0 DUP2 MSTORE POP PUSH2 0x26B0 JUMP JUMPDEST POP POP POP POP POP POP POP JUMP JUMPDEST PUSH1 0x1 PUSH1 0x1 PUSH1 0xA0 SHL SUB SWAP2 DUP3 AND PUSH0 SWAP1 DUP2 MSTORE PUSH1 0x3 PUSH1 0x20 SWAP1 DUP2 MSTORE PUSH1 0x40 DUP1 DUP4 KECCAK256 SWAP4 SWAP1 SWAP5 AND DUP3 MSTORE SWAP2 SWAP1 SWAP2 MSTORE KECCAK256 SLOAD PUSH1 0xFF AND SWAP1 JUMP JUMPDEST CALLER PUSH1 0x1 PUSH1 0x1 PUSH1 0xA0 SHL SUB DUP7 AND DUP2 EQ DUP1 ISZERO SWAP1 PUSH2 0x26D1 JUMPI POP PUSH2 0x26CF DUP7 DUP3 PUSH2 0x2683 JUMP JUMPDEST ISZERO JUMPDEST ISZERO PUSH2 0x2702 JUMPI PUSH1 0x40 MLOAD PUSH4 0x711BEC91 PUSH1 0xE1 SHL DUP2 MSTORE PUSH1 0x1 PUSH1 0x1 PUSH1 0xA0 SHL SUB DUP1 DUP4 AND PUSH1 0x4 DUP4 ADD MSTORE DUP8 AND PUSH1 0x24 DUP3 ADD MSTORE PUSH1 0x44 ADD PUSH2 0x9D7 JUMP JUMPDEST PUSH2 0x1042 DUP7 DUP7 DUP7 DUP7 DUP7 PUSH2 0x2E99 JUMP JUMPDEST PUSH1 0x1 PUSH1 0x1 PUSH1 0xA0 SHL SUB DUP4 AND CALLER EQ DUP1 ISZERO SWAP1 PUSH2 0x272F JUMPI POP PUSH2 0x272D DUP4 CALLER PUSH2 0x2683 JUMP JUMPDEST ISZERO JUMPDEST ISZERO PUSH2 0x273A JUMPI CALLER PUSH2 0x156D JUMP JUMPDEST PUSH2 0xBD6 DUP4 DUP4 DUP4 PUSH2 0x2F1C JUMP JUMPDEST PUSH0 PUSH2 0x274F DUP2 PUSH2 0x28C5 JUMP JUMPDEST PUSH0 DUP3 MLOAD GT PUSH2 0x276F JUMPI PUSH1 0x40 MLOAD PUSH3 0x461BCD PUSH1 0xE5 SHL DUP2 MSTORE PUSH1 0x4 ADD PUSH2 0x9D7 SWAP1 PUSH2 0x4850 JUMP JUMPDEST PUSH1 0x10 DUP1 SLOAD PUSH1 0x1 DUP2 ADD DUP3 SSTORE PUSH0 SWAP2 SWAP1 SWAP2 MSTORE PUSH32 0x1B6847DC741A1B0CD08D278845F9D819D87B734759AFB55FE2DE5CB82A9AE672 ADD PUSH2 0x27AA DUP4 DUP3 PUSH2 0x453C JUMP JUMPDEST POP CALLER PUSH1 0x1 PUSH1 0x1 PUSH1 0xA0 SHL SUB AND PUSH32 0x4B33DAFB50DAC5530C30ACA4E4069FD67A18220888B874B8519558D1769D49A1 DUP4 PUSH1 0x40 MLOAD PUSH2 0x1AD2 SWAP2 SWAP1 PUSH2 0x39A0 JUMP JUMPDEST PUSH1 0xC PUSH1 0x20 MSTORE PUSH0 SWAP1 DUP2 MSTORE PUSH1 0x40 SWAP1 KECCAK256 DUP1 SLOAD PUSH1 0x1 DUP3 ADD DUP1 SLOAD SWAP2 SWAP3 SWAP2 PUSH2 0x2805 SWAP1 PUSH2 0x444D JUMP JUMPDEST DUP1 PUSH1 0x1F ADD PUSH1 0x20 DUP1 SWAP2 DIV MUL PUSH1 0x20 ADD PUSH1 0x40 MLOAD SWAP1 DUP2 ADD PUSH1 0x40 MSTORE DUP1 SWAP3 SWAP2 SWAP1 DUP2 DUP2 MSTORE PUSH1 0x20 ADD DUP3 DUP1 SLOAD PUSH2 0x2831 SWAP1 PUSH2 0x444D JUMP JUMPDEST DUP1 ISZERO PUSH2 0x287C JUMPI DUP1 PUSH1 0x1F LT PUSH2 0x2853 JUMPI PUSH2 0x100 DUP1 DUP4 SLOAD DIV MUL DUP4 MSTORE SWAP2 PUSH1 0x20 ADD SWAP2 PUSH2 0x287C JUMP JUMPDEST DUP3 ADD SWAP2 SWAP1 PUSH0 MSTORE PUSH1 0x20 PUSH0 KECCAK256 SWAP1 JUMPDEST DUP2 SLOAD DUP2 MSTORE SWAP1 PUSH1 0x1 ADD SWAP1 PUSH1 0x20 ADD DUP1 DUP4 GT PUSH2 0x285F JUMPI DUP3 SWAP1 SUB PUSH1 0x1F AND DUP3 ADD SWAP2 JUMPDEST POP POP POP POP POP SWAP1 POP DUP3 JUMP JUMPDEST PUSH0 PUSH1 0x1 PUSH1 0x1 PUSH1 0xE0 SHL SUB NOT DUP3 AND PUSH4 0x6CDB3D13 PUSH1 0xE1 SHL EQ DUP1 PUSH2 0x28B6 JUMPI POP PUSH1 0x1 PUSH1 0x1 PUSH1 0xE0 SHL SUB NOT DUP3 AND PUSH4 0x3A24D07 PUSH1 0xE2 SHL EQ JUMPDEST DUP1 PUSH2 0x8BF JUMPI POP PUSH2 0x8BF DUP3 PUSH2 0x2F82 JUMP JUMPDEST PUSH2 0x120F DUP2 CALLER PUSH2 0x2FB6 JUMP JUMPDEST PUSH1 0x60 PUSH1 0x2 DUP3 MLOAD LT ISZERO DUP1 ISZERO PUSH2 0x2907 JUMPI POP DUP2 PUSH0 DUP2 MLOAD DUP2 LT PUSH2 0x28F0 JUMPI PUSH2 0x28F0 PUSH2 0x4439 JUMP JUMPDEST PUSH1 0x20 SWAP2 ADD ADD MLOAD PUSH1 0x1 PUSH1 0x1 PUSH1 0xF8 SHL SUB NOT AND PUSH1 0x3 PUSH1 0xFC SHL EQ JUMPDEST DUP1 ISZERO PUSH2 0x2938 JUMPI POP DUP2 PUSH1 0x1 DUP2 MLOAD DUP2 LT PUSH2 0x2921 JUMPI PUSH2 0x2921 PUSH2 0x4439 JUMP JUMPDEST PUSH1 0x20 SWAP2 ADD ADD MLOAD PUSH1 0x1 PUSH1 0x1 PUSH1 0xF8 SHL SUB NOT AND PUSH1 0xF PUSH1 0xFB SHL EQ JUMPDEST ISZERO PUSH2 0x2A1E JUMPI DUP2 MLOAD DUP3 SWAP1 PUSH0 SWAP1 PUSH2 0x294F SWAP1 PUSH1 0x2 SWAP1 PUSH2 0x47E7 JUMP JUMPDEST PUSH1 0x1 PUSH1 0x1 PUSH1 0x40 SHL SUB DUP2 GT ISZERO PUSH2 0x2966 JUMPI PUSH2 0x2966 PUSH2 0x3883 JUMP JUMPDEST PUSH1 0x40 MLOAD SWAP1 DUP1 DUP3 MSTORE DUP1 PUSH1 0x1F ADD PUSH1 0x1F NOT AND PUSH1 0x20 ADD DUP3 ADD PUSH1 0x40 MSTORE DUP1 ISZERO PUSH2 0x2990 JUMPI PUSH1 0x20 DUP3 ADD DUP2 DUP1 CALLDATASIZE DUP4 CALLDATACOPY ADD SWAP1 POP JUMPDEST POP SWAP1 POP PUSH0 JUMPDEST PUSH1 0x2 DUP4 MLOAD PUSH2 0x29A3 SWAP2 SWAP1 PUSH2 0x47E7 JUMP JUMPDEST DUP2 LT ISZERO PUSH2 0x2A01 JUMPI DUP3 PUSH2 0x29B6 DUP3 PUSH1 0x2 PUSH2 0x4961 JUMP JUMPDEST DUP2 MLOAD DUP2 LT PUSH2 0x29C6 JUMPI PUSH2 0x29C6 PUSH2 0x4439 JUMP JUMPDEST PUSH1 0x20 ADD ADD MLOAD PUSH1 0xF8 SHR PUSH1 0xF8 SHL DUP3 DUP3 DUP2 MLOAD DUP2 LT PUSH2 0x29E3 JUMPI PUSH2 0x29E3 PUSH2 0x4439 JUMP JUMPDEST PUSH1 0x20 ADD ADD SWAP1 PUSH1 0x1 PUSH1 0x1 PUSH1 0xF8 SHL SUB NOT AND SWAP1 DUP2 PUSH0 BYTE SWAP1 MSTORE8 POP PUSH1 0x1 ADD PUSH2 0x2995 JUMP JUMPDEST POP DUP1 DUP1 PUSH1 0x20 ADD SWAP1 MLOAD DUP2 ADD SWAP1 PUSH2 0x2A16 SWAP2 SWAP1 PUSH2 0x4974 JUMP JUMPDEST SWAP5 SWAP4 POP POP POP POP JUMP JUMPDEST POP SWAP1 JUMP JUMPDEST PUSH0 DUP2 DUP2 MSTORE PUSH1 0x6 PUSH1 0x20 MSTORE PUSH1 0x40 DUP2 KECCAK256 DUP1 SLOAD PUSH1 0x60 SWAP3 SWAP2 SWAP1 PUSH2 0x2A3F SWAP1 PUSH2 0x444D JUMP JUMPDEST DUP1 PUSH1 0x1F ADD PUSH1 0x20 DUP1 SWAP2 DIV MUL PUSH1 0x20 ADD PUSH1 0x40 MLOAD SWAP1 DUP2 ADD PUSH1 0x40 MSTORE DUP1 SWAP3 SWAP2 SWAP1 DUP2 DUP2 MSTORE PUSH1 0x20 ADD DUP3 DUP1 SLOAD PUSH2 0x2A6B SWAP1 PUSH2 0x444D JUMP JUMPDEST DUP1 ISZERO PUSH2 0x2AB6 JUMPI DUP1 PUSH1 0x1F LT PUSH2 0x2A8D JUMPI PUSH2 0x100 DUP1 DUP4 SLOAD DIV MUL DUP4 MSTORE SWAP2 PUSH1 0x20 ADD SWAP2 PUSH2 0x2AB6 JUMP JUMPDEST DUP3 ADD SWAP2 SWAP1 PUSH0 MSTORE PUSH1 0x20 PUSH0 KECCAK256 SWAP1 JUMPDEST DUP2 SLOAD DUP2 MSTORE SWAP1 PUSH1 0x1 ADD SWAP1 PUSH1 0x20 ADD DUP1 DUP4 GT PUSH2 0x2A99 JUMPI DUP3 SWAP1 SUB PUSH1 0x1F AND DUP3 ADD SWAP2 JUMPDEST POP POP POP POP POP SWAP1 POP PUSH0 DUP2 MLOAD GT PUSH2 0x2AD3 JUMPI PUSH2 0x2ACE DUP4 PUSH2 0x2FEF JUMP JUMPDEST PUSH2 0x2AF7 JUMP JUMPDEST PUSH1 0x5 DUP2 PUSH1 0x40 MLOAD PUSH1 0x20 ADD PUSH2 0x2AE7 SWAP3 SWAP2 SWAP1 PUSH2 0x49E8 JUMP JUMPDEST PUSH1 0x40 MLOAD PUSH1 0x20 DUP2 DUP4 SUB SUB DUP2 MSTORE SWAP1 PUSH1 0x40 MSTORE JUMPDEST SWAP4 SWAP3 POP POP POP JUMP JUMPDEST PUSH0 DUP3 DUP2 MSTORE PUSH1 0x6 PUSH1 0x20 MSTORE PUSH1 0x40 SWAP1 KECCAK256 PUSH2 0x2B15 DUP3 DUP3 PUSH2 0x453C JUMP JUMPDEST POP DUP2 PUSH32 0x6BB7FF708619BA0610CBA295A58592E0451DEE2622938C8755667688DAF3529B PUSH2 0x2B41 DUP5 PUSH2 0xB3E JUMP JUMPDEST PUSH1 0x40 MLOAD PUSH2 0x1AD2 SWAP2 SWAP1 PUSH2 0x39A0 JUMP JUMPDEST PUSH1 0x1 PUSH1 0x1 PUSH1 0xA0 SHL SUB DUP5 AND PUSH2 0x2B77 JUMPI PUSH1 0x40 MLOAD PUSH4 0x2BFA23E7 PUSH1 0xE1 SHL DUP2 MSTORE PUSH0 PUSH1 0x4 DUP3 ADD MSTORE PUSH1 0x24 ADD PUSH2 0x9D7 JUMP JUMPDEST PUSH2 0x106E PUSH0 DUP6 DUP6 DUP6 DUP6 PUSH2 0x2FFE JUMP JUMPDEST PUSH1 0x1 PUSH1 0x1 PUSH1 0xA0 SHL SUB DUP5 AND PUSH2 0x2BAD JUMPI PUSH1 0x40 MLOAD PUSH4 0x2BFA23E7 PUSH1 0xE1 SHL DUP2 MSTORE PUSH0 PUSH1 0x4 DUP3 ADD MSTORE PUSH1 0x24 ADD PUSH2 0x9D7 JUMP JUMPDEST PUSH1 0x1 PUSH1 0x1 PUSH1 0xA0 SHL SUB DUP6 AND PUSH2 0x2BD5 JUMPI PUSH1 0x40 MLOAD PUSH3 0x6A0D45 PUSH1 0xE2 SHL DUP2 MSTORE PUSH0 PUSH1 0x4 DUP3 ADD MSTORE PUSH1 0x24 ADD PUSH2 0x9D7 JUMP JUMPDEST PUSH2 0xDD8 DUP6 DUP6 DUP6 DUP6 DUP6 PUSH2 0x2FFE JUMP JUMPDEST PUSH0 PUSH2 0x2BED DUP4 DUP4 PUSH2 0x1874 JUMP JUMPDEST PUSH2 0x2C6A JUMPI PUSH0 DUP4 DUP2 MSTORE PUSH1 0x20 DUP2 DUP2 MSTORE PUSH1 0x40 DUP1 DUP4 KECCAK256 PUSH1 0x1 PUSH1 0x1 PUSH1 0xA0 SHL SUB DUP7 AND DUP5 MSTORE SWAP1 SWAP2 MSTORE SWAP1 KECCAK256 DUP1 SLOAD PUSH1 0xFF NOT AND PUSH1 0x1 OR SWAP1 SSTORE PUSH2 0x2C22 CALLER SWAP1 JUMP JUMPDEST PUSH1 0x1 PUSH1 0x1 PUSH1 0xA0 SHL SUB AND DUP3 PUSH1 0x1 PUSH1 0x1 PUSH1 0xA0 SHL SUB AND DUP5 PUSH32 0x2F8788117E7EFF1D82E926EC794901D17C78024A50270940304540A733656F0D PUSH1 0x40 MLOAD PUSH1 0x40 MLOAD DUP1 SWAP2 SUB SWAP1 LOG4 POP PUSH1 0x1 PUSH2 0x8BF JUMP JUMPDEST POP PUSH0 PUSH2 0x8BF JUMP JUMPDEST PUSH0 PUSH2 0x2C7C DUP4 DUP4 PUSH2 0x1874 JUMP JUMPDEST ISZERO PUSH2 0x2C6A JUMPI PUSH0 DUP4 DUP2 MSTORE PUSH1 0x20 DUP2 DUP2 MSTORE PUSH1 0x40 DUP1 DUP4 KECCAK256 PUSH1 0x1 PUSH1 0x1 PUSH1 0xA0 SHL SUB DUP7 AND DUP1 DUP6 MSTORE SWAP3 MSTORE DUP1 DUP4 KECCAK256 DUP1 SLOAD PUSH1 0xFF NOT AND SWAP1 SSTORE MLOAD CALLER SWAP3 DUP7 SWAP2 PUSH32 0xF6391F5C32D9C69D2A47EA670B442974B53935D1EDC7FD64EB21E047A839171B SWAP2 SWAP1 LOG4 POP PUSH1 0x1 PUSH2 0x8BF JUMP JUMPDEST PUSH2 0x2CE2 PUSH2 0x3051 JUMP JUMPDEST PUSH1 0x1 DUP1 SLOAD PUSH1 0xFF NOT AND SWAP1 SSTORE PUSH32 0x5DB9EE0A495BF2E6FF9C91A7834C1BA4FDD244A5E8AA4E537BD38AEAE4B073AA CALLER JUMPDEST PUSH1 0x40 MLOAD PUSH1 0x1 PUSH1 0x1 PUSH1 0xA0 SHL SUB SWAP1 SWAP2 AND DUP2 MSTORE PUSH1 0x20 ADD PUSH1 0x40 MLOAD DUP1 SWAP2 SUB SWAP1 LOG1 JUMP JUMPDEST PUSH1 0x1 PUSH1 0x1 PUSH1 0xA0 SHL SUB DUP4 AND PUSH2 0x2D54 JUMPI PUSH1 0x40 MLOAD PUSH3 0x6A0D45 PUSH1 0xE2 SHL DUP2 MSTORE PUSH0 PUSH1 0x4 DUP3 ADD MSTORE PUSH1 0x24 ADD PUSH2 0x9D7 JUMP JUMPDEST PUSH2 0xBD6 DUP4 PUSH0 DUP5 DUP5 PUSH1 0x40 MLOAD DUP1 PUSH1 0x20 ADD PUSH1 0x40 MSTORE DUP1 PUSH0 DUP2 MSTORE POP PUSH2 0x2FFE JUMP JUMPDEST PUSH1 0x1 PUSH1 0x1 PUSH1 0xA0 SHL SUB DUP5 AND PUSH2 0x2D98 JUMPI PUSH1 0x40 MLOAD PUSH4 0x2BFA23E7 PUSH1 0xE1 SHL DUP2 MSTORE PUSH0 PUSH1 0x4 DUP3 ADD MSTORE PUSH1 0x24 ADD PUSH2 0x9D7 JUMP JUMPDEST PUSH1 0x40 DUP1 MLOAD PUSH1 0x1 DUP1 DUP3 MSTORE PUSH1 0x20 DUP3 ADD DUP7 SWAP1 MSTORE DUP2 DUP4 ADD SWAP1 DUP2 MSTORE PUSH1 0x60 DUP3 ADD DUP6 SWAP1 MSTORE PUSH1 0x80 DUP3 ADD SWAP1 SWAP3 MSTORE SWAP1 PUSH2 0x1042 PUSH0 DUP8 DUP5 DUP5 DUP8 PUSH2 0x2FFE JUMP JUMPDEST PUSH2 0x2DD2 PUSH2 0x309C JUMP JUMPDEST PUSH1 0x1 DUP1 SLOAD PUSH1 0xFF NOT AND DUP2 OR SWAP1 SSTORE PUSH32 0x62E78CEA01BEE320CD4E420270B5EA74000D11B0C9F74754EBDBFC544B05A258 CALLER PUSH2 0x2D0F JUMP JUMPDEST PUSH1 0x1 PUSH1 0x1 PUSH1 0xA0 SHL SUB DUP3 AND PUSH2 0x2E2D JUMPI PUSH1 0x40 MLOAD PUSH3 0xCED3E1 PUSH1 0xE8 SHL DUP2 MSTORE PUSH0 PUSH1 0x4 DUP3 ADD MSTORE PUSH1 0x24 ADD PUSH2 0x9D7 JUMP JUMPDEST PUSH1 0x1 PUSH1 0x1 PUSH1 0xA0 SHL SUB DUP4 DUP2 AND PUSH0 DUP2 DUP2 MSTORE PUSH1 0x3 PUSH1 0x20 SWAP1 DUP2 MSTORE PUSH1 0x40 DUP1 DUP4 KECCAK256 SWAP5 DUP8 AND DUP1 DUP5 MSTORE SWAP5 DUP3 MSTORE SWAP2 DUP3 SWAP1 KECCAK256 DUP1 SLOAD PUSH1 0xFF NOT AND DUP7 ISZERO ISZERO SWAP1 DUP2 OR SWAP1 SWAP2 SSTORE SWAP2 MLOAD SWAP2 DUP3 MSTORE PUSH32 0x17307EAB39AB6107E8899845AD3D59BD9653F200F220920489CA2B5937696C31 SWAP2 ADD PUSH1 0x40 MLOAD DUP1 SWAP2 SUB SWAP1 LOG3 POP POP POP JUMP JUMPDEST PUSH1 0x1 PUSH1 0x1 PUSH1 0xA0 SHL SUB DUP5 AND PUSH2 0x2EC2 JUMPI PUSH1 0x40 MLOAD PUSH4 0x2BFA23E7 PUSH1 0xE1 SHL DUP2 MSTORE PUSH0 PUSH1 0x4 DUP3 ADD MSTORE PUSH1 0x24 ADD PUSH2 0x9D7 JUMP JUMPDEST PUSH1 0x1 PUSH1 0x1 PUSH1 0xA0 SHL SUB DUP6 AND PUSH2 0x2EEA JUMPI PUSH1 0x40 MLOAD PUSH3 0x6A0D45 PUSH1 0xE2 SHL DUP2 MSTORE PUSH0 PUSH1 0x4 DUP3 ADD MSTORE PUSH1 0x24 ADD PUSH2 0x9D7 JUMP JUMPDEST PUSH1 0x40 DUP1 MLOAD PUSH1 0x1 DUP1 DUP3 MSTORE PUSH1 0x20 DUP3 ADD DUP7 SWAP1 MSTORE DUP2 DUP4 ADD SWAP1 DUP2 MSTORE PUSH1 0x60 DUP3 ADD DUP6 SWAP1 MSTORE PUSH1 0x80 DUP3 ADD SWAP1 SWAP3 MSTORE SWAP1 PUSH2 0x267A DUP8 DUP8 DUP5 DUP5 DUP8 PUSH2 0x2FFE JUMP JUMPDEST PUSH1 0x1 PUSH1 0x1 PUSH1 0xA0 SHL SUB DUP4 AND PUSH2 0x2F44 JUMPI PUSH1 0x40 MLOAD PUSH3 0x6A0D45 PUSH1 0xE2 SHL DUP2 MSTORE PUSH0 PUSH1 0x4 DUP3 ADD MSTORE PUSH1 0x24 ADD PUSH2 0x9D7 JUMP JUMPDEST PUSH1 0x40 DUP1 MLOAD PUSH1 0x1 DUP1 DUP3 MSTORE PUSH1 0x20 DUP3 ADD DUP6 SWAP1 MSTORE DUP2 DUP4 ADD SWAP1 DUP2 MSTORE PUSH1 0x60 DUP3 ADD DUP5 SWAP1 MSTORE PUSH1 0xA0 DUP3 ADD SWAP1 SWAP3 MSTORE PUSH0 PUSH1 0x80 DUP3 ADD DUP2 DUP2 MSTORE SWAP2 SWAP3 SWAP2 PUSH2 0xDD8 SWAP2 DUP8 SWAP2 DUP6 SWAP1 DUP6 SWAP1 PUSH2 0x2FFE JUMP JUMPDEST PUSH0 PUSH1 0x1 PUSH1 0x1 PUSH1 0xE0 SHL SUB NOT DUP3 AND PUSH4 0x7965DB0B PUSH1 0xE0 SHL EQ DUP1 PUSH2 0x8BF JUMPI POP PUSH4 0x1FFC9A7 PUSH1 0xE0 SHL PUSH1 0x1 PUSH1 0x1 PUSH1 0xE0 SHL SUB NOT DUP4 AND EQ PUSH2 0x8BF JUMP JUMPDEST PUSH2 0x2FC0 DUP3 DUP3 PUSH2 0x1874 JUMP JUMPDEST PUSH2 0x1769 JUMPI PUSH1 0x40 MLOAD PUSH4 0xE2517D3F PUSH1 0xE0 SHL DUP2 MSTORE PUSH1 0x1 PUSH1 0x1 PUSH1 0xA0 SHL SUB DUP3 AND PUSH1 0x4 DUP3 ADD MSTORE PUSH1 0x24 DUP2 ADD DUP4 SWAP1 MSTORE PUSH1 0x44 ADD PUSH2 0x9D7 JUMP JUMPDEST PUSH1 0x60 PUSH1 0x4 DUP1 SLOAD PUSH2 0x1E1B SWAP1 PUSH2 0x444D JUMP JUMPDEST PUSH2 0x300A DUP6 DUP6 DUP6 DUP6 PUSH2 0x30E2 JUMP JUMPDEST PUSH1 0x1 PUSH1 0x1 PUSH1 0xA0 SHL SUB DUP5 AND ISZERO PUSH2 0xDD8 JUMPI DUP3 MLOAD CALLER SWAP1 PUSH1 0x1 SUB PUSH2 0x3043 JUMPI PUSH1 0x20 DUP5 DUP2 ADD MLOAD SWAP1 DUP5 ADD MLOAD PUSH2 0x303C DUP4 DUP10 DUP10 DUP6 DUP6 DUP10 PUSH2 0x3288 JUMP JUMPDEST POP POP PUSH2 0x1042 JUMP JUMPDEST PUSH2 0x1042 DUP2 DUP8 DUP8 DUP8 DUP8 DUP8 PUSH2 0x33A9 JUMP JUMPDEST PUSH1 0x1 SLOAD PUSH1 0xFF AND PUSH2 0x309A JUMPI PUSH1 0x40 MLOAD PUSH3 0x461BCD PUSH1 0xE5 SHL DUP2 MSTORE PUSH1 0x20 PUSH1 0x4 DUP3 ADD MSTORE PUSH1 0x14 PUSH1 0x24 DUP3 ADD MSTORE PUSH20 0x14185D5CD8589B194E881B9BDD081C185D5CD959 PUSH1 0x62 SHL PUSH1 0x44 DUP3 ADD MSTORE PUSH1 0x64 ADD PUSH2 0x9D7 JUMP JUMPDEST JUMP JUMPDEST PUSH1 0x1 SLOAD PUSH1 0xFF AND ISZERO PUSH2 0x309A JUMPI PUSH1 0x40 MLOAD PUSH3 0x461BCD PUSH1 0xE5 SHL DUP2 MSTORE PUSH1 0x20 PUSH1 0x4 DUP3 ADD MSTORE PUSH1 0x10 PUSH1 0x24 DUP3 ADD MSTORE PUSH16 0x14185D5CD8589B194E881C185D5CD959 PUSH1 0x82 SHL PUSH1 0x44 DUP3 ADD MSTORE PUSH1 0x64 ADD PUSH2 0x9D7 JUMP JUMPDEST PUSH2 0x30EA PUSH2 0x309C JUMP JUMPDEST PUSH2 0x30F6 DUP5 DUP5 DUP5 DUP5 PUSH2 0x3490 JUMP JUMPDEST PUSH0 JUMPDEST DUP3 MLOAD DUP2 LT ISZERO PUSH2 0xDD8 JUMPI PUSH0 DUP3 DUP3 DUP2 MLOAD DUP2 LT PUSH2 0x3114 JUMPI PUSH2 0x3114 PUSH2 0x4439 JUMP JUMPDEST PUSH1 0x20 MUL PUSH1 0x20 ADD ADD MLOAD GT ISZERO PUSH2 0x3280 JUMPI PUSH1 0x11 PUSH0 DUP5 DUP4 DUP2 MLOAD DUP2 LT PUSH2 0x3137 JUMPI PUSH2 0x3137 PUSH2 0x4439 JUMP JUMPDEST PUSH1 0x20 MUL PUSH1 0x20 ADD ADD MLOAD DUP2 MSTORE PUSH1 0x20 ADD SWAP1 DUP2 MSTORE PUSH1 0x20 ADD PUSH0 KECCAK256 PUSH1 0x40 MLOAD DUP1 PUSH1 0x80 ADD PUSH1 0x40 MSTORE DUP1 DUP8 PUSH1 0x1 PUSH1 0x1 PUSH1 0xA0 SHL SUB AND DUP2 MSTORE PUSH1 0x20 ADD DUP7 PUSH1 0x1 PUSH1 0x1 PUSH1 0xA0 SHL SUB AND DUP2 MSTORE PUSH1 0x20 ADD DUP5 DUP5 DUP2 MLOAD DUP2 LT PUSH2 0x3187 JUMPI PUSH2 0x3187 PUSH2 0x4439 JUMP JUMPDEST PUSH1 0x20 SWAP1 DUP2 MUL SWAP2 SWAP1 SWAP2 ADD DUP2 ADD MLOAD DUP3 MSTORE TIMESTAMP SWAP2 DUP2 ADD SWAP2 SWAP1 SWAP2 MSTORE DUP3 SLOAD PUSH1 0x1 DUP1 DUP3 ADD DUP6 SSTORE PUSH0 SWAP5 DUP6 MSTORE SWAP4 DUP3 SWAP1 KECCAK256 DUP4 MLOAD PUSH1 0x4 SWAP1 SWAP3 MUL ADD DUP1 SLOAD PUSH1 0x1 PUSH1 0x1 PUSH1 0xA0 SHL SUB NOT SWAP1 DUP2 AND PUSH1 0x1 PUSH1 0x1 PUSH1 0xA0 SHL SUB SWAP4 DUP5 AND OR DUP3 SSTORE SWAP3 DUP5 ADD MLOAD SWAP5 DUP2 ADD DUP1 SLOAD SWAP1 SWAP4 AND SWAP5 DUP3 AND SWAP5 SWAP1 SWAP5 OR SWAP1 SWAP2 SSTORE PUSH1 0x40 DUP3 ADD MLOAD PUSH1 0x2 DUP5 ADD SSTORE PUSH1 0x60 SWAP1 SWAP2 ADD MLOAD PUSH1 0x3 SWAP1 SWAP3 ADD SWAP2 SWAP1 SWAP2 SSTORE DUP4 MLOAD DUP6 DUP3 AND SWAP2 DUP8 AND SWAP1 DUP6 SWAP1 DUP5 SWAP1 DUP2 LT PUSH2 0x321C JUMPI PUSH2 0x321C PUSH2 0x4439 JUMP JUMPDEST PUSH1 0x20 MUL PUSH1 0x20 ADD ADD MLOAD PUSH32 0x3599ACC8EA36ACF6564C059F8A072F8E7844E39A6F1E8D3BE1BCBF6DCCECFB00 DUP6 DUP6 DUP2 MLOAD DUP2 LT PUSH2 0x3257 JUMPI PUSH2 0x3257 PUSH2 0x4439 JUMP JUMPDEST PUSH1 0x20 MUL PUSH1 0x20 ADD ADD MLOAD TIMESTAMP PUSH1 0x40 MLOAD PUSH2 0x3277 SWAP3 SWAP2 SWAP1 SWAP2 DUP3 MSTORE PUSH1 0x20 DUP3 ADD MSTORE PUSH1 0x40 ADD SWAP1 JUMP JUMPDEST PUSH1 0x40 MLOAD DUP1 SWAP2 SUB SWAP1 LOG4 JUMPDEST PUSH1 0x1 ADD PUSH2 0x30F8 JUMP JUMPDEST PUSH1 0x1 PUSH1 0x1 PUSH1 0xA0 SHL SUB DUP5 AND EXTCODESIZE ISZERO PUSH2 0x1042 JUMPI PUSH1 0x40 MLOAD PUSH4 0xF23A6E61 PUSH1 0xE0 SHL DUP2 MSTORE PUSH1 0x1 PUSH1 0x1 PUSH1 0xA0 SHL SUB DUP6 AND SWAP1 PUSH4 0xF23A6E61 SWAP1 PUSH2 0x32CC SWAP1 DUP10 SWAP1 DUP10 SWAP1 DUP9 SWAP1 DUP9 SWAP1 DUP9 SWAP1 PUSH1 0x4 ADD PUSH2 0x4A0A JUMP JUMPDEST PUSH1 0x20 PUSH1 0x40 MLOAD DUP1 DUP4 SUB DUP2 PUSH0 DUP8 GAS CALL SWAP3 POP POP POP DUP1 ISZERO PUSH2 0x3306 JUMPI POP PUSH1 0x40 DUP1 MLOAD PUSH1 0x1F RETURNDATASIZE SWAP1 DUP2 ADD PUSH1 0x1F NOT AND DUP3 ADD SWAP1 SWAP3 MSTORE PUSH2 0x3303 SWAP2 DUP2 ADD SWAP1 PUSH2 0x4A4E JUMP JUMPDEST PUSH1 0x1 JUMPDEST PUSH2 0x336D JUMPI RETURNDATASIZE DUP1 DUP1 ISZERO PUSH2 0x3333 JUMPI PUSH1 0x40 MLOAD SWAP2 POP PUSH1 0x1F NOT PUSH1 0x3F RETURNDATASIZE ADD AND DUP3 ADD PUSH1 0x40 MSTORE RETURNDATASIZE DUP3 MSTORE RETURNDATASIZE PUSH0 PUSH1 0x20 DUP5 ADD RETURNDATACOPY PUSH2 0x3338 JUMP JUMPDEST PUSH1 0x60 SWAP2 POP JUMPDEST POP DUP1 MLOAD PUSH0 SUB PUSH2 0x3365 JUMPI PUSH1 0x40 MLOAD PUSH4 0x2BFA23E7 PUSH1 0xE1 SHL DUP2 MSTORE PUSH1 0x1 PUSH1 0x1 PUSH1 0xA0 SHL SUB DUP7 AND PUSH1 0x4 DUP3 ADD MSTORE PUSH1 0x24 ADD PUSH2 0x9D7 JUMP JUMPDEST DUP1 MLOAD PUSH1 0x20 DUP3 ADD REVERT JUMPDEST PUSH1 0x1 PUSH1 0x1 PUSH1 0xE0 SHL SUB NOT DUP2 AND PUSH4 0xF23A6E61 PUSH1 0xE0 SHL EQ PUSH2 0x267A JUMPI PUSH1 0x40 MLOAD PUSH4 0x2BFA23E7 PUSH1 0xE1 SHL DUP2 MSTORE PUSH1 0x1 PUSH1 0x1 PUSH1 0xA0 SHL SUB DUP7 AND PUSH1 0x4 DUP3 ADD MSTORE PUSH1 0x24 ADD PUSH2 0x9D7 JUMP JUMPDEST PUSH1 0x1 PUSH1 0x1 PUSH1 0xA0 SHL SUB DUP5 AND EXTCODESIZE ISZERO PUSH2 0x1042 JUMPI PUSH1 0x40 MLOAD PUSH4 0xBC197C81 PUSH1 0xE0 SHL DUP2 MSTORE PUSH1 0x1 PUSH1 0x1 PUSH1 0xA0 SHL SUB DUP6 AND SWAP1 PUSH4 0xBC197C81 SWAP1 PUSH2 0x33ED SWAP1 DUP10 SWAP1 DUP10 SWAP1 DUP9 SWAP1 DUP9 SWAP1 DUP9 SWAP1 PUSH1 0x4 ADD PUSH2 0x4A69 JUMP JUMPDEST PUSH1 0x20 PUSH1 0x40 MLOAD DUP1 DUP4 SUB DUP2 PUSH0 DUP8 GAS CALL SWAP3 POP POP POP DUP1 ISZERO PUSH2 0x3427 JUMPI POP PUSH1 0x40 DUP1 MLOAD PUSH1 0x1F RETURNDATASIZE SWAP1 DUP2 ADD PUSH1 0x1F NOT AND DUP3 ADD SWAP1 SWAP3 MSTORE PUSH2 0x3424 SWAP2 DUP2 ADD SWAP1 PUSH2 0x4A4E JUMP JUMPDEST PUSH1 0x1 JUMPDEST PUSH2 0x3454 JUMPI RETURNDATASIZE DUP1 DUP1 ISZERO PUSH2 0x3333 JUMPI PUSH1 0x40 MLOAD SWAP2 POP PUSH1 0x1F NOT PUSH1 0x3F RETURNDATASIZE ADD AND DUP3 ADD PUSH1 0x40 MSTORE RETURNDATASIZE DUP3 MSTORE RETURNDATASIZE PUSH0 PUSH1 0x20 DUP5 ADD RETURNDATACOPY PUSH2 0x3338 JUMP JUMPDEST PUSH1 0x1 PUSH1 0x1 PUSH1 0xE0 SHL SUB NOT DUP2 AND PUSH4 0xBC197C81 PUSH1 0xE0 SHL EQ PUSH2 0x267A JUMPI PUSH1 0x40 MLOAD PUSH4 0x2BFA23E7 PUSH1 0xE1 SHL DUP2 MSTORE PUSH1 0x1 PUSH1 0x1 PUSH1 0xA0 SHL SUB DUP7 AND PUSH1 0x4 DUP3 ADD MSTORE PUSH1 0x24 ADD PUSH2 0x9D7 JUMP JUMPDEST PUSH2 0x349C DUP5 DUP5 DUP5 DUP5 PUSH2 0x3577 JUMP JUMPDEST PUSH1 0x1 PUSH1 0x1 PUSH1 0xA0 SHL SUB DUP5 AND PUSH2 0x3519 JUMPI PUSH0 DUP1 JUMPDEST DUP4 MLOAD DUP2 LT ISZERO PUSH2 0x3500 JUMPI PUSH1 0x20 DUP2 DUP2 MUL DUP5 DUP2 ADD DUP3 ADD MLOAD SWAP1 DUP7 ADD DUP3 ADD MLOAD PUSH0 SWAP1 DUP2 MSTORE PUSH1 0x7 SWAP1 SWAP3 MSTORE PUSH1 0x40 DUP3 KECCAK256 DUP1 SLOAD SWAP2 SWAP3 DUP4 SWAP3 PUSH2 0x34E5 SWAP1 DUP5 SWAP1 PUSH2 0x4961 JUMP JUMPDEST SWAP1 SWAP2 SSTORE POP PUSH2 0x34F5 SWAP1 POP DUP2 DUP5 PUSH2 0x4961 JUMP JUMPDEST SWAP3 POP POP PUSH1 0x1 ADD PUSH2 0x34AD JUMP JUMPDEST POP DUP1 PUSH1 0x8 PUSH0 DUP3 DUP3 SLOAD PUSH2 0x3512 SWAP2 SWAP1 PUSH2 0x4961 JUMP JUMPDEST SWAP1 SWAP2 SSTORE POP POP POP JUMPDEST PUSH1 0x1 PUSH1 0x1 PUSH1 0xA0 SHL SUB DUP4 AND PUSH2 0x106E JUMPI PUSH0 DUP1 JUMPDEST DUP4 MLOAD DUP2 LT ISZERO PUSH2 0x3566 JUMPI PUSH1 0x20 DUP2 DUP2 MUL DUP5 DUP2 ADD DUP3 ADD MLOAD SWAP1 DUP7 ADD DUP3 ADD MLOAD PUSH0 SWAP1 DUP2 MSTORE PUSH1 0x7 SWAP1 SWAP3 MSTORE PUSH1 0x40 SWAP1 SWAP2 KECCAK256 DUP1 SLOAD DUP3 SWAP1 SUB SWAP1 SSTORE SWAP2 SWAP1 SWAP2 ADD SWAP1 PUSH1 0x1 ADD PUSH2 0x352A JUMP JUMPDEST POP PUSH1 0x8 DUP1 SLOAD SWAP2 SWAP1 SWAP2 SUB SWAP1 SSTORE POP POP POP POP JUMP JUMPDEST DUP1 MLOAD DUP3 MLOAD EQ PUSH2 0x35A6 JUMPI DUP2 MLOAD DUP2 MLOAD PUSH1 0x40 MLOAD PUSH4 0x5B059991 PUSH1 0xE0 SHL DUP2 MSTORE PUSH1 0x4 DUP2 ADD SWAP3 SWAP1 SWAP3 MSTORE PUSH1 0x24 DUP3 ADD MSTORE PUSH1 0x44 ADD PUSH2 0x9D7 JUMP JUMPDEST CALLER PUSH0 JUMPDEST DUP4 MLOAD DUP2 LT ISZERO PUSH2 0x36AE JUMPI PUSH1 0x20 DUP2 DUP2 MUL DUP6 DUP2 ADD DUP3 ADD MLOAD SWAP1 DUP6 ADD SWAP1 SWAP2 ADD MLOAD PUSH1 0x1 PUSH1 0x1 PUSH1 0xA0 SHL SUB DUP9 AND ISZERO PUSH2 0x365E JUMPI PUSH0 DUP3 DUP2 MSTORE PUSH1 0x2 PUSH1 0x20 SWAP1 DUP2 MSTORE PUSH1 0x40 DUP1 DUP4 KECCAK256 PUSH1 0x1 PUSH1 0x1 PUSH1 0xA0 SHL SUB DUP13 AND DUP5 MSTORE SWAP1 SWAP2 MSTORE SWAP1 KECCAK256 SLOAD DUP2 DUP2 LT ISZERO PUSH2 0x3636 JUMPI PUSH1 0x40 MLOAD PUSH4 0x3DEE4C5 PUSH1 0xE0 SHL DUP2 MSTORE PUSH1 0x1 PUSH1 0x1 PUSH1 0xA0 SHL SUB DUP11 AND PUSH1 0x4 DUP3 ADD MSTORE PUSH1 0x24 DUP2 ADD DUP3 SWAP1 MSTORE PUSH1 0x44 DUP2 ADD DUP4 SWAP1 MSTORE PUSH1 0x64 DUP2 ADD DUP5 SWAP1 MSTORE PUSH1 0x84 ADD PUSH2 0x9D7 JUMP JUMPDEST PUSH0 DUP4 DUP2 MSTORE PUSH1 0x2 PUSH1 0x20 SWAP1 DUP2 MSTORE PUSH1 0x40 DUP1 DUP4 KECCAK256 PUSH1 0x1 PUSH1 0x1 PUSH1 0xA0 SHL SUB DUP14 AND DUP5 MSTORE SWAP1 SWAP2 MSTORE SWAP1 KECCAK256 SWAP1 DUP3 SWAP1 SUB SWAP1 SSTORE JUMPDEST PUSH1 0x1 PUSH1 0x1 PUSH1 0xA0 SHL SUB DUP8 AND ISZERO PUSH2 0x36A4 JUMPI PUSH0 DUP3 DUP2 MSTORE PUSH1 0x2 PUSH1 0x20 SWAP1 DUP2 MSTORE PUSH1 0x40 DUP1 DUP4 KECCAK256 PUSH1 0x1 PUSH1 0x1 PUSH1 0xA0 SHL SUB DUP12 AND DUP5 MSTORE SWAP1 SWAP2 MSTORE DUP2 KECCAK256 DUP1 SLOAD DUP4 SWAP3 SWAP1 PUSH2 0x369E SWAP1 DUP5 SWAP1 PUSH2 0x4961 JUMP JUMPDEST SWAP1 SWAP2 SSTORE POP POP JUMPDEST POP POP PUSH1 0x1 ADD PUSH2 0x35A9 JUMP JUMPDEST POP DUP3 MLOAD PUSH1 0x1 SUB PUSH2 0x372E JUMPI PUSH1 0x20 DUP4 ADD MLOAD PUSH0 SWAP1 PUSH1 0x20 DUP5 ADD MLOAD SWAP1 SWAP2 POP DUP6 PUSH1 0x1 PUSH1 0x1 PUSH1 0xA0 SHL SUB AND DUP8 PUSH1 0x1 PUSH1 0x1 PUSH1 0xA0 SHL SUB AND DUP5 PUSH1 0x1 PUSH1 0x1 PUSH1 0xA0 SHL SUB AND PUSH32 0xC3D58168C5AE7397731D063D5BBF3D657854427343F4C083240F7AACAA2D0F62 DUP6 DUP6 PUSH1 0x40 MLOAD PUSH2 0x371F SWAP3 SWAP2 SWAP1 SWAP2 DUP3 MSTORE PUSH1 0x20 DUP3 ADD MSTORE PUSH1 0x40 ADD SWAP1 JUMP JUMPDEST PUSH1 0x40 MLOAD DUP1 SWAP2 SUB SWAP1 LOG4 POP POP PUSH2 0xDD8 JUMP JUMPDEST DUP4 PUSH1 0x1 PUSH1 0x1 PUSH1 0xA0 SHL SUB AND DUP6 PUSH1 0x1 PUSH1 0x1 PUSH1 0xA0 SHL SUB AND DUP3 PUSH1 0x1 PUSH1 0x1 PUSH1 0xA0 SHL SUB AND PUSH32 0x4A39DC06D4C0DBC64B70AF90FD698A233A518AA5D07E595D983B8C0526C8F7FB DUP7 DUP7 PUSH1 0x40 MLOAD PUSH2 0x377D SWAP3 SWAP2 SWAP1 PUSH2 0x4AC6 JUMP JUMPDEST PUSH1 0x40 MLOAD DUP1 SWAP2 SUB SWAP1 LOG4 POP POP POP POP POP JUMP JUMPDEST PUSH1 0x40 MLOAD DUP1 PUSH1 0x80 ADD PUSH1 0x40 MSTORE DUP1 PUSH0 DUP2 MSTORE PUSH1 0x20 ADD PUSH0 DUP2 MSTORE PUSH1 0x20 ADD PUSH1 0x60 DUP2 MSTORE PUSH1 0x20 ADD PUSH2 0x37C5 PUSH1 0x40 MLOAD DUP1 PUSH1 0x40 ADD PUSH1 0x40 MSTORE DUP1 PUSH0 DUP2 MSTORE PUSH1 0x20 ADD PUSH0 DUP2 MSTORE POP SWAP1 JUMP JUMPDEST SWAP1 MSTORE SWAP1 JUMP JUMPDEST POP DUP1 SLOAD PUSH2 0x37D6 SWAP1 PUSH2 0x444D JUMP JUMPDEST PUSH0 DUP3 SSTORE DUP1 PUSH1 0x1F LT PUSH2 0x37E5 JUMPI POP POP JUMP JUMPDEST PUSH1 0x1F ADD PUSH1 0x20 SWAP1 DIV SWAP1 PUSH0 MSTORE PUSH1 0x20 PUSH0 KECCAK256 SWAP1 DUP2 ADD SWAP1 PUSH2 0x120F SWAP2 SWAP1 JUMPDEST DUP1 DUP3 GT ISZERO PUSH2 0x2A1E JUMPI PUSH0 DUP2 SSTORE PUSH1 0x1 ADD PUSH2 0x37FD JUMP JUMPDEST DUP1 CALLDATALOAD PUSH1 0x1 PUSH1 0x1 PUSH1 0xA0 SHL SUB DUP2 AND DUP2 EQ PUSH2 0x3826 JUMPI PUSH0 PUSH0 REVERT JUMPDEST SWAP2 SWAP1 POP JUMP JUMPDEST PUSH0 PUSH0 PUSH1 0x40 DUP4 DUP6 SUB SLT ISZERO PUSH2 0x383C JUMPI PUSH0 PUSH0 REVERT JUMPDEST PUSH2 0x3845 DUP4 PUSH2 0x3810 JUMP JUMPDEST SWAP5 PUSH1 0x20 SWAP4 SWAP1 SWAP4 ADD CALLDATALOAD SWAP4 POP POP POP JUMP JUMPDEST PUSH1 0x1 PUSH1 0x1 PUSH1 0xE0 SHL SUB NOT DUP2 AND DUP2 EQ PUSH2 0x120F JUMPI PUSH0 PUSH0 REVERT JUMPDEST PUSH0 PUSH1 0x20 DUP3 DUP5 SUB SLT ISZERO PUSH2 0x3878 JUMPI PUSH0 PUSH0 REVERT JUMPDEST DUP2 CALLDATALOAD PUSH2 0x2AF7 DUP2 PUSH2 0x3853 JUMP JUMPDEST PUSH4 0x4E487B71 PUSH1 0xE0 SHL PUSH0 MSTORE PUSH1 0x41 PUSH1 0x4 MSTORE PUSH1 0x24 PUSH0 REVERT JUMPDEST PUSH1 0x40 MLOAD PUSH1 0x1F DUP3 ADD PUSH1 0x1F NOT AND DUP2 ADD PUSH1 0x1 PUSH1 0x1 PUSH1 0x40 SHL SUB DUP2 GT DUP3 DUP3 LT OR ISZERO PUSH2 0x38BF JUMPI PUSH2 0x38BF PUSH2 0x3883 JUMP JUMPDEST PUSH1 0x40 MSTORE SWAP2 SWAP1 POP JUMP JUMPDEST PUSH0 PUSH1 0x1 PUSH1 0x1 PUSH1 0x40 SHL SUB DUP3 GT ISZERO PUSH2 0x38DF JUMPI PUSH2 0x38DF PUSH2 0x3883 JUMP JUMPDEST POP PUSH1 0x1F ADD PUSH1 0x1F NOT AND PUSH1 0x20 ADD SWAP1 JUMP JUMPDEST PUSH0 DUP3 PUSH1 0x1F DUP4 ADD SLT PUSH2 0x38FC JUMPI PUSH0 PUSH0 REVERT JUMPDEST DUP2 CALLDATALOAD PUSH1 0x20 DUP4 ADD PUSH0 PUSH2 0x3914 PUSH2 0x390F DUP5 PUSH2 0x38C7 JUMP JUMPDEST PUSH2 0x3897 JUMP JUMPDEST SWAP1 POP DUP3 DUP2 MSTORE DUP6 DUP4 DUP4 ADD GT ISZERO PUSH2 0x3927 JUMPI PUSH0 PUSH0 REVERT JUMPDEST DUP3 DUP3 PUSH1 0x20 DUP4 ADD CALLDATACOPY PUSH0 SWAP3 DUP2 ADD PUSH1 0x20 ADD SWAP3 SWAP1 SWAP3 MSTORE POP SWAP4 SWAP3 POP POP POP JUMP JUMPDEST PUSH0 PUSH1 0x20 DUP3 DUP5 SUB SLT ISZERO PUSH2 0x3951 JUMPI PUSH0 PUSH0 REVERT JUMPDEST DUP2 CALLDATALOAD PUSH1 0x1 PUSH1 0x1 PUSH1 0x40 SHL SUB DUP2 GT ISZERO PUSH2 0x3966 JUMPI PUSH0 PUSH0 REVERT JUMPDEST PUSH2 0x2A16 DUP5 DUP3 DUP6 ADD PUSH2 0x38ED JUMP JUMPDEST PUSH0 DUP2 MLOAD DUP1 DUP5 MSTORE DUP1 PUSH1 0x20 DUP5 ADD PUSH1 0x20 DUP7 ADD MCOPY PUSH0 PUSH1 0x20 DUP3 DUP7 ADD ADD MSTORE PUSH1 0x20 PUSH1 0x1F NOT PUSH1 0x1F DUP4 ADD AND DUP6 ADD ADD SWAP2 POP POP SWAP3 SWAP2 POP POP JUMP JUMPDEST PUSH1 0x20 DUP2 MSTORE PUSH0 PUSH2 0x2AF7 PUSH1 0x20 DUP4 ADD DUP5 PUSH2 0x3972 JUMP JUMPDEST PUSH0 PUSH1 0x20 DUP3 DUP5 SUB SLT ISZERO PUSH2 0x39C2 JUMPI PUSH0 PUSH0 REVERT JUMPDEST POP CALLDATALOAD SWAP2 SWAP1 POP JUMP JUMPDEST PUSH0 PUSH0 PUSH1 0x40 DUP4 DUP6 SUB SLT ISZERO PUSH2 0x39DA JUMPI PUSH0 PUSH0 REVERT JUMPDEST DUP3 CALLDATALOAD SWAP2 POP PUSH1 0x20 DUP4 ADD CALLDATALOAD PUSH1 0x1 PUSH1 0x1 PUSH1 0x40 SHL SUB DUP2 GT ISZERO PUSH2 0x39F6 JUMPI PUSH0 PUSH0 REVERT JUMPDEST PUSH2 0x3A02 DUP6 DUP3 DUP7 ADD PUSH2 0x38ED JUMP JUMPDEST SWAP2 POP POP SWAP3 POP SWAP3 SWAP1 POP JUMP JUMPDEST PUSH0 PUSH1 0x20 DUP3 DUP5 SUB SLT ISZERO PUSH2 0x3A1C JUMPI PUSH0 PUSH0 REVERT JUMPDEST PUSH2 0x2AF7 DUP3 PUSH2 0x3810 JUMP JUMPDEST PUSH0 PUSH1 0x20 DUP3 ADD PUSH1 0x20 DUP4 MSTORE DUP1 DUP5 MLOAD DUP1 DUP4 MSTORE PUSH1 0x40 DUP6 ADD SWAP2 POP PUSH1 0x40 DUP2 PUSH1 0x5 SHL DUP7 ADD ADD SWAP3 POP PUSH1 0x20 DUP7 ADD PUSH0 JUMPDEST DUP3 DUP2 LT ISZERO PUSH2 0x3ABB JUMPI PUSH1 0x3F NOT DUP8 DUP7 SUB ADD DUP5 MSTORE DUP2 MLOAD DUP1 MLOAD DUP7 MSTORE PUSH1 0x20 DUP2 ADD MLOAD PUSH1 0x20 DUP8 ADD MSTORE PUSH1 0x40 DUP2 ADD MLOAD PUSH1 0xA0 PUSH1 0x40 DUP9 ADD MSTORE PUSH2 0x3A85 PUSH1 0xA0 DUP9 ADD DUP3 PUSH2 0x3972 JUMP JUMPDEST SWAP1 POP PUSH1 0x60 DUP3 ADD MLOAD SWAP2 POP PUSH2 0x3AA5 PUSH1 0x60 DUP9 ADD DUP4 DUP1 MLOAD DUP3 MSTORE PUSH1 0x20 SWAP1 DUP2 ADD MLOAD SWAP2 ADD MSTORE JUMP JUMPDEST SWAP6 POP POP PUSH1 0x20 SWAP4 DUP5 ADD SWAP4 SWAP2 SWAP1 SWAP2 ADD SWAP1 PUSH1 0x1 ADD PUSH2 0x3A4B JUMP JUMPDEST POP SWAP3 SWAP7 SWAP6 POP POP POP POP POP POP JUMP JUMPDEST PUSH0 PUSH1 0x1 PUSH1 0x1 PUSH1 0x40 SHL SUB DUP3 GT ISZERO PUSH2 0x3ADF JUMPI PUSH2 0x3ADF PUSH2 0x3883 JUMP JUMPDEST POP PUSH1 0x5 SHL PUSH1 0x20 ADD SWAP1 JUMP JUMPDEST PUSH0 DUP3 PUSH1 0x1F DUP4 ADD SLT PUSH2 0x3AF8 JUMPI PUSH0 PUSH0 REVERT JUMPDEST DUP2 CALLDATALOAD PUSH2 0x3B06 PUSH2 0x390F DUP3 PUSH2 0x3AC7 JUMP JUMPDEST DUP1 DUP3 DUP3 MSTORE PUSH1 0x20 DUP3 ADD SWAP2 POP PUSH1 0x20 DUP4 PUSH1 0x5 SHL DUP7 ADD ADD SWAP3 POP DUP6 DUP4 GT ISZERO PUSH2 0x3B27 JUMPI PUSH0 PUSH0 REVERT JUMPDEST PUSH1 0x20 DUP6 ADD JUMPDEST DUP4 DUP2 LT ISZERO PUSH2 0x3B44 JUMPI DUP1 CALLDATALOAD DUP4 MSTORE PUSH1 0x20 SWAP3 DUP4 ADD SWAP3 ADD PUSH2 0x3B2C JUMP JUMPDEST POP SWAP6 SWAP5 POP POP POP POP POP JUMP JUMPDEST PUSH0 PUSH0 PUSH0 PUSH0 PUSH1 0x80 DUP6 DUP8 SUB SLT ISZERO PUSH2 0x3B61 JUMPI PUSH0 PUSH0 REVERT JUMPDEST PUSH2 0x3B6A DUP6 PUSH2 0x3810 JUMP JUMPDEST SWAP4 POP PUSH1 0x20 DUP6 ADD CALLDATALOAD PUSH1 0x1 PUSH1 0x1 PUSH1 0x40 SHL SUB DUP2 GT ISZERO PUSH2 0x3B84 JUMPI PUSH0 PUSH0 REVERT JUMPDEST PUSH2 0x3B90 DUP8 DUP3 DUP9 ADD PUSH2 0x3AE9 JUMP JUMPDEST SWAP4 POP POP PUSH1 0x40 DUP6 ADD CALLDATALOAD PUSH1 0x1 PUSH1 0x1 PUSH1 0x40 SHL SUB DUP2 GT ISZERO PUSH2 0x3BAB JUMPI PUSH0 PUSH0 REVERT JUMPDEST PUSH2 0x3BB7 DUP8 DUP3 DUP9 ADD PUSH2 0x3AE9 JUMP JUMPDEST SWAP3 POP POP PUSH1 0x60 DUP6 ADD CALLDATALOAD PUSH1 0x1 PUSH1 0x1 PUSH1 0x40 SHL SUB DUP2 GT ISZERO PUSH2 0x3BD2 JUMPI PUSH0 PUSH0 REVERT JUMPDEST PUSH2 0x3BDE DUP8 DUP3 DUP9 ADD PUSH2 0x38ED JUMP JUMPDEST SWAP2 POP POP SWAP3 SWAP6 SWAP2 SWAP5 POP SWAP3 POP JUMP JUMPDEST PUSH0 PUSH0 PUSH0 PUSH1 0x60 DUP5 DUP7 SUB SLT ISZERO PUSH2 0x3BFC JUMPI PUSH0 PUSH0 REVERT JUMPDEST PUSH2 0x3C05 DUP5 PUSH2 0x3810 JUMP JUMPDEST SWAP3 POP PUSH2 0x3C13 PUSH1 0x20 DUP6 ADD PUSH2 0x3810 JUMP JUMPDEST SWAP3 SWAP6 SWAP3 SWAP5 POP POP POP PUSH1 0x40 SWAP2 SWAP1 SWAP2 ADD CALLDATALOAD SWAP1 JUMP JUMPDEST PUSH0 PUSH0 PUSH0 PUSH0 PUSH0 PUSH1 0xA0 DUP7 DUP9 SUB SLT ISZERO PUSH2 0x3C38 JUMPI PUSH0 PUSH0 REVERT JUMPDEST PUSH2 0x3C41 DUP7 PUSH2 0x3810 JUMP JUMPDEST SWAP5 POP PUSH2 0x3C4F PUSH1 0x20 DUP8 ADD PUSH2 0x3810 JUMP JUMPDEST SWAP4 POP PUSH1 0x40 DUP7 ADD CALLDATALOAD PUSH1 0x1 PUSH1 0x1 PUSH1 0x40 SHL SUB DUP2 GT ISZERO PUSH2 0x3C69 JUMPI PUSH0 PUSH0 REVERT JUMPDEST PUSH2 0x3C75 DUP9 DUP3 DUP10 ADD PUSH2 0x3AE9 JUMP JUMPDEST SWAP4 POP POP PUSH1 0x60 DUP7 ADD CALLDATALOAD PUSH1 0x1 PUSH1 0x1 PUSH1 0x40 SHL SUB DUP2 GT ISZERO PUSH2 0x3C90 JUMPI PUSH0 PUSH0 REVERT JUMPDEST PUSH2 0x3C9C DUP9 DUP3 DUP10 ADD PUSH2 0x3AE9 JUMP JUMPDEST SWAP3 POP POP PUSH1 0x80 DUP7 ADD CALLDATALOAD PUSH1 0x1 PUSH1 0x1 PUSH1 0x40 SHL SUB DUP2 GT ISZERO PUSH2 0x3CB7 JUMPI PUSH0 PUSH0 REVERT JUMPDEST PUSH2 0x3CC3 DUP9 DUP3 DUP10 ADD PUSH2 0x38ED JUMP JUMPDEST SWAP2 POP POP SWAP3 SWAP6 POP SWAP3 SWAP6 SWAP1 SWAP4 POP JUMP JUMPDEST PUSH0 PUSH0 PUSH1 0x40 DUP4 DUP6 SUB SLT ISZERO PUSH2 0x3CE1 JUMPI PUSH0 PUSH0 REVERT JUMPDEST DUP3 CALLDATALOAD SWAP2 POP PUSH2 0x3CF1 PUSH1 0x20 DUP5 ADD PUSH2 0x3810 JUMP JUMPDEST SWAP1 POP SWAP3 POP SWAP3 SWAP1 POP JUMP JUMPDEST PUSH0 PUSH0 PUSH0 PUSH1 0x60 DUP5 DUP7 SUB SLT ISZERO PUSH2 0x3D0C JUMPI PUSH0 PUSH0 REVERT JUMPDEST PUSH2 0x3D15 DUP5 PUSH2 0x3810 JUMP JUMPDEST SWAP3 POP PUSH1 0x20 DUP5 ADD CALLDATALOAD PUSH1 0x1 PUSH1 0x1 PUSH1 0x40 SHL SUB DUP2 GT ISZERO PUSH2 0x3D2F JUMPI PUSH0 PUSH0 REVERT JUMPDEST PUSH2 0x3D3B DUP7 DUP3 DUP8 ADD PUSH2 0x38ED JUMP JUMPDEST SWAP4 SWAP7 SWAP4 SWAP6 POP POP POP POP PUSH1 0x40 SWAP2 SWAP1 SWAP2 ADD CALLDATALOAD SWAP1 JUMP JUMPDEST PUSH0 PUSH0 PUSH1 0x40 DUP4 DUP6 SUB SLT ISZERO PUSH2 0x3D5E JUMPI PUSH0 PUSH0 REVERT JUMPDEST DUP3 CALLDATALOAD PUSH1 0x1 PUSH1 0x1 PUSH1 0x40 SHL SUB DUP2 GT ISZERO PUSH2 0x3D73 JUMPI PUSH0 PUSH0 REVERT JUMPDEST DUP4 ADD PUSH1 0x1F DUP2 ADD DUP6 SGT PUSH2 0x3D83 JUMPI PUSH0 PUSH0 REVERT JUMPDEST DUP1 CALLDATALOAD PUSH2 0x3D91 PUSH2 0x390F DUP3 PUSH2 0x3AC7 JUMP JUMPDEST DUP1 DUP3 DUP3 MSTORE PUSH1 0x20 DUP3 ADD SWAP2 POP PUSH1 0x20 DUP4 PUSH1 0x5 SHL DUP6 ADD ADD SWAP3 POP DUP8 DUP4 GT ISZERO PUSH2 0x3DB2 JUMPI PUSH0 PUSH0 REVERT JUMPDEST PUSH1 0x20 DUP5 ADD SWAP4 POP JUMPDEST DUP3 DUP5 LT ISZERO PUSH2 0x3DDB JUMPI PUSH2 0x3DCA DUP5 PUSH2 0x3810 JUMP JUMPDEST DUP3 MSTORE PUSH1 0x20 SWAP4 DUP5 ADD SWAP4 SWAP1 SWAP2 ADD SWAP1 PUSH2 0x3DB9 JUMP JUMPDEST SWAP5 POP POP POP POP PUSH1 0x20 DUP4 ADD CALLDATALOAD PUSH1 0x1 PUSH1 0x1 PUSH1 0x40 SHL SUB DUP2 GT ISZERO PUSH2 0x3DF8 JUMPI PUSH0 PUSH0 REVERT JUMPDEST PUSH2 0x3A02 DUP6 DUP3 DUP7 ADD PUSH2 0x3AE9 JUMP JUMPDEST PUSH0 DUP2 MLOAD DUP1 DUP5 MSTORE PUSH1 0x20 DUP5 ADD SWAP4 POP PUSH1 0x20 DUP4 ADD PUSH0 JUMPDEST DUP3 DUP2 LT ISZERO PUSH2 0x3E34 JUMPI DUP2 MLOAD DUP7 MSTORE PUSH1 0x20 SWAP6 DUP7 ADD SWAP6 SWAP1 SWAP2 ADD SWAP1 PUSH1 0x1 ADD PUSH2 0x3E16 JUMP JUMPDEST POP SWAP4 SWAP5 SWAP4 POP POP POP POP JUMP JUMPDEST PUSH1 0x20 DUP2 MSTORE PUSH0 PUSH2 0x2AF7 PUSH1 0x20 DUP4 ADD DUP5 PUSH2 0x3E04 JUMP JUMPDEST DUP1 MLOAD DUP3 MSTORE PUSH0 PUSH1 0x20 DUP3 ADD MLOAD PUSH1 0x40 PUSH1 0x20 DUP6 ADD MSTORE PUSH2 0x2A16 PUSH1 0x40 DUP6 ADD DUP3 PUSH2 0x3972 JUMP JUMPDEST PUSH1 0x20 DUP2 MSTORE PUSH0 PUSH2 0x2AF7 PUSH1 0x20 DUP4 ADD DUP5 PUSH2 0x3E50 JUMP JUMPDEST PUSH0 PUSH1 0x20 DUP3 ADD PUSH1 0x20 DUP4 MSTORE DUP1 DUP5 MLOAD DUP1 DUP4 MSTORE PUSH1 0x40 DUP6 ADD SWAP2 POP PUSH1 0x40 DUP2 PUSH1 0x5 SHL DUP7 ADD ADD SWAP3 POP PUSH1 0x20 DUP7 ADD PUSH0 JUMPDEST DUP3 DUP2 LT ISZERO PUSH2 0x3ABB JUMPI PUSH1 0x3F NOT DUP8 DUP7 SUB ADD DUP5 MSTORE PUSH2 0x3EC2 DUP6 DUP4 MLOAD PUSH2 0x3E50 JUMP JUMPDEST SWAP5 POP PUSH1 0x20 SWAP4 DUP5 ADD SWAP4 SWAP2 SWAP1 SWAP2 ADD SWAP1 PUSH1 0x1 ADD PUSH2 0x3EA6 JUMP JUMPDEST PUSH0 PUSH0 PUSH0 PUSH1 0x60 DUP5 DUP7 SUB SLT ISZERO PUSH2 0x3EE9 JUMPI PUSH0 PUSH0 REVERT JUMPDEST PUSH2 0x3EF2 DUP5 PUSH2 0x3810 JUMP JUMPDEST SWAP3 POP PUSH1 0x20 DUP5 ADD CALLDATALOAD PUSH1 0x1 PUSH1 0x1 PUSH1 0x40 SHL SUB DUP2 GT ISZERO PUSH2 0x3F0C JUMPI PUSH0 PUSH0 REVERT JUMPDEST PUSH2 0x3F18 DUP7 DUP3 DUP8 ADD PUSH2 0x3AE9 JUMP JUMPDEST SWAP3 POP POP PUSH1 0x40 DUP5 ADD CALLDATALOAD PUSH1 0x1 PUSH1 0x1 PUSH1 0x40 SHL SUB DUP2 GT ISZERO PUSH2 0x3F33 JUMPI PUSH0 PUSH0 REVERT JUMPDEST PUSH2 0x3F3F DUP7 DUP3 DUP8 ADD PUSH2 0x3AE9 JUMP JUMPDEST SWAP2 POP POP SWAP3 POP SWAP3 POP SWAP3 JUMP JUMPDEST PUSH0 PUSH0 PUSH0 PUSH0 PUSH1 0x80 DUP6 DUP8 SUB SLT ISZERO PUSH2 0x3F5C JUMPI PUSH0 PUSH0 REVERT JUMPDEST PUSH2 0x3F65 DUP6 PUSH2 0x3810 JUMP JUMPDEST SWAP4 POP PUSH1 0x20 DUP6 ADD CALLDATALOAD SWAP3 POP PUSH1 0x40 DUP6 ADD CALLDATALOAD SWAP2 POP PUSH1 0x60 DUP6 ADD CALLDATALOAD PUSH1 0x1 PUSH1 0x1 PUSH1 0x40 SHL SUB DUP2 GT ISZERO PUSH2 0x3BD2 JUMPI PUSH0 PUSH0 REVERT JUMPDEST PUSH1 0x20 DUP1 DUP3 MSTORE DUP3 MLOAD DUP3 DUP3 ADD DUP2 SWAP1 MSTORE PUSH0 SWAP2 DUP5 ADD SWAP1 PUSH1 0x40 DUP5 ADD SWAP1 DUP4 JUMPDEST DUP2 DUP2 LT ISZERO PUSH2 0x3FF5 JUMPI DUP4 MLOAD DUP1 MLOAD PUSH1 0x1 PUSH1 0x1 PUSH1 0xA0 SHL SUB SWAP1 DUP2 AND DUP6 MSTORE PUSH1 0x20 DUP1 DUP4 ADD MLOAD SWAP1 SWAP2 AND DUP2 DUP7 ADD MSTORE PUSH1 0x40 DUP1 DUP4 ADD MLOAD SWAP1 DUP7 ADD MSTORE PUSH1 0x60 SWAP2 DUP3 ADD MLOAD SWAP2 DUP6 ADD SWAP2 SWAP1 SWAP2 MSTORE SWAP1 SWAP4 ADD SWAP3 PUSH1 0x80 SWAP1 SWAP3 ADD SWAP2 PUSH1 0x1 ADD PUSH2 0x3FA6 JUMP JUMPDEST POP SWAP1 SWAP6 SWAP5 POP POP POP POP POP JUMP JUMPDEST DUP1 ISZERO ISZERO DUP2 EQ PUSH2 0x120F JUMPI PUSH0 PUSH0 REVERT JUMPDEST PUSH0 PUSH0 PUSH1 0x40 DUP4 DUP6 SUB SLT ISZERO PUSH2 0x401E JUMPI PUSH0 PUSH0 REVERT JUMPDEST PUSH2 0x4027 DUP4 PUSH2 0x3810 JUMP JUMPDEST SWAP2 POP PUSH1 0x20 DUP4 ADD CALLDATALOAD PUSH2 0x4037 DUP2 PUSH2 0x4000 JUMP JUMPDEST DUP1 SWAP2 POP POP SWAP3 POP SWAP3 SWAP1 POP JUMP JUMPDEST PUSH0 PUSH0 DUP4 PUSH1 0x1F DUP5 ADD SLT PUSH2 0x4052 JUMPI PUSH0 PUSH0 REVERT JUMPDEST POP DUP2 CALLDATALOAD PUSH1 0x1 PUSH1 0x1 PUSH1 0x40 SHL SUB DUP2 GT ISZERO PUSH2 0x4068 JUMPI PUSH0 PUSH0 REVERT JUMPDEST PUSH1 0x20 DUP4 ADD SWAP2 POP DUP4 PUSH1 0x20 DUP3 PUSH1 0x5 SHL DUP6 ADD ADD GT ISZERO PUSH2 0x4082 JUMPI PUSH0 PUSH0 REVERT JUMPDEST SWAP3 POP SWAP3 SWAP1 POP JUMP JUMPDEST PUSH0 PUSH0 DUP4 PUSH1 0x1F DUP5 ADD SLT PUSH2 0x4099 JUMPI PUSH0 PUSH0 REVERT JUMPDEST POP DUP2 CALLDATALOAD PUSH1 0x1 PUSH1 0x1 PUSH1 0x40 SHL SUB DUP2 GT ISZERO PUSH2 0x40AF JUMPI PUSH0 PUSH0 REVERT JUMPDEST PUSH1 0x20 DUP4 ADD SWAP2 POP DUP4 PUSH1 0x20 DUP3 DUP6 ADD ADD GT ISZERO PUSH2 0x4082 JUMPI PUSH0 PUSH0 REVERT JUMPDEST PUSH0 PUSH0 PUSH0 PUSH0 PUSH0 PUSH0 PUSH0 PUSH0 PUSH1 0xA0 DUP10 DUP12 SUB SLT ISZERO PUSH2 0x40DD JUMPI PUSH0 PUSH0 REVERT JUMPDEST PUSH2 0x40E6 DUP10 PUSH2 0x3810 JUMP JUMPDEST SWAP8 POP PUSH2 0x40F4 PUSH1 0x20 DUP11 ADD PUSH2 0x3810 JUMP JUMPDEST SWAP7 POP PUSH1 0x40 DUP10 ADD CALLDATALOAD PUSH1 0x1 PUSH1 0x1 PUSH1 0x40 SHL SUB DUP2 GT ISZERO PUSH2 0x410E JUMPI PUSH0 PUSH0 REVERT JUMPDEST PUSH2 0x411A DUP12 DUP3 DUP13 ADD PUSH2 0x4042 JUMP JUMPDEST SWAP1 SWAP8 POP SWAP6 POP POP PUSH1 0x60 DUP10 ADD CALLDATALOAD PUSH1 0x1 PUSH1 0x1 PUSH1 0x40 SHL SUB DUP2 GT ISZERO PUSH2 0x4138 JUMPI PUSH0 PUSH0 REVERT JUMPDEST PUSH2 0x4144 DUP12 DUP3 DUP13 ADD PUSH2 0x4042 JUMP JUMPDEST SWAP1 SWAP6 POP SWAP4 POP POP PUSH1 0x80 DUP10 ADD CALLDATALOAD PUSH1 0x1 PUSH1 0x1 PUSH1 0x40 SHL SUB DUP2 GT ISZERO PUSH2 0x4162 JUMPI PUSH0 PUSH0 REVERT JUMPDEST PUSH2 0x416E DUP12 DUP3 DUP13 ADD PUSH2 0x4089 JUMP JUMPDEST SWAP10 SWAP13 SWAP9 SWAP12 POP SWAP7 SWAP10 POP SWAP5 SWAP8 SWAP4 SWAP7 SWAP3 SWAP6 SWAP5 POP POP POP JUMP JUMPDEST PUSH0 PUSH0 PUSH0 PUSH0 PUSH1 0x80 DUP6 DUP8 SUB SLT ISZERO PUSH2 0x4195 JUMPI PUSH0 PUSH0 REVERT JUMPDEST DUP5 CALLDATALOAD PUSH1 0x1 PUSH1 0x1 PUSH1 0x40 SHL SUB DUP2 GT ISZERO PUSH2 0x41AA JUMPI PUSH0 PUSH0 REVERT JUMPDEST PUSH2 0x41B6 DUP8 DUP3 DUP9 ADD PUSH2 0x38ED JUMP JUMPDEST SWAP5 POP POP PUSH1 0x20 DUP6 ADD CALLDATALOAD SWAP3 POP PUSH1 0x40 DUP6 ADD CALLDATALOAD SWAP2 POP PUSH1 0x60 DUP6 ADD CALLDATALOAD PUSH1 0x1 PUSH1 0x1 PUSH1 0x40 SHL SUB DUP2 GT ISZERO PUSH2 0x3BD2 JUMPI PUSH0 PUSH0 REVERT JUMPDEST PUSH1 0x20 DUP1 DUP3 MSTORE DUP3 MLOAD DUP3 DUP3 ADD DUP2 SWAP1 MSTORE PUSH0 SWAP2 DUP5 ADD SWAP1 PUSH1 0x40 DUP5 ADD SWAP1 DUP4 JUMPDEST DUP2 DUP2 LT ISZERO PUSH2 0x3FF5 JUMPI PUSH2 0x4215 DUP4 DUP6 MLOAD DUP1 MLOAD DUP3 MSTORE PUSH1 0x20 SWAP1 DUP2 ADD MLOAD SWAP2 ADD MSTORE JUMP JUMPDEST PUSH1 0x20 SWAP4 SWAP1 SWAP4 ADD SWAP3 PUSH1 0x40 SWAP3 SWAP1 SWAP3 ADD SWAP2 PUSH1 0x1 ADD PUSH2 0x41F8 JUMP JUMPDEST PUSH0 PUSH1 0x20 DUP3 ADD PUSH1 0x20 DUP4 MSTORE DUP1 DUP5 MLOAD DUP1 DUP4 MSTORE PUSH1 0x40 DUP6 ADD SWAP2 POP PUSH1 0x40 DUP2 PUSH1 0x5 SHL DUP7 ADD ADD SWAP3 POP PUSH1 0x20 DUP7 ADD PUSH0 JUMPDEST DUP3 DUP2 LT ISZERO PUSH2 0x3ABB JUMPI PUSH1 0x3F NOT DUP8 DUP7 SUB ADD DUP5 MSTORE PUSH2 0x426D DUP6 DUP4 MLOAD PUSH2 0x3972 JUMP JUMPDEST SWAP5 POP PUSH1 0x20 SWAP4 DUP5 ADD SWAP4 SWAP2 SWAP1 SWAP2 ADD SWAP1 PUSH1 0x1 ADD PUSH2 0x4251 JUMP JUMPDEST PUSH0 PUSH0 PUSH1 0x40 DUP4 DUP6 SUB SLT ISZERO PUSH2 0x4293 JUMPI PUSH0 PUSH0 REVERT JUMPDEST POP POP DUP1 CALLDATALOAD SWAP3 PUSH1 0x20 SWAP1 SWAP2 ADD CALLDATALOAD SWAP2 POP JUMP JUMPDEST DUP2 MLOAD DUP2 MSTORE PUSH1 0x20 DUP1 DUP4 ADD MLOAD SWAP1 DUP3 ADD MSTORE PUSH1 0x40 DUP2 ADD PUSH2 0x8BF JUMP JUMPDEST PUSH0 PUSH0 PUSH0 PUSH0 PUSH1 0x80 DUP6 DUP8 SUB SLT ISZERO PUSH2 0x42CC JUMPI PUSH0 PUSH0 REVERT JUMPDEST PUSH2 0x42D5 DUP6 PUSH2 0x3810 JUMP JUMPDEST SWAP4 POP PUSH2 0x42E3 PUSH1 0x20 DUP7 ADD PUSH2 0x3810 JUMP JUMPDEST SWAP3 POP PUSH1 0x40 DUP6 ADD CALLDATALOAD SWAP2 POP PUSH1 0x60 DUP6 ADD CALLDATALOAD PUSH1 0x1 PUSH1 0x1 PUSH1 0x40 SHL SUB DUP2 GT ISZERO PUSH2 0x3BD2 JUMPI PUSH0 PUSH0 REVERT JUMPDEST PUSH0 PUSH0 PUSH1 0x40 DUP4 DUP6 SUB SLT ISZERO PUSH2 0x4315 JUMPI PUSH0 PUSH0 REVERT JUMPDEST PUSH2 0x431E DUP4 PUSH2 0x3810 JUMP JUMPDEST SWAP2 POP PUSH2 0x3CF1 PUSH1 0x20 DUP5 ADD PUSH2 0x3810 JUMP JUMPDEST PUSH0 PUSH0 PUSH0 PUSH0 PUSH0 PUSH0 PUSH1 0xA0 DUP8 DUP10 SUB SLT ISZERO PUSH2 0x4341 JUMPI PUSH0 PUSH0 REVERT JUMPDEST PUSH2 0x434A DUP8 PUSH2 0x3810 JUMP JUMPDEST SWAP6 POP PUSH2 0x4358 PUSH1 0x20 DUP9 ADD PUSH2 0x3810 JUMP JUMPDEST SWAP5 POP PUSH1 0x40 DUP8 ADD CALLDATALOAD SWAP4 POP PUSH1 0x60 DUP8 ADD CALLDATALOAD SWAP3 POP PUSH1 0x80 DUP8 ADD CALLDATALOAD PUSH1 0x1 PUSH1 0x1 PUSH1 0x40 SHL SUB DUP2 GT ISZERO PUSH2 0x4380 JUMPI PUSH0 PUSH0 REVERT JUMPDEST PUSH2 0x438C DUP10 DUP3 DUP11 ADD PUSH2 0x4089 JUMP JUMPDEST SWAP8 SWAP11 SWAP7 SWAP10 POP SWAP5 SWAP8 POP SWAP3 SWAP6 SWAP4 SWAP5 SWAP3 POP POP POP JUMP JUMPDEST PUSH0 PUSH0 PUSH0 PUSH0 PUSH0 PUSH1 0xA0 DUP7 DUP9 SUB SLT ISZERO PUSH2 0x43B2 JUMPI PUSH0 PUSH0 REVERT JUMPDEST PUSH2 0x43BB DUP7 PUSH2 0x3810 JUMP JUMPDEST SWAP5 POP PUSH2 0x43C9 PUSH1 0x20 DUP8 ADD PUSH2 0x3810 JUMP JUMPDEST SWAP4 POP PUSH1 0x40 DUP7 ADD CALLDATALOAD SWAP3 POP PUSH1 0x60 DUP7 ADD CALLDATALOAD SWAP2 POP PUSH1 0x80 DUP7 ADD CALLDATALOAD PUSH1 0x1 PUSH1 0x1 PUSH1 0x40 SHL SUB DUP2 GT ISZERO PUSH2 0x3CB7 JUMPI PUSH0 PUSH0 REVERT JUMPDEST PUSH0 PUSH0 PUSH0 PUSH1 0x60 DUP5 DUP7 SUB SLT ISZERO PUSH2 0x4403 JUMPI PUSH0 PUSH0 REVERT JUMPDEST PUSH2 0x440C DUP5 PUSH2 0x3810 JUMP JUMPDEST SWAP6 PUSH1 0x20 DUP6 ADD CALLDATALOAD SWAP6 POP PUSH1 0x40 SWAP1 SWAP5 ADD CALLDATALOAD SWAP4 SWAP3 POP POP POP JUMP JUMPDEST DUP3 DUP2 MSTORE PUSH1 0x40 PUSH1 0x20 DUP3 ADD MSTORE PUSH0 PUSH2 0x2A16 PUSH1 0x40 DUP4 ADD DUP5 PUSH2 0x3972 JUMP JUMPDEST PUSH4 0x4E487B71 PUSH1 0xE0 SHL PUSH0 MSTORE PUSH1 0x32 PUSH1 0x4 MSTORE PUSH1 0x24 PUSH0 REVERT JUMPDEST PUSH1 0x1 DUP2 DUP2 SHR SWAP1 DUP3 AND DUP1 PUSH2 0x4461 JUMPI PUSH1 0x7F DUP3 AND SWAP2 POP JUMPDEST PUSH1 0x20 DUP3 LT DUP2 SUB PUSH2 0x1540 JUMPI PUSH4 0x4E487B71 PUSH1 0xE0 SHL PUSH0 MSTORE PUSH1 0x22 PUSH1 0x4 MSTORE PUSH1 0x24 PUSH0 REVERT JUMPDEST PUSH0 DUP2 SLOAD PUSH2 0x448B DUP2 PUSH2 0x444D JUMP JUMPDEST PUSH1 0x1 DUP3 AND DUP1 ISZERO PUSH2 0x44A2 JUMPI PUSH1 0x1 DUP2 EQ PUSH2 0x44B7 JUMPI PUSH2 0x44E4 JUMP JUMPDEST PUSH1 0xFF NOT DUP4 AND DUP7 MSTORE DUP2 ISZERO ISZERO DUP3 MUL DUP7 ADD SWAP4 POP PUSH2 0x44E4 JUMP JUMPDEST DUP5 PUSH0 MSTORE PUSH1 0x20 PUSH0 KECCAK256 PUSH0 JUMPDEST DUP4 DUP2 LT ISZERO PUSH2 0x44DC JUMPI DUP2 SLOAD DUP9 DUP3 ADD MSTORE PUSH1 0x1 SWAP1 SWAP2 ADD SWAP1 PUSH1 0x20 ADD PUSH2 0x44C0 JUMP JUMPDEST POP POP DUP2 DUP7 ADD SWAP4 POP JUMPDEST POP POP POP SWAP3 SWAP2 POP POP JUMP JUMPDEST PUSH0 PUSH2 0x2AF7 DUP3 DUP5 PUSH2 0x447F JUMP JUMPDEST PUSH1 0x1F DUP3 GT ISZERO PUSH2 0xBD6 JUMPI DUP1 PUSH0 MSTORE PUSH1 0x20 PUSH0 KECCAK256 PUSH1 0x1F DUP5 ADD PUSH1 0x5 SHR DUP2 ADD PUSH1 0x20 DUP6 LT ISZERO PUSH2 0x451D JUMPI POP DUP1 JUMPDEST PUSH1 0x1F DUP5 ADD PUSH1 0x5 SHR DUP3 ADD SWAP2 POP JUMPDEST DUP2 DUP2 LT ISZERO PUSH2 0xDD8 JUMPI PUSH0 DUP2 SSTORE PUSH1 0x1 ADD PUSH2 0x4529 JUMP JUMPDEST DUP2 MLOAD PUSH1 0x1 PUSH1 0x1 PUSH1 0x40 SHL SUB DUP2 GT ISZERO PUSH2 0x4555 JUMPI PUSH2 0x4555 PUSH2 0x3883 JUMP JUMPDEST PUSH2 0x4569 DUP2 PUSH2 0x4563 DUP5 SLOAD PUSH2 0x444D JUMP JUMPDEST DUP5 PUSH2 0x44F8 JUMP JUMPDEST PUSH1 0x20 PUSH1 0x1F DUP3 GT PUSH1 0x1 DUP2 EQ PUSH2 0x459E JUMPI PUSH0 DUP4 ISZERO PUSH2 0x4584 JUMPI POP DUP5 DUP3 ADD MLOAD JUMPDEST PUSH1 0x1 DUP5 SWAP1 SHL PUSH0 NOT PUSH1 0x3 DUP7 SWAP1 SHL SHR NOT DUP3 AND OR JUMPDEST DUP6 SSTORE POP PUSH2 0xDD8 JUMP JUMPDEST PUSH0 DUP5 DUP2 MSTORE PUSH1 0x20 DUP2 KECCAK256 PUSH1 0x1F NOT DUP6 AND SWAP2 JUMPDEST DUP3 DUP2 LT ISZERO PUSH2 0x45CD JUMPI DUP8 DUP6 ADD MLOAD DUP3 SSTORE PUSH1 0x20 SWAP5 DUP6 ADD SWAP5 PUSH1 0x1 SWAP1 SWAP3 ADD SWAP2 ADD PUSH2 0x45AD JUMP JUMPDEST POP DUP5 DUP3 LT ISZERO PUSH2 0x45EA JUMPI DUP7 DUP5 ADD MLOAD PUSH0 NOT PUSH1 0x3 DUP8 SWAP1 SHL PUSH1 0xF8 AND SHR NOT AND DUP2 SSTORE JUMPDEST POP POP POP POP PUSH1 0x1 SWAP1 DUP2 SHL ADD SWAP1 SSTORE POP JUMP JUMPDEST PUSH4 0x4E487B71 PUSH1 0xE0 SHL PUSH0 MSTORE PUSH1 0x11 PUSH1 0x4 MSTORE PUSH1 0x24 PUSH0 REVERT JUMPDEST PUSH0 PUSH1 0x1 DUP3 ADD PUSH2 0x461E JUMPI PUSH2 0x461E PUSH2 0x45F9 JUMP JUMPDEST POP PUSH1 0x1 ADD SWAP1 JUMP JUMPDEST PUSH1 0x20 DUP1 DUP3 MSTORE PUSH1 0x2A SWAP1 DUP3 ADD MSTORE PUSH32 0x53686172656431313535546F6B656E3A20496E76616C69642072656369706965 PUSH1 0x40 DUP3 ADD MSTORE PUSH10 0x6E742061646472657373 PUSH1 0xB0 SHL PUSH1 0x60 DUP3 ADD MSTORE PUSH1 0x80 ADD SWAP1 JUMP JUMPDEST PUSH1 0x20 DUP1 DUP3 MSTORE PUSH1 0x37 SWAP1 DUP3 ADD MSTORE PUSH32 0x53686172656431313535546F6B656E3A205472616E7366657220616D6F756E74 PUSH1 0x40 DUP3 ADD MSTORE PUSH32 0x206D7573742062652067726561746572207468616E2030000000000000000000 PUSH1 0x60 DUP3 ADD MSTORE PUSH1 0x80 ADD SWAP1 JUMP JUMPDEST PUSH0 PUSH1 0x20 DUP3 DUP5 SUB SLT ISZERO PUSH2 0x46DC JUMPI PUSH0 PUSH0 REVERT JUMPDEST POP MLOAD SWAP2 SWAP1 POP JUMP JUMPDEST PUSH0 PUSH1 0x20 DUP3 DUP5 SUB SLT ISZERO PUSH2 0x46F3 JUMPI PUSH0 PUSH0 REVERT JUMPDEST DUP2 MLOAD PUSH2 0x2AF7 DUP2 PUSH2 0x4000 JUMP JUMPDEST PUSH1 0x20 DUP1 DUP3 MSTORE PUSH1 0x36 SWAP1 DUP3 ADD MSTORE PUSH32 0x53686172656431313535546F6B656E3A204E4654207769746820737065636966 PUSH1 0x40 DUP3 ADD MSTORE PUSH22 0x1A59590815549248191BD95CC81B9BDD08195E1A5CDD PUSH1 0x52 SHL PUSH1 0x60 DUP3 ADD MSTORE PUSH1 0x80 ADD SWAP1 JUMP JUMPDEST PUSH1 0x20 DUP1 DUP3 MSTORE PUSH1 0x29 SWAP1 DUP3 ADD MSTORE PUSH32 0x53686172656431313535546F6B656E3A20496E73756666696369656E74204E46 PUSH1 0x40 DUP3 ADD MSTORE PUSH9 0x542062616C616E6365 PUSH1 0xB8 SHL PUSH1 0x60 DUP3 ADD MSTORE PUSH1 0x80 ADD SWAP1 JUMP JUMPDEST PUSH1 0x20 DUP1 DUP3 MSTORE PUSH1 0x2A SWAP1 DUP3 ADD MSTORE PUSH32 0x53686172656431313535546F6B656E3A20436F6C6C656374696F6E20646F6573 PUSH1 0x40 DUP3 ADD MSTORE PUSH10 0x81B9BDD08195E1A5CDD PUSH1 0xB2 SHL PUSH1 0x60 DUP3 ADD MSTORE PUSH1 0x80 ADD SWAP1 JUMP JUMPDEST DUP2 DUP2 SUB DUP2 DUP2 GT ISZERO PUSH2 0x8BF JUMPI PUSH2 0x8BF PUSH2 0x45F9 JUMP JUMPDEST PUSH4 0x4E487B71 PUSH1 0xE0 SHL PUSH0 MSTORE PUSH1 0x31 PUSH1 0x4 MSTORE PUSH1 0x24 PUSH0 REVERT JUMPDEST PUSH1 0x20 DUP1 DUP3 MSTORE PUSH1 0x22 SWAP1 DUP3 ADD MSTORE PUSH32 0x53686172656431313535546F6B656E3A204E6F6E6578697374656E7420746F6B PUSH1 0x40 DUP3 ADD MSTORE PUSH2 0x32B7 PUSH1 0xF1 SHL PUSH1 0x60 DUP3 ADD MSTORE PUSH1 0x80 ADD SWAP1 JUMP JUMPDEST PUSH1 0x20 DUP1 DUP3 MSTORE PUSH1 0x25 SWAP1 DUP3 ADD MSTORE PUSH32 0x53686172656431313535546F6B656E3A20446174612063616E6E6F7420626520 PUSH1 0x40 DUP3 ADD MSTORE PUSH5 0x656D707479 PUSH1 0xD8 SHL PUSH1 0x60 DUP3 ADD MSTORE PUSH1 0x80 ADD SWAP1 JUMP JUMPDEST DUP2 DUP2 SUB PUSH2 0x48A0 JUMPI POP POP JUMP JUMPDEST PUSH2 0x48AA DUP3 SLOAD PUSH2 0x444D JUMP JUMPDEST PUSH1 0x1 PUSH1 0x1 PUSH1 0x40 SHL SUB DUP2 GT ISZERO PUSH2 0x48C1 JUMPI PUSH2 0x48C1 PUSH2 0x3883 JUMP JUMPDEST PUSH2 0x48CF DUP2 PUSH2 0x4563 DUP5 SLOAD PUSH2 0x444D JUMP JUMPDEST PUSH0 PUSH1 0x1F DUP3 GT PUSH1 0x1 DUP2 EQ PUSH2 0x48FE JUMPI PUSH0 DUP4 ISZERO PUSH2 0x4584 JUMPI POP DUP2 DUP6 ADD SLOAD PUSH1 0x1 DUP5 SWAP1 SHL PUSH0 NOT PUSH1 0x3 DUP7 SWAP1 SHL SHR NOT DUP3 AND OR PUSH2 0x4596 JUMP JUMPDEST PUSH0 DUP6 DUP2 MSTORE PUSH1 0x20 DUP1 DUP3 KECCAK256 DUP7 DUP4 MSTORE SWAP1 DUP3 KECCAK256 PUSH1 0x1F NOT DUP7 AND SWAP3 JUMPDEST DUP4 DUP2 LT ISZERO PUSH2 0x4934 JUMPI DUP3 DUP7 ADD SLOAD DUP3 SSTORE PUSH1 0x1 SWAP6 DUP7 ADD SWAP6 SWAP1 SWAP2 ADD SWAP1 PUSH1 0x20 ADD PUSH2 0x4914 JUMP JUMPDEST POP DUP6 DUP4 LT ISZERO PUSH2 0x4951 JUMPI DUP2 DUP6 ADD SLOAD PUSH0 NOT PUSH1 0x3 DUP9 SWAP1 SHL PUSH1 0xF8 AND SHR NOT AND DUP2 SSTORE JUMPDEST POP POP POP POP POP PUSH1 0x1 SWAP1 DUP2 SHL ADD SWAP1 SSTORE POP JUMP JUMPDEST DUP1 DUP3 ADD DUP1 DUP3 GT ISZERO PUSH2 0x8BF JUMPI PUSH2 0x8BF PUSH2 0x45F9 JUMP JUMPDEST PUSH0 PUSH1 0x20 DUP3 DUP5 SUB SLT ISZERO PUSH2 0x4984 JUMPI PUSH0 PUSH0 REVERT JUMPDEST DUP2 MLOAD PUSH1 0x1 PUSH1 0x1 PUSH1 0x40 SHL SUB DUP2 GT ISZERO PUSH2 0x4999 JUMPI PUSH0 PUSH0 REVERT JUMPDEST DUP3 ADD PUSH1 0x1F DUP2 ADD DUP5 SGT PUSH2 0x49A9 JUMPI PUSH0 PUSH0 REVERT JUMPDEST DUP1 MLOAD PUSH2 0x49B7 PUSH2 0x390F DUP3 PUSH2 0x38C7 JUMP JUMPDEST DUP2 DUP2 MSTORE DUP6 PUSH1 0x20 DUP4 DUP6 ADD ADD GT ISZERO PUSH2 0x49CB JUMPI PUSH0 PUSH0 REVERT JUMPDEST DUP2 PUSH1 0x20 DUP5 ADD PUSH1 0x20 DUP4 ADD MCOPY PUSH0 SWAP2 DUP2 ADD PUSH1 0x20 ADD SWAP2 SWAP1 SWAP2 MSTORE SWAP5 SWAP4 POP POP POP POP JUMP JUMPDEST PUSH0 PUSH2 0x49F3 DUP3 DUP6 PUSH2 0x447F JUMP JUMPDEST DUP4 MLOAD DUP1 PUSH1 0x20 DUP7 ADD DUP4 MCOPY PUSH0 SWAP2 ADD SWAP1 DUP2 MSTORE SWAP5 SWAP4 POP POP POP POP JUMP JUMPDEST PUSH1 0x1 PUSH1 0x1 PUSH1 0xA0 SHL SUB DUP7 DUP2 AND DUP3 MSTORE DUP6 AND PUSH1 0x20 DUP3 ADD MSTORE PUSH1 0x40 DUP2 ADD DUP5 SWAP1 MSTORE PUSH1 0x60 DUP2 ADD DUP4 SWAP1 MSTORE PUSH1 0xA0 PUSH1 0x80 DUP3 ADD DUP2 SWAP1 MSTORE PUSH0 SWAP1 PUSH2 0x4A43 SWAP1 DUP4 ADD DUP5 PUSH2 0x3972 JUMP JUMPDEST SWAP8 SWAP7 POP POP POP POP POP POP POP JUMP JUMPDEST PUSH0 PUSH1 0x20 DUP3 DUP5 SUB SLT ISZERO PUSH2 0x4A5E JUMPI PUSH0 PUSH0 REVERT JUMPDEST DUP2 MLOAD PUSH2 0x2AF7 DUP2 PUSH2 0x3853 JUMP JUMPDEST PUSH1 0x1 PUSH1 0x1 PUSH1 0xA0 SHL SUB DUP7 DUP2 AND DUP3 MSTORE DUP6 AND PUSH1 0x20 DUP3 ADD MSTORE PUSH1 0xA0 PUSH1 0x40 DUP3 ADD DUP2 SWAP1 MSTORE PUSH0 SWAP1 PUSH2 0x4A94 SWAP1 DUP4 ADD DUP7 PUSH2 0x3E04 JUMP JUMPDEST DUP3 DUP2 SUB PUSH1 0x60 DUP5 ADD MSTORE PUSH2 0x4AA6 DUP2 DUP7 PUSH2 0x3E04 JUMP JUMPDEST SWAP1 POP DUP3 DUP2 SUB PUSH1 0x80 DUP5 ADD MSTORE PUSH2 0x4ABA DUP2 DUP6 PUSH2 0x3972 JUMP JUMPDEST SWAP9 SWAP8 POP POP POP POP POP POP POP POP JUMP JUMPDEST PUSH1 0x40 DUP2 MSTORE PUSH0 PUSH2 0x4AD8 PUSH1 0x40 DUP4 ADD DUP6 PUSH2 0x3E04 JUMP JUMPDEST DUP3 DUP2 SUB PUSH1 0x20 DUP5 ADD MSTORE PUSH2 0x4AEA DUP2 DUP6 PUSH2 0x3E04 JUMP JUMPDEST SWAP6 SWAP5 POP POP POP POP POP JUMP INVALID SWAP16 0x2D CREATE INVALID 0xD2 0xC7 PUSH23 0x48DE5860A4CC508CD0818C85B8B8A1AB4CEEEF8D981C89 JUMP 0xA6 LOG2 PUSH5 0x6970667358 0x22 SLT KECCAK256 DUP5 STOP 0xF STATICCALL EXTCODECOPY EXTCODESIZE SWAPN 0x7D JUMPI 0x2E 0xC2 CREATE DUP2 0xB8 0xC1 0x23 0xCF SELFBALANCE EXTDELEGATECALL 0xD6 RETURN LOG3 0x27 PUSH11 0x1457BCFA2966087D64736F PUSH13 0x634300081E0033000000000000 "
		},
		"gasEstimates": {
			"creation": {
				"codeDepositCost": "3854600",
				"executionCost": "infinite",
				"totalCost": "infinite"
			},
			"external": {
				"COLLECTION_CREATOR_ROLE()": "273",
				"DEFAULT_ADMIN_ROLE()": "272",
				"MINTER_ROLE()": "infinite",
				"NFTList(address)": "infinite",
				"approveOperatorForContractNFTs(address,bool)": "28255",
				"balanceOf(address,uint256)": "2705",
				"balanceOfBatch(address[],uint256[])": "infinite",
				"burn(address,uint256,uint256)": "infinite",
				"burnBatch(address,uint256[],uint256[])": "infinite",
				"collectionDatas(uint256)": "4664",
				"collectionIds(uint256)": "4673",
				"collections(uint256)": "infinite",
				"createCollection(string)": "infinite",
				"deleteCollectionBySuffix(string)": "infinite",
				"deleteDataByValue(string)": "infinite",
				"exists(uint256)": "2559",
				"getAllCollectionDatas()": "infinite",
				"getAllCollections()": "infinite",
				"getAllStoredData()": "infinite",
				"getCollection(uint256)": "infinite",
				"getCollectionData(uint256)": "7002",
				"getCollectionSuffix(uint256)": "infinite",
				"getContractNFTs()": "infinite",
				"getRoleAdmin(bytes32)": "2501",
				"getTransferHistory(uint256)": "infinite",
				"getUser_NFTList()": "infinite",
				"grantRole(bytes32,address)": "infinite",
				"grantRoleTo(bytes32,address)": "infinite",
				"hasRole(bytes32,address)": "2749",
				"isApprovedForAll(address,address)": "infinite",
				"isOperatorApprovedForContractNFTs()": "2637",
				"mint(address,uint256,uint256,bytes)": "infinite",
				"mintBatch(address,uint256[],uint256[],bytes)": "infinite",
				"moveContractERC20(address,address,uint256)": "infinite",
				"name()": "infinite",
				"onERC1155BatchReceived(address,address,uint256[],uint256[],bytes)": "infinite",
				"onERC1155Received(address,address,uint256,uint256,bytes)": "infinite",
				"pause()": "infinite",
				"paused()": "2371",
				"renounceRole(bytes32,address)": "29130",
				"revokeRole(bytes32,address)": "infinite",
				"safeBatchTransferFrom(address,address,uint256[],uint256[],bytes)": "infinite",
				"safeCast(string,uint256,bytes32,string)": "infinite",
				"safeTransferFrom(address,address,uint256,uint256,bytes)": "infinite",
				"setApprovalForAll(address,bool)": "26796",
				"setTokenURI(uint256,string)": "infinite",
				"storeData(string)": "infinite",
				"storedData(uint256)": "infinite",
				"supportsInterface(bytes4)": "infinite",
				"tokenIds(uint256)": "4650",
				"totalSupply()": "2415",
				"totalSupply(uint256)": "2535",
				"transferERC20(address,address,uint256,string)": "infinite",
				"transferHistory(uint256,uint256)": "11251",
				"transferNFTByURI(address,string,uint256)": "infinite",
				"unpause()": "infinite",
				"uri(uint256)": "infinite"
			},
			"internal": {
				"_normalizeString(string memory)": "infinite",
				"_update(address,address,uint256[] memory,uint256[] memory)": "infinite"
			}
		},
		"methodIdentifiers": {
			"COLLECTION_CREATOR_ROLE()": "caff99ce",
			"DEFAULT_ADMIN_ROLE()": "a217fddf",
			"MINTER_ROLE()": "d5391393",
			"NFTList(address)": "1f43cf85",
			"approveOperatorForContractNFTs(address,bool)": "9dd6a449",
			"balanceOf(address,uint256)": "00fdd58e",
			"balanceOfBatch(address[],uint256[])": "4e1273f4",
			"burn(address,uint256,uint256)": "f5298aca",
			"burnBatch(address,uint256[],uint256[])": "6b20c454",
			"collectionDatas(uint256)": "258672aa",
			"collectionIds(uint256)": "a9b566a3",
			"collections(uint256)": "fdbda0ec",
			"createCollection(string)": "059dfe13",
			"deleteCollectionBySuffix(string)": "70164f0e",
			"deleteDataByValue(string)": "9cdf0f46",
			"exists(uint256)": "4f558e79",
			"getAllCollectionDatas()": "c71d0ea3",
			"getAllCollections()": "6804a958",
			"getAllStoredData()": "dd5b3a65",
			"getCollection(uint256)": "5a1f3c28",
			"getCollectionData(uint256)": "df6f5b20",
			"getCollectionSuffix(uint256)": "b21fa654",
			"getContractNFTs()": "a7098728",
			"getRoleAdmin(bytes32)": "248a9ca3",
			"getTransferHistory(uint256)": "8bb27d02",
			"getUser_NFTList()": "a3e1ff32",
			"grantRole(bytes32,address)": "2f2ff15d",
			"grantRoleTo(bytes32,address)": "a5e2361d",
			"hasRole(bytes32,address)": "91d14854",
			"isApprovedForAll(address,address)": "e985e9c5",
			"isOperatorApprovedForContractNFTs()": "77e1b4ca",
			"mint(address,uint256,uint256,bytes)": "731133e9",
			"mintBatch(address,uint256[],uint256[],bytes)": "1f7fdffa",
			"moveContractERC20(address,address,uint256)": "2456545a",
			"name()": "06fdde03",
			"onERC1155BatchReceived(address,address,uint256[],uint256[],bytes)": "bc197c81",
			"onERC1155Received(address,address,uint256,uint256,bytes)": "f23a6e61",
			"pause()": "8456cb59",
			"paused()": "5c975abb",
			"renounceRole(bytes32,address)": "36568abe",
			"revokeRole(bytes32,address)": "d547741f",
			"safeBatchTransferFrom(address,address,uint256[],uint256[],bytes)": "2eb2c2d6",
			"safeCast(string,uint256,bytes32,string)": "be7cf750",
			"safeTransferFrom(address,address,uint256,uint256,bytes)": "f242432a",
			"setApprovalForAll(address,bool)": "a22cb465",
			"setTokenURI(uint256,string)": "162094c4",
			"storeData(string)": "fb218f5f",
			"storedData(uint256)": "30377174",
			"supportsInterface(bytes4)": "01ffc9a7",
			"tokenIds(uint256)": "d58778d6",
			"totalSupply()": "18160ddd",
			"totalSupply(uint256)": "bd85b039",
			"transferERC20(address,address,uint256,string)": "e22c4515",
			"transferHistory(uint256,uint256)": "dedaff54",
			"transferNFTByURI(address,string,uint256)": "3038bfdf",
			"unpause()": "3f4ba83a",
			"uri(uint256)": "0e89341c"
		}
	},
	"abi": [
		{
			"inputs": [],
			"stateMutability": "nonpayable",
			"type": "constructor"
		},
		{
			"inputs": [],
			"name": "AccessControlBadConfirmation",
			"type": "error"
		},
		{
			"inputs": [
				{
					"internalType": "address",
					"name": "account",
					"type": "address"
				},
				{
					"internalType": "bytes32",
					"name": "neededRole",
					"type": "bytes32"
				}
			],
			"name": "AccessControlUnauthorizedAccount",
			"type": "error"
		},
		{
			"inputs": [
				{
					"internalType": "address",
					"name": "sender",
					"type": "address"
				},
				{
					"internalType": "uint256",
					"name": "balance",
					"type": "uint256"
				},
				{
					"internalType": "uint256",
					"name": "needed",
					"type": "uint256"
				},
				{
					"internalType": "uint256",
					"name": "tokenId",
					"type": "uint256"
				}
			],
			"name": "ERC1155InsufficientBalance",
			"type": "error"
		},
		{
			"inputs": [
				{
					"internalType": "address",
					"name": "approver",
					"type": "address"
				}
			],
			"name": "ERC1155InvalidApprover",
			"type": "error"
		},
		{
			"inputs": [
				{
					"internalType": "uint256",
					"name": "idsLength",
					"type": "uint256"
				},
				{
					"internalType": "uint256",
					"name": "valuesLength",
					"type": "uint256"
				}
			],
			"name": "ERC1155InvalidArrayLength",
			"type": "error"
		},
		{
			"inputs": [
				{
					"internalType": "address",
					"name": "operator",
					"type": "address"
				}
			],
			"name": "ERC1155InvalidOperator",
			"type": "error"
		},
		{
			"inputs": [
				{
					"internalType": "address",
					"name": "receiver",
					"type": "address"
				}
			],
			"name": "ERC1155InvalidReceiver",
			"type": "error"
		},
		{
			"inputs": [
				{
					"internalType": "address",
					"name": "sender",
					"type": "address"
				}
			],
			"name": "ERC1155InvalidSender",
			"type": "error"
		},
		{
			"inputs": [
				{
					"internalType": "address",
					"name": "operator",
					"type": "address"
				},
				{
					"internalType": "address",
					"name": "owner",
					"type": "address"
				}
			],
			"name": "ERC1155MissingApprovalForAll",
			"type": "error"
		},
		{
			"anonymous": false,
			"inputs": [
				{
					"indexed": true,
					"internalType": "address",
					"name": "account",
					"type": "address"
				},
				{
					"indexed": true,
					"internalType": "address",
					"name": "operator",
					"type": "address"
				},
				{
					"indexed": false,
					"internalType": "bool",
					"name": "approved",
					"type": "bool"
				}
			],
			"name": "ApprovalForAll",
			"type": "event"
		},
		{
			"anonymous": false,
			"inputs": [
				{
					"indexed": true,
					"internalType": "uint256",
					"name": "collectionId",
					"type": "uint256"
				},
				{
					"indexed": false,
					"internalType": "string",
					"name": "suffix",
					"type": "string"
				}
			],
			"name": "CollectionCreated",
			"type": "event"
		},
		{
			"anonymous": false,
			"inputs": [
				{
					"indexed": true,
					"internalType": "uint256",
					"name": "collectionId",
					"type": "uint256"
				},
				{
					"indexed": false,
					"internalType": "string",
					"name": "suffix",
					"type": "string"
				}
			],
			"name": "CollectionDeleted",
			"type": "event"
		},
		{
			"anonymous": false,
			"inputs": [
				{
					"indexed": true,
					"internalType": "address",
					"name": "account",
					"type": "address"
				},
				{
					"indexed": false,
					"internalType": "uint256",
					"name": "tokenId",
					"type": "uint256"
				},
				{
					"indexed": false,
					"internalType": "bytes32",
					"name": "collectionURI",
					"type": "bytes32"
				},
				{
					"indexed": false,
					"internalType": "uint256",
					"name": "amount",
					"type": "uint256"
				}
			],
			"name": "CollectionURIMinted",
			"type": "event"
		},
		{
			"anonymous": false,
			"inputs": [
				{
					"indexed": true,
					"internalType": "address",
					"name": "tokenAddress",
					"type": "address"
				},
				{
					"indexed": true,
					"internalType": "address",
					"name": "to",
					"type": "address"
				},
				{
					"indexed": false,
					"internalType": "uint256",
					"name": "amount",
					"type": "uint256"
				},
				{
					"indexed": false,
					"internalType": "uint256",
					"name": "timestamp",
					"type": "uint256"
				}
			],
			"name": "ContractERC20Transferred",
			"type": "event"
		},
		{
			"anonymous": false,
			"inputs": [
				{
					"indexed": true,
					"internalType": "address",
					"name": "account",
					"type": "address"
				},
				{
					"indexed": false,
					"internalType": "string",
					"name": "data",
					"type": "string"
				}
			],
			"name": "DataDeleted",
			"type": "event"
		},
		{
			"anonymous": false,
			"inputs": [
				{
					"indexed": true,
					"internalType": "address",
					"name": "account",
					"type": "address"
				},
				{
					"indexed": false,
					"internalType": "string",
					"name": "data",
					"type": "string"
				}
			],
			"name": "DataStored",
			"type": "event"
		},
		{
			"anonymous": false,
			"inputs": [
				{
					"indexed": true,
					"internalType": "address",
					"name": "operator",
					"type": "address"
				},
				{
					"indexed": false,
					"internalType": "bool",
					"name": "approved",
					"type": "bool"
				}
			],
			"name": "OperatorApprovedForContractNFTs",
			"type": "event"
		},
		{
			"anonymous": false,
			"inputs": [
				{
					"indexed": false,
					"internalType": "address",
					"name": "account",
					"type": "address"
				}
			],
			"name": "Paused",
			"type": "event"
		},
		{
			"anonymous": false,
			"inputs": [
				{
					"indexed": true,
					"internalType": "bytes32",
					"name": "role",
					"type": "bytes32"
				},
				{
					"indexed": true,
					"internalType": "bytes32",
					"name": "previousAdminRole",
					"type": "bytes32"
				},
				{
					"indexed": true,
					"internalType": "bytes32",
					"name": "newAdminRole",
					"type": "bytes32"
				}
			],
			"name": "RoleAdminChanged",
			"type": "event"
		},
		{
			"anonymous": false,
			"inputs": [
				{
					"indexed": true,
					"internalType": "bytes32",
					"name": "role",
					"type": "bytes32"
				},
				{
					"indexed": true,
					"internalType": "address",
					"name": "account",
					"type": "address"
				},
				{
					"indexed": true,
					"internalType": "address",
					"name": "sender",
					"type": "address"
				}
			],
			"name": "RoleGranted",
			"type": "event"
		},
		{
			"anonymous": false,
			"inputs": [
				{
					"indexed": true,
					"internalType": "bytes32",
					"name": "role",
					"type": "bytes32"
				},
				{
					"indexed": true,
					"internalType": "address",
					"name": "account",
					"type": "address"
				},
				{
					"indexed": true,
					"internalType": "address",
					"name": "sender",
					"type": "address"
				}
			],
			"name": "RoleRevoked",
			"type": "event"
		},
		{
			"anonymous": false,
			"inputs": [
				{
					"indexed": true,
					"internalType": "address",
					"name": "operator",
					"type": "address"
				},
				{
					"indexed": true,
					"internalType": "address",
					"name": "from",
					"type": "address"
				},
				{
					"indexed": true,
					"internalType": "address",
					"name": "to",
					"type": "address"
				},
				{
					"indexed": false,
					"internalType": "uint256[]",
					"name": "ids",
					"type": "uint256[]"
				},
				{
					"indexed": false,
					"internalType": "uint256[]",
					"name": "values",
					"type": "uint256[]"
				}
			],
			"name": "TransferBatch",
			"type": "event"
		},
		{
			"anonymous": false,
			"inputs": [
				{
					"indexed": true,
					"internalType": "uint256",
					"name": "tokenId",
					"type": "uint256"
				},
				{
					"indexed": true,
					"internalType": "address",
					"name": "from",
					"type": "address"
				},
				{
					"indexed": true,
					"internalType": "address",
					"name": "to",
					"type": "address"
				},
				{
					"indexed": false,
					"internalType": "uint256",
					"name": "amount",
					"type": "uint256"
				},
				{
					"indexed": false,
					"internalType": "uint256",
					"name": "timestamp",
					"type": "uint256"
				}
			],
			"name": "TransferRecorded",
			"type": "event"
		},
		{
			"anonymous": false,
			"inputs": [
				{
					"indexed": true,
					"internalType": "address",
					"name": "operator",
					"type": "address"
				},
				{
					"indexed": true,
					"internalType": "address",
					"name": "from",
					"type": "address"
				},
				{
					"indexed": true,
					"internalType": "address",
					"name": "to",
					"type": "address"
				},
				{
					"indexed": false,
					"internalType": "uint256",
					"name": "id",
					"type": "uint256"
				},
				{
					"indexed": false,
					"internalType": "uint256",
					"name": "value",
					"type": "uint256"
				}
			],
			"name": "TransferSingle",
			"type": "event"
		},
		{
			"anonymous": false,
			"inputs": [
				{
					"indexed": false,
					"internalType": "string",
					"name": "value",
					"type": "string"
				},
				{
					"indexed": true,
					"internalType": "uint256",
					"name": "id",
					"type": "uint256"
				}
			],
			"name": "URI",
			"type": "event"
		},
		{
			"anonymous": false,
			"inputs": [
				{
					"indexed": false,
					"internalType": "address",
					"name": "account",
					"type": "address"
				}
			],
			"name": "Unpaused",
			"type": "event"
		},
		{
			"inputs": [],
			"name": "COLLECTION_CREATOR_ROLE",
			"outputs": [
				{
					"internalType": "bytes32",
					"name": "",
					"type": "bytes32"
				}
			],
			"stateMutability": "view",
			"type": "function"
		},
		{
			"inputs": [],
			"name": "DEFAULT_ADMIN_ROLE",
			"outputs": [
				{
					"internalType": "bytes32",
					"name": "",
					"type": "bytes32"
				}
			],
			"stateMutability": "view",
			"type": "function"
		},
		{
			"inputs": [],
			"name": "MINTER_ROLE",
			"outputs": [
				{
					"internalType": "bytes32",
					"name": "",
					"type": "bytes32"
				}
			],
			"stateMutability": "view",
			"type": "function"
		},
		{
			"inputs": [
				{
					"internalType": "address",
					"name": "account",
					"type": "address"
				}
			],
			"name": "NFTList",
			"outputs": [
				{
					"components": [
						{
							"internalType": "uint256",
							"name": "tokenId",
							"type": "uint256"
						},
						{
							"internalType": "uint256",
							"name": "amount",
							"type": "uint256"
						},
						{
							"internalType": "string",
							"name": "uri",
							"type": "string"
						},
						{
							"components": [
								{
									"internalType": "bytes32",
									"name": "cid",
									"type": "bytes32"
								},
								{
									"internalType": "uint256",
									"name": "collectionId",
									"type": "uint256"
								}
							],
							"internalType": "struct Shared1155Token.CollectionData",
							"name": "collectionData",
							"type": "tuple"
						}
					],
					"internalType": "struct Shared1155Token.NFTDetails[]",
					"name": "",
					"type": "tuple[]"
				}
			],
			"stateMutability": "view",
			"type": "function"
		},
		{
			"inputs": [
				{
					"internalType": "address",
					"name": "operator",
					"type": "address"
				},
				{
					"internalType": "bool",
					"name": "approved",
					"type": "bool"
				}
			],
			"name": "approveOperatorForContractNFTs",
			"outputs": [],
			"stateMutability": "nonpayable",
			"type": "function"
		},
		{
			"inputs": [
				{
					"internalType": "address",
					"name": "account",
					"type": "address"
				},
				{
					"internalType": "uint256",
					"name": "id",
					"type": "uint256"
				}
			],
			"name": "balanceOf",
			"outputs": [
				{
					"internalType": "uint256",
					"name": "",
					"type": "uint256"
				}
			],
			"stateMutability": "view",
			"type": "function"
		},
		{
			"inputs": [
				{
					"internalType": "address[]",
					"name": "accounts",
					"type": "address[]"
				},
				{
					"internalType": "uint256[]",
					"name": "ids",
					"type": "uint256[]"
				}
			],
			"name": "balanceOfBatch",
			"outputs": [
				{
					"internalType": "uint256[]",
					"name": "",
					"type": "uint256[]"
				}
			],
			"stateMutability": "view",
			"type": "function"
		},
		{
			"inputs": [
				{
					"internalType": "address",
					"name": "account",
					"type": "address"
				},
				{
					"internalType": "uint256",
					"name": "id",
					"type": "uint256"
				},
				{
					"internalType": "uint256",
					"name": "value",
					"type": "uint256"
				}
			],
			"name": "burn",
			"outputs": [],
			"stateMutability": "nonpayable",
			"type": "function"
		},
		{
			"inputs": [
				{
					"internalType": "address",
					"name": "account",
					"type": "address"
				},
				{
					"internalType": "uint256[]",
					"name": "ids",
					"type": "uint256[]"
				},
				{
					"internalType": "uint256[]",
					"name": "values",
					"type": "uint256[]"
				}
			],
			"name": "burnBatch",
			"outputs": [],
			"stateMutability": "nonpayable",
			"type": "function"
		},
		{
			"inputs": [
				{
					"internalType": "uint256",
					"name": "",
					"type": "uint256"
				}
			],
			"name": "collectionDatas",
			"outputs": [
				{
					"internalType": "bytes32",
					"name": "cid",
					"type": "bytes32"
				},
				{
					"internalType": "uint256",
					"name": "collectionId",
					"type": "uint256"
				}
			],
			"stateMutability": "view",
			"type": "function"
		},
		{
			"inputs": [
				{
					"internalType": "uint256",
					"name": "",
					"type": "uint256"
				}
			],
			"name": "collectionIds",
			"outputs": [
				{
					"internalType": "uint256",
					"name": "",
					"type": "uint256"
				}
			],
			"stateMutability": "view",
			"type": "function"
		},
		{
			"inputs": [
				{
					"internalType": "uint256",
					"name": "",
					"type": "uint256"
				}
			],
			"name": "collections",
			"outputs": [
				{
					"internalType": "uint256",
					"name": "id",
					"type": "uint256"
				},
				{
					"internalType": "string",
					"name": "suffix",
					"type": "string"
				}
			],
			"stateMutability": "view",
			"type": "function"
		},
		{
			"inputs": [
				{
					"internalType": "string",
					"name": "suffix",
					"type": "string"
				}
			],
			"name": "createCollection",
			"outputs": [],
			"stateMutability": "nonpayable",
			"type": "function"
		},
		{
			"inputs": [
				{
					"internalType": "string",
					"name": "suffix",
					"type": "string"
				}
			],
			"name": "deleteCollectionBySuffix",
			"outputs": [],
			"stateMutability": "nonpayable",
			"type": "function"
		},
		{
			"inputs": [
				{
					"internalType": "string",
					"name": "data",
					"type": "string"
				}
			],
			"name": "deleteDataByValue",
			"outputs": [],
			"stateMutability": "nonpayable",
			"type": "function"
		},
		{
			"inputs": [
				{
					"internalType": "uint256",
					"name": "id",
					"type": "uint256"
				}
			],
			"name": "exists",
			"outputs": [
				{
					"internalType": "bool",
					"name": "",
					"type": "bool"
				}
			],
			"stateMutability": "view",
			"type": "function"
		},
		{
			"inputs": [],
			"name": "getAllCollectionDatas",
			"outputs": [
				{
					"components": [
						{
							"internalType": "bytes32",
							"name": "cid",
							"type": "bytes32"
						},
						{
							"internalType": "uint256",
							"name": "collectionId",
							"type": "uint256"
						}
					],
					"internalType": "struct Shared1155Token.CollectionData[]",
					"name": "",
					"type": "tuple[]"
				}
			],
			"stateMutability": "view",
			"type": "function"
		},
		{
			"inputs": [],
			"name": "getAllCollections",
			"outputs": [
				{
					"components": [
						{
							"internalType": "uint256",
							"name": "id",
							"type": "uint256"
						},
						{
							"internalType": "string",
							"name": "suffix",
							"type": "string"
						}
					],
					"internalType": "struct Shared1155Token.Collection[]",
					"name": "",
					"type": "tuple[]"
				}
			],
			"stateMutability": "view",
			"type": "function"
		},
		{
			"inputs": [],
			"name": "getAllStoredData",
			"outputs": [
				{
					"internalType": "string[]",
					"name": "",
					"type": "string[]"
				}
			],
			"stateMutability": "view",
			"type": "function"
		},
		{
			"inputs": [
				{
					"internalType": "uint256",
					"name": "collectionId",
					"type": "uint256"
				}
			],
			"name": "getCollection",
			"outputs": [
				{
					"components": [
						{
							"internalType": "uint256",
							"name": "id",
							"type": "uint256"
						},
						{
							"internalType": "string",
							"name": "suffix",
							"type": "string"
						}
					],
					"internalType": "struct Shared1155Token.Collection",
					"name": "",
					"type": "tuple"
				}
			],
			"stateMutability": "view",
			"type": "function"
		},
		{
			"inputs": [
				{
					"internalType": "uint256",
					"name": "tokenId",
					"type": "uint256"
				}
			],
			"name": "getCollectionData",
			"outputs": [
				{
					"components": [
						{
							"internalType": "bytes32",
							"name": "cid",
							"type": "bytes32"
						},
						{
							"internalType": "uint256",
							"name": "collectionId",
							"type": "uint256"
						}
					],
					"internalType": "struct Shared1155Token.CollectionData",
					"name": "",
					"type": "tuple"
				}
			],
			"stateMutability": "view",
			"type": "function"
		},
		{
			"inputs": [
				{
					"internalType": "uint256",
					"name": "collectionId",
					"type": "uint256"
				}
			],
			"name": "getCollectionSuffix",
			"outputs": [
				{
					"internalType": "string",
					"name": "",
					"type": "string"
				}
			],
			"stateMutability": "view",
			"type": "function"
		},
		{
			"inputs": [],
			"name": "getContractNFTs",
			"outputs": [
				{
					"components": [
						{
							"internalType": "uint256",
							"name": "tokenId",
							"type": "uint256"
						},
						{
							"internalType": "uint256",
							"name": "amount",
							"type": "uint256"
						},
						{
							"internalType": "string",
							"name": "uri",
							"type": "string"
						},
						{
							"components": [
								{
									"internalType": "bytes32",
									"name": "cid",
									"type": "bytes32"
								},
								{
									"internalType": "uint256",
									"name": "collectionId",
									"type": "uint256"
								}
							],
							"internalType": "struct Shared1155Token.CollectionData",
							"name": "collectionData",
							"type": "tuple"
						}
					],
					"internalType": "struct Shared1155Token.NFTDetails[]",
					"name": "",
					"type": "tuple[]"
				}
			],
			"stateMutability": "view",
			"type": "function"
		},
		{
			"inputs": [
				{
					"internalType": "bytes32",
					"name": "role",
					"type": "bytes32"
				}
			],
			"name": "getRoleAdmin",
			"outputs": [
				{
					"internalType": "bytes32",
					"name": "",
					"type": "bytes32"
				}
			],
			"stateMutability": "view",
			"type": "function"
		},
		{
			"inputs": [
				{
					"internalType": "uint256",
					"name": "tokenId",
					"type": "uint256"
				}
			],
			"name": "getTransferHistory",
			"outputs": [
				{
					"components": [
						{
							"internalType": "address",
							"name": "from",
							"type": "address"
						},
						{
							"internalType": "address",
							"name": "to",
							"type": "address"
						},
						{
							"internalType": "uint256",
							"name": "amount",
							"type": "uint256"
						},
						{
							"internalType": "uint256",
							"name": "timestamp",
							"type": "uint256"
						}
					],
					"internalType": "struct Shared1155Token.TransferRecord[]",
					"name": "",
					"type": "tuple[]"
				}
			],
			"stateMutability": "view",
			"type": "function"
		},
		{
			"inputs": [],
			"name": "getUser_NFTList",
			"outputs": [
				{
					"components": [
						{
							"internalType": "uint256",
							"name": "tokenId",
							"type": "uint256"
						},
						{
							"internalType": "uint256",
							"name": "amount",
							"type": "uint256"
						},
						{
							"internalType": "string",
							"name": "uri",
							"type": "string"
						},
						{
							"components": [
								{
									"internalType": "bytes32",
									"name": "cid",
									"type": "bytes32"
								},
								{
									"internalType": "uint256",
									"name": "collectionId",
									"type": "uint256"
								}
							],
							"internalType": "struct Shared1155Token.CollectionData",
							"name": "collectionData",
							"type": "tuple"
						}
					],
					"internalType": "struct Shared1155Token.NFTDetails[]",
					"name": "",
					"type": "tuple[]"
				}
			],
			"stateMutability": "view",
			"type": "function"
		},
		{
			"inputs": [
				{
					"internalType": "bytes32",
					"name": "role",
					"type": "bytes32"
				},
				{
					"internalType": "address",
					"name": "account",
					"type": "address"
				}
			],
			"name": "grantRole",
			"outputs": [],
			"stateMutability": "nonpayable",
			"type": "function"
		},
		{
			"inputs": [
				{
					"internalType": "bytes32",
					"name": "role",
					"type": "bytes32"
				},
				{
					"internalType": "address",
					"name": "account",
					"type": "address"
				}
			],
			"name": "grantRoleTo",
			"outputs": [],
			"stateMutability": "nonpayable",
			"type": "function"
		},
		{
			"inputs": [
				{
					"internalType": "bytes32",
					"name": "role",
					"type": "bytes32"
				},
				{
					"internalType": "address",
					"name": "account",
					"type": "address"
				}
			],
			"name": "hasRole",
			"outputs": [
				{
					"internalType": "bool",
					"name": "",
					"type": "bool"
				}
			],
			"stateMutability": "view",
			"type": "function"
		},
		{
			"inputs": [
				{
					"internalType": "address",
					"name": "account",
					"type": "address"
				},
				{
					"internalType": "address",
					"name": "operator",
					"type": "address"
				}
			],
			"name": "isApprovedForAll",
			"outputs": [
				{
					"internalType": "bool",
					"name": "",
					"type": "bool"
				}
			],
			"stateMutability": "view",
			"type": "function"
		},
		{
			"inputs": [],
			"name": "isOperatorApprovedForContractNFTs",
			"outputs": [
				{
					"internalType": "bool",
					"name": "",
					"type": "bool"
				}
			],
			"stateMutability": "view",
			"type": "function"
		},
		{
			"inputs": [
				{
					"internalType": "address",
					"name": "account",
					"type": "address"
				},
				{
					"internalType": "uint256",
					"name": "id",
					"type": "uint256"
				},
				{
					"internalType": "uint256",
					"name": "amount",
					"type": "uint256"
				},
				{
					"internalType": "bytes",
					"name": "data",
					"type": "bytes"
				}
			],
			"name": "mint",
			"outputs": [],
			"stateMutability": "nonpayable",
			"type": "function"
		},
		{
			"inputs": [
				{
					"internalType": "address",
					"name": "to",
					"type": "address"
				},
				{
					"internalType": "uint256[]",
					"name": "ids",
					"type": "uint256[]"
				},
				{
					"internalType": "uint256[]",
					"name": "amounts",
					"type": "uint256[]"
				},
				{
					"internalType": "bytes",
					"name": "data",
					"type": "bytes"
				}
			],
			"name": "mintBatch",
			"outputs": [],
			"stateMutability": "nonpayable",
			"type": "function"
		},
		{
			"inputs": [
				{
					"internalType": "address",
					"name": "tokenAddress",
					"type": "address"
				},
				{
					"internalType": "address",
					"name": "to",
					"type": "address"
				},
				{
					"internalType": "uint256",
					"name": "amount",
					"type": "uint256"
				}
			],
			"name": "moveContractERC20",
			"outputs": [],
			"stateMutability": "nonpayable",
			"type": "function"
		},
		{
			"inputs": [],
			"name": "name",
			"outputs": [
				{
					"internalType": "string",
					"name": "",
					"type": "string"
				}
			],
			"stateMutability": "view",
			"type": "function"
		},
		{
			"inputs": [
				{
					"internalType": "address",
					"name": "",
					"type": "address"
				},
				{
					"internalType": "address",
					"name": "",
					"type": "address"
				},
				{
					"internalType": "uint256[]",
					"name": "",
					"type": "uint256[]"
				},
				{
					"internalType": "uint256[]",
					"name": "",
					"type": "uint256[]"
				},
				{
					"internalType": "bytes",
					"name": "",
					"type": "bytes"
				}
			],
			"name": "onERC1155BatchReceived",
			"outputs": [
				{
					"internalType": "bytes4",
					"name": "",
					"type": "bytes4"
				}
			],
			"stateMutability": "pure",
			"type": "function"
		},
		{
			"inputs": [
				{
					"internalType": "address",
					"name": "",
					"type": "address"
				},
				{
					"internalType": "address",
					"name": "",
					"type": "address"
				},
				{
					"internalType": "uint256",
					"name": "",
					"type": "uint256"
				},
				{
					"internalType": "uint256",
					"name": "",
					"type": "uint256"
				},
				{
					"internalType": "bytes",
					"name": "",
					"type": "bytes"
				}
			],
			"name": "onERC1155Received",
			"outputs": [
				{
					"internalType": "bytes4",
					"name": "",
					"type": "bytes4"
				}
			],
			"stateMutability": "pure",
			"type": "function"
		},
		{
			"inputs": [],
			"name": "pause",
			"outputs": [],
			"stateMutability": "nonpayable",
			"type": "function"
		},
		{
			"inputs": [],
			"name": "paused",
			"outputs": [
				{
					"internalType": "bool",
					"name": "",
					"type": "bool"
				}
			],
			"stateMutability": "view",
			"type": "function"
		},
		{
			"inputs": [
				{
					"internalType": "bytes32",
					"name": "role",
					"type": "bytes32"
				},
				{
					"internalType": "address",
					"name": "callerConfirmation",
					"type": "address"
				}
			],
			"name": "renounceRole",
			"outputs": [],
			"stateMutability": "nonpayable",
			"type": "function"
		},
		{
			"inputs": [
				{
					"internalType": "bytes32",
					"name": "role",
					"type": "bytes32"
				},
				{
					"internalType": "address",
					"name": "account",
					"type": "address"
				}
			],
			"name": "revokeRole",
			"outputs": [],
			"stateMutability": "nonpayable",
			"type": "function"
		},
		{
			"inputs": [
				{
					"internalType": "address",
					"name": "from",
					"type": "address"
				},
				{
					"internalType": "address",
					"name": "to",
					"type": "address"
				},
				{
					"internalType": "uint256[]",
					"name": "ids",
					"type": "uint256[]"
				},
				{
					"internalType": "uint256[]",
					"name": "values",
					"type": "uint256[]"
				},
				{
					"internalType": "bytes",
					"name": "data",
					"type": "bytes"
				}
			],
			"name": "safeBatchTransferFrom",
			"outputs": [],
			"stateMutability": "nonpayable",
			"type": "function"
		},
		{
			"inputs": [
				{
					"internalType": "string",
					"name": "tokenURI",
					"type": "string"
				},
				{
					"internalType": "uint256",
					"name": "amount",
					"type": "uint256"
				},
				{
					"internalType": "bytes32",
					"name": "cid",
					"type": "bytes32"
				},
				{
					"internalType": "string",
					"name": "suffix",
					"type": "string"
				}
			],
			"name": "safeCast",
			"outputs": [],
			"stateMutability": "nonpayable",
			"type": "function"
		},
		{
			"inputs": [
				{
					"internalType": "address",
					"name": "from",
					"type": "address"
				},
				{
					"internalType": "address",
					"name": "to",
					"type": "address"
				},
				{
					"internalType": "uint256",
					"name": "id",
					"type": "uint256"
				},
				{
					"internalType": "uint256",
					"name": "value",
					"type": "uint256"
				},
				{
					"internalType": "bytes",
					"name": "data",
					"type": "bytes"
				}
			],
			"name": "safeTransferFrom",
			"outputs": [],
			"stateMutability": "nonpayable",
			"type": "function"
		},
		{
			"inputs": [
				{
					"internalType": "address",
					"name": "operator",
					"type": "address"
				},
				{
					"internalType": "bool",
					"name": "approved",
					"type": "bool"
				}
			],
			"name": "setApprovalForAll",
			"outputs": [],
			"stateMutability": "nonpayable",
			"type": "function"
		},
		{
			"inputs": [
				{
					"internalType": "uint256",
					"name": "tokenId",
					"type": "uint256"
				},
				{
					"internalType": "string",
					"name": "newURI",
					"type": "string"
				}
			],
			"name": "setTokenURI",
			"outputs": [],
			"stateMutability": "nonpayable",
			"type": "function"
		},
		{
			"inputs": [
				{
					"internalType": "string",
					"name": "data",
					"type": "string"
				}
			],
			"name": "storeData",
			"outputs": [],
			"stateMutability": "nonpayable",
			"type": "function"
		},
		{
			"inputs": [
				{
					"internalType": "uint256",
					"name": "",
					"type": "uint256"
				}
			],
			"name": "storedData",
			"outputs": [
				{
					"internalType": "string",
					"name": "",
					"type": "string"
				}
			],
			"stateMutability": "view",
			"type": "function"
		},
		{
			"inputs": [
				{
					"internalType": "bytes4",
					"name": "interfaceId",
					"type": "bytes4"
				}
			],
			"name": "supportsInterface",
			"outputs": [
				{
					"internalType": "bool",
					"name": "",
					"type": "bool"
				}
			],
			"stateMutability": "view",
			"type": "function"
		},
		{
			"inputs": [
				{
					"internalType": "uint256",
					"name": "",
					"type": "uint256"
				}
			],
			"name": "tokenIds",
			"outputs": [
				{
					"internalType": "uint256",
					"name": "",
					"type": "uint256"
				}
			],
			"stateMutability": "view",
			"type": "function"
		},
		{
			"inputs": [],
			"name": "totalSupply",
			"outputs": [
				{
					"internalType": "uint256",
					"name": "",
					"type": "uint256"
				}
			],
			"stateMutability": "view",
			"type": "function"
		},
		{
			"inputs": [
				{
					"internalType": "uint256",
					"name": "id",
					"type": "uint256"
				}
			],
			"name": "totalSupply",
			"outputs": [
				{
					"internalType": "uint256",
					"name": "",
					"type": "uint256"
				}
			],
			"stateMutability": "view",
			"type": "function"
		},
		{
			"inputs": [
				{
					"internalType": "address",
					"name": "tokenAddress",
					"type": "address"
				},
				{
					"internalType": "address",
					"name": "to",
					"type": "address"
				},
				{
					"internalType": "uint256",
					"name": "amount",
					"type": "uint256"
				},
				{
					"internalType": "string",
					"name": "targetURI",
					"type": "string"
				}
			],
			"name": "transferERC20",
			"outputs": [],
			"stateMutability": "nonpayable",
			"type": "function"
		},
		{
			"inputs": [
				{
					"internalType": "uint256",
					"name": "",
					"type": "uint256"
				},
				{
					"internalType": "uint256",
					"name": "",
					"type": "uint256"
				}
			],
			"name": "transferHistory",
			"outputs": [
				{
					"internalType": "address",
					"name": "from",
					"type": "address"
				},
				{
					"internalType": "address",
					"name": "to",
					"type": "address"
				},
				{
					"internalType": "uint256",
					"name": "amount",
					"type": "uint256"
				},
				{
					"internalType": "uint256",
					"name": "timestamp",
					"type": "uint256"
				}
			],
			"stateMutability": "view",
			"type": "function"
		},
		{
			"inputs": [
				{
					"internalType": "address",
					"name": "to",
					"type": "address"
				},
				{
					"internalType": "string",
					"name": "targetURI",
					"type": "string"
				},
				{
					"internalType": "uint256",
					"name": "amount",
					"type": "uint256"
				}
			],
			"name": "transferNFTByURI",
			"outputs": [],
			"stateMutability": "nonpayable",
			"type": "function"
		},
		{
			"inputs": [],
			"name": "unpause",
			"outputs": [],
			"stateMutability": "nonpayable",
			"type": "function"
		},
		{
			"inputs": [
				{
					"internalType": "uint256",
					"name": "tokenId",
					"type": "uint256"
				}
			],
			"name": "uri",
			"outputs": [
				{
					"internalType": "string",
					"name": "",
					"type": "string"
				}
			],
			"stateMutability": "view",
			"type": "function"
		}
	]
}